{
	"data": {
		"bytecode": {
			"linkReferences": {},
			"object": "60c06040523480156200001157600080fd5b5060405162001274380380620012748339818101604052810190620000379190620006ac565b62000066826200005283620000de60201b620002c81760201c565b6200033b60201b620005241790919060201c565b60a081815250506000620000a06200008f8460a0516200037960201b620005611790919060201c565b620003b360201b620005991760201c565b9050620000ce60a051600183620000b8919062000722565b84620005ab60201b62000789179092919060201c565b608081815250505050506200078c565b6000816fffffffffffffffffffffffffffffffff1060071b905081811c67ffffffffffffffff1060061b8117905081811c63ffffffff1060051b8117905081811c61ffff1060041b8117905081811c60ff1060031b81179050600082136200014e57631615e6386000526004601cfd5b7ff8f9f9faf9fdfafbf9fdfcfdfafbfcfef9fafdfafcfcfbfefafafcfbffffffff6f8421084210842108cc6318c6db6d54be83831c1c601f161a8118905081811b609f1c91506c8c3f38e95a6b1ff2ab1c3b3437828384856c29508e458543d8aa4df2abee78010260601d6d0139601a2efabe717e604cbb4894010260601d6d02247f7a7b6594320649aa03aba1010260601d036d02384773bdf1ac5676facced609183820260601d0390506cb9a025d814b29c212b8b1a07ce83820260601d0390506c0a09507084cc699bb0e71ea86a60601b838202039050826c465772b2bbbb5f824b15207a300180840260601d6d0388eaa27412d5aca026815d636e01905080840260601d6d0df99ac502031bf953eff472fdcc01905080840260601d6d13cdffb29d51d99322bdff5f221101905080840260601d6d0a0f742023def783a307a986912e01905080840260601d6d01920d8043ca89b5239253284e4201905080840260601d6c0b7a86d7375468fac667a0a527019050808205915081711340daa0d5f769dba1915cef59f0815a55060291508183609f037d0267a36c0c95b3975ab3ee5b203a7614a3f75373f047d803ae7b6687f2b302019150817d57115e47018c7177eebf7cd370a3356a1b7863008a5ae8028c72b88642840191508160ae1d92505050919050565b6000670de0b6b3a764000060001904600101831082026200036457637c5f487d6000526004601cfd5b81670de0b6b3a7640000840204905092915050565b600081600019048311156200039e5781156200039d5763bac65e5b6000526004601cfd5b5b670de0b6b3a764000082840204905092915050565b60007ffffffffffffffffffffffffffffffffffffffffffffffffdc0d0570925a462d7821315620005a657680755bf798b4a1bf1e58212620003fd5763a37bfec96000526004601cfd5b6503782dace9d9604e83901b816200041a57620004196200075d565b5b059150600060606b8000000000000000000000006bb17217f7d1cf79abc9e3b398606086901b816200045157620004506200075d565b5b0501901d90506bb17217f7d1cf79abc9e3b39881028303925060006c10fe68e7fd37d0007b713f7650840190506d02d16720577bd19bf614176fe9ea6060858302901d01905060006d04a4fd9f2a8b96949216d2255a6c8583010390506e0587f503bb6ea29d25fcb7401964506060838302901d01905079d835ebba824c98fb31b83b2ca45c00000000000000000000000085820201905060006c240c330e9fb2d9cbaf0fd5aafc860390506d0277594991cfc85f6e2461837cd96060878302901d0190506d1a521255e34f6a5061b25ef1c9c46060878302901d0390506db1bbb201f443cf962f1a1d3db4a56060878302901d0190506e02c72388d9f74f51a9331fed693f156060878302901d0390506e05180bb14799ab47a8a8cb2a527d576060878302901d01905080820594508360c30374029d9dc38563c32e5c2f6dc192ee70ef65f9978af38602901c9450505050505b919050565b600082840290506001156200066557818385830414851517026200065f576000198385098181108201810383858709846000038516828611620005f65763ae47f7026000526004601cfd5b80860495508560030260021880870260020381029050808702600203810290508087026002038102905080870260020381029050808702600203810290508081880260020302828488030460018485600003040188861187030217029550505050505062000665565b81810490505b9392505050565b600080fd5b6000819050919050565b620006868162000671565b81146200069257600080fd5b50565b600081519050620006a6816200067b565b92915050565b60008060408385031215620006c657620006c56200066c565b5b6000620006d68582860162000695565b9250506020620006e98582860162000695565b9150509250929050565b7f4e487b7100000000000000000000000000000000000000000000000000000000600052601160045260246000fd5b60006200072f8262000671565b91506200073c8362000671565b925082821015620007525762000751620006f3565b5b828203905092915050565b7f4e487b7100000000000000000000000000000000000000000000000000000000600052601260045260246000fd5b60805160a051610aa7620007cd6000396000818160ef0152818161013b01526101fb015260008181610116015281816101d601526102a60152610aa76000f3fe608060405234801561001057600080fd5b506004361061004c5760003560e01c806332e7c5bf146100515780637cabb7cf1461006f578063901ce73e1461009f578063f446c1d0146100cf575b600080fd5b6100596100ed565b604051610066919061085f565b60405180910390f35b610089600480360381019061008491906108ab565b610111565b604051610096919061085f565b60405180910390f35b6100b960048036038101906100b491906108ab565b6101d1565b6040516100c6919061085f565b60405180910390f35b6100d76102a4565b6040516100e4919061085f565b60405180910390f35b7f000000000000000000000000000000000000000000000000000000000000000081565b6000807f0000000000000000000000000000000000000000000000000000000000000000905060007f000000000000000000000000000000000000000000000000000000000000000090506000610179610174878461056190919063ffffffff16565b610599565b905060006101928385886107899092919063ffffffff16565b8261019d919061091a565b9050866101bb846101ad846102c8565b61052490919063ffffffff16565b6101c59190610970565b94505050505092915050565b6000807f0000000000000000000000000000000000000000000000000000000000000000905060007f000000000000000000000000000000000000000000000000000000000000000090508385101561022957600080fd5b6000610246610241878461056190919063ffffffff16565b610599565b9050600061027061026b878961025c9190610970565b8561056190919063ffffffff16565b610599565b90506000818361028091906109ae565b90506102978185876107899092919063ffffffff16565b9550505050505092915050565b7f000000000000000000000000000000000000000000000000000000000000000081565b6000816fffffffffffffffffffffffffffffffff1060071b905081811c67ffffffffffffffff1060061b8117905081811c63ffffffff1060051b8117905081811c61ffff1060041b8117905081811c60ff1060031b811790506000821361033757631615e6386000526004601cfd5b7ff8f9f9faf9fdfafbf9fdfcfdfafbfcfef9fafdfafcfcfbfefafafcfbffffffff6f8421084210842108cc6318c6db6d54be83831c1c601f161a8118905081811b609f1c91506c8c3f38e95a6b1ff2ab1c3b3437828384856c29508e458543d8aa4df2abee78010260601d6d0139601a2efabe717e604cbb4894010260601d6d02247f7a7b6594320649aa03aba1010260601d036d02384773bdf1ac5676facced609183820260601d0390506cb9a025d814b29c212b8b1a07ce83820260601d0390506c0a09507084cc699bb0e71ea86a60601b838202039050826c465772b2bbbb5f824b15207a300180840260601d6d0388eaa27412d5aca026815d636e01905080840260601d6d0df99ac502031bf953eff472fdcc01905080840260601d6d13cdffb29d51d99322bdff5f221101905080840260601d6d0a0f742023def783a307a986912e01905080840260601d6d01920d8043ca89b5239253284e4201905080840260601d6c0b7a86d7375468fac667a0a527019050808205915081711340daa0d5f769dba1915cef59f0815a55060291508183609f037d0267a36c0c95b3975ab3ee5b203a7614a3f75373f047d803ae7b6687f2b302019150817d57115e47018c7177eebf7cd370a3356a1b7863008a5ae8028c72b88642840191508160ae1d92505050919050565b6000670de0b6b3a7640000600019046001018310820261054c57637c5f487d6000526004601cfd5b81670de0b6b3a7640000840204905092915050565b600081600019048311156105845781156105835763bac65e5b6000526004601cfd5b5b670de0b6b3a764000082840204905092915050565b60007ffffffffffffffffffffffffffffffffffffffffffffffffdc0d0570925a462d782131561078457680755bf798b4a1bf1e582126105e15763a37bfec96000526004601cfd5b6503782dace9d9604e83901b816105fb576105fa610a42565b5b059150600060606b8000000000000000000000006bb17217f7d1cf79abc9e3b398606086901b8161062f5761062e610a42565b5b0501901d90506bb17217f7d1cf79abc9e3b39881028303925060006c10fe68e7fd37d0007b713f7650840190506d02d16720577bd19bf614176fe9ea6060858302901d01905060006d04a4fd9f2a8b96949216d2255a6c8583010390506e0587f503bb6ea29d25fcb7401964506060838302901d01905079d835ebba824c98fb31b83b2ca45c00000000000000000000000085820201905060006c240c330e9fb2d9cbaf0fd5aafc860390506d0277594991cfc85f6e2461837cd96060878302901d0190506d1a521255e34f6a5061b25ef1c9c46060878302901d0390506db1bbb201f443cf962f1a1d3db4a56060878302901d0190506e02c72388d9f74f51a9331fed693f156060878302901d0390506e05180bb14799ab47a8a8cb2a527d576060878302901d01905080820594508360c30374029d9dc38563c32e5c2f6dc192ee70ef65f9978af38602901c9450505050505b919050565b6000828402905060011561083f57818385830414851517026108395760001983850981811082018103838587098460000385168286116107d15763ae47f7026000526004601cfd5b80860495508560030260021880870260020381029050808702600203810290508087026002038102905080870260020381029050808702600203810290508081880260020302828488030460018485600003040188861187030217029550505050505061083f565b81810490505b9392505050565b6000819050919050565b61085981610846565b82525050565b60006020820190506108746000830184610850565b92915050565b600080fd5b61088881610846565b811461089357600080fd5b50565b6000813590506108a58161087f565b92915050565b600080604083850312156108c2576108c161087a565b5b60006108d085828601610896565b92505060206108e185828601610896565b9150509250929050565b7f4e487b7100000000000000000000000000000000000000000000000000000000600052601160045260246000fd5b600061092582610846565b915061093083610846565b9250827fffffffffffffffffffffffffffffffffffffffffffffffffffffffffffffffff03821115610965576109646108eb565b5b828201905092915050565b600061097b82610846565b915061098683610846565b925082821015610999576109986108eb565b5b828203905092915050565b6000819050919050565b60006109b9826109a4565b91506109c4836109a4565b9250827f8000000000000000000000000000000000000000000000000000000000000000018212600084121516156109ff576109fe6108eb565b5b827f7fffffffffffffffffffffffffffffffffffffffffffffffffffffffffffffff018213600084121615610a3757610a366108eb565b5b828203905092915050565b7f4e487b7100000000000000000000000000000000000000000000000000000000600052601260045260246000fdfea26469706673582212208742a476fd4a57868f7252603e8c6f9bec93a696c9e76ad9cfab54eec6c3b5fb64736f6c634300080d0033",
			"opcodes": "PUSH1 0xC0 PUSH1 0x40 MSTORE CALLVALUE DUP1 ISZERO PUSH3 0x11 JUMPI PUSH1 0x0 DUP1 REVERT JUMPDEST POP PUSH1 0x40 MLOAD PUSH3 0x1274 CODESIZE SUB DUP1 PUSH3 0x1274 DUP4 CODECOPY DUP2 DUP2 ADD PUSH1 0x40 MSTORE DUP2 ADD SWAP1 PUSH3 0x37 SWAP2 SWAP1 PUSH3 0x6AC JUMP JUMPDEST PUSH3 0x66 DUP3 PUSH3 0x52 DUP4 PUSH3 0xDE PUSH1 0x20 SHL PUSH3 0x2C8 OR PUSH1 0x20 SHR JUMP JUMPDEST PUSH3 0x33B PUSH1 0x20 SHL PUSH3 0x524 OR SWAP1 SWAP2 SWAP1 PUSH1 0x20 SHR JUMP JUMPDEST PUSH1 0xA0 DUP2 DUP2 MSTORE POP POP PUSH1 0x0 PUSH3 0xA0 PUSH3 0x8F DUP5 PUSH1 0xA0 MLOAD PUSH3 0x379 PUSH1 0x20 SHL PUSH3 0x561 OR SWAP1 SWAP2 SWAP1 PUSH1 0x20 SHR JUMP JUMPDEST PUSH3 0x3B3 PUSH1 0x20 SHL PUSH3 0x599 OR PUSH1 0x20 SHR JUMP JUMPDEST SWAP1 POP PUSH3 0xCE PUSH1 0xA0 MLOAD PUSH1 0x1 DUP4 PUSH3 0xB8 SWAP2 SWAP1 PUSH3 0x722 JUMP JUMPDEST DUP5 PUSH3 0x5AB PUSH1 0x20 SHL PUSH3 0x789 OR SWAP1 SWAP3 SWAP2 SWAP1 PUSH1 0x20 SHR JUMP JUMPDEST PUSH1 0x80 DUP2 DUP2 MSTORE POP POP POP POP POP PUSH3 0x78C JUMP JUMPDEST PUSH1 0x0 DUP2 PUSH16 0xFFFFFFFFFFFFFFFFFFFFFFFFFFFFFFFF LT PUSH1 0x7 SHL SWAP1 POP DUP2 DUP2 SHR PUSH8 0xFFFFFFFFFFFFFFFF LT PUSH1 0x6 SHL DUP2 OR SWAP1 POP DUP2 DUP2 SHR PUSH4 0xFFFFFFFF LT PUSH1 0x5 SHL DUP2 OR SWAP1 POP DUP2 DUP2 SHR PUSH2 0xFFFF LT PUSH1 0x4 SHL DUP2 OR SWAP1 POP DUP2 DUP2 SHR PUSH1 0xFF LT PUSH1 0x3 SHL DUP2 OR SWAP1 POP PUSH1 0x0 DUP3 SGT PUSH3 0x14E JUMPI PUSH4 0x1615E638 PUSH1 0x0 MSTORE PUSH1 0x4 PUSH1 0x1C REVERT JUMPDEST PUSH32 0xF8F9F9FAF9FDFAFBF9FDFCFDFAFBFCFEF9FAFDFAFCFCFBFEFAFAFCFBFFFFFFFF PUSH16 0x8421084210842108CC6318C6DB6D54BE DUP4 DUP4 SHR SHR PUSH1 0x1F AND BYTE DUP2 XOR SWAP1 POP DUP2 DUP2 SHL PUSH1 0x9F SHR SWAP2 POP PUSH13 0x8C3F38E95A6B1FF2AB1C3B3437 DUP3 DUP4 DUP5 DUP6 PUSH13 0x29508E458543D8AA4DF2ABEE78 ADD MUL PUSH1 0x60 SAR PUSH14 0x139601A2EFABE717E604CBB4894 ADD MUL PUSH1 0x60 SAR PUSH14 0x2247F7A7B6594320649AA03ABA1 ADD MUL PUSH1 0x60 SAR SUB PUSH14 0x2384773BDF1AC5676FACCED6091 DUP4 DUP3 MUL PUSH1 0x60 SAR SUB SWAP1 POP PUSH13 0xB9A025D814B29C212B8B1A07CE DUP4 DUP3 MUL PUSH1 0x60 SAR SUB SWAP1 POP PUSH13 0xA09507084CC699BB0E71EA86A PUSH1 0x60 SHL DUP4 DUP3 MUL SUB SWAP1 POP DUP3 PUSH13 0x465772B2BBBB5F824B15207A30 ADD DUP1 DUP5 MUL PUSH1 0x60 SAR PUSH14 0x388EAA27412D5ACA026815D636E ADD SWAP1 POP DUP1 DUP5 MUL PUSH1 0x60 SAR PUSH14 0xDF99AC502031BF953EFF472FDCC ADD SWAP1 POP DUP1 DUP5 MUL PUSH1 0x60 SAR PUSH14 0x13CDFFB29D51D99322BDFF5F2211 ADD SWAP1 POP DUP1 DUP5 MUL PUSH1 0x60 SAR PUSH14 0xA0F742023DEF783A307A986912E ADD SWAP1 POP DUP1 DUP5 MUL PUSH1 0x60 SAR PUSH14 0x1920D8043CA89B5239253284E42 ADD SWAP1 POP DUP1 DUP5 MUL PUSH1 0x60 SAR PUSH13 0xB7A86D7375468FAC667A0A527 ADD SWAP1 POP DUP1 DUP3 SDIV SWAP2 POP DUP2 PUSH18 0x1340DAA0D5F769DBA1915CEF59F0815A5506 MUL SWAP2 POP DUP2 DUP4 PUSH1 0x9F SUB PUSH30 0x267A36C0C95B3975AB3EE5B203A7614A3F75373F047D803AE7B6687F2B3 MUL ADD SWAP2 POP DUP2 PUSH30 0x57115E47018C7177EEBF7CD370A3356A1B7863008A5AE8028C72B8864284 ADD SWAP2 POP DUP2 PUSH1 0xAE SAR SWAP3 POP POP POP SWAP2 SWAP1 POP JUMP JUMPDEST PUSH1 0x0 PUSH8 0xDE0B6B3A7640000 PUSH1 0x0 NOT DIV PUSH1 0x1 ADD DUP4 LT DUP3 MUL PUSH3 0x364 JUMPI PUSH4 0x7C5F487D PUSH1 0x0 MSTORE PUSH1 0x4 PUSH1 0x1C REVERT JUMPDEST DUP2 PUSH8 0xDE0B6B3A7640000 DUP5 MUL DIV SWAP1 POP SWAP3 SWAP2 POP POP JUMP JUMPDEST PUSH1 0x0 DUP2 PUSH1 0x0 NOT DIV DUP4 GT ISZERO PUSH3 0x39E JUMPI DUP2 ISZERO PUSH3 0x39D JUMPI PUSH4 0xBAC65E5B PUSH1 0x0 MSTORE PUSH1 0x4 PUSH1 0x1C REVERT JUMPDEST JUMPDEST PUSH8 0xDE0B6B3A7640000 DUP3 DUP5 MUL DIV SWAP1 POP SWAP3 SWAP2 POP POP JUMP JUMPDEST PUSH1 0x0 PUSH32 0xFFFFFFFFFFFFFFFFFFFFFFFFFFFFFFFFFFFFFFFFFFFFFFFDC0D0570925A462D7 DUP3 SGT ISZERO PUSH3 0x5A6 JUMPI PUSH9 0x755BF798B4A1BF1E5 DUP3 SLT PUSH3 0x3FD JUMPI PUSH4 0xA37BFEC9 PUSH1 0x0 MSTORE PUSH1 0x4 PUSH1 0x1C REVERT JUMPDEST PUSH6 0x3782DACE9D9 PUSH1 0x4E DUP4 SWAP1 SHL DUP2 PUSH3 0x41A JUMPI PUSH3 0x419 PUSH3 0x75D JUMP JUMPDEST JUMPDEST SDIV SWAP2 POP PUSH1 0x0 PUSH1 0x60 PUSH12 0x800000000000000000000000 PUSH12 0xB17217F7D1CF79ABC9E3B398 PUSH1 0x60 DUP7 SWAP1 SHL DUP2 PUSH3 0x451 JUMPI PUSH3 0x450 PUSH3 0x75D JUMP JUMPDEST JUMPDEST SDIV ADD SWAP1 SAR SWAP1 POP PUSH12 0xB17217F7D1CF79ABC9E3B398 DUP2 MUL DUP4 SUB SWAP3 POP PUSH1 0x0 PUSH13 0x10FE68E7FD37D0007B713F7650 DUP5 ADD SWAP1 POP PUSH14 0x2D16720577BD19BF614176FE9EA PUSH1 0x60 DUP6 DUP4 MUL SWAP1 SAR ADD SWAP1 POP PUSH1 0x0 PUSH14 0x4A4FD9F2A8B96949216D2255A6C DUP6 DUP4 ADD SUB SWAP1 POP PUSH15 0x587F503BB6EA29D25FCB740196450 PUSH1 0x60 DUP4 DUP4 MUL SWAP1 SAR ADD SWAP1 POP PUSH26 0xD835EBBA824C98FB31B83B2CA45C000000000000000000000000 DUP6 DUP3 MUL ADD SWAP1 POP PUSH1 0x0 PUSH13 0x240C330E9FB2D9CBAF0FD5AAFC DUP7 SUB SWAP1 POP PUSH14 0x277594991CFC85F6E2461837CD9 PUSH1 0x60 DUP8 DUP4 MUL SWAP1 SAR ADD SWAP1 POP PUSH14 0x1A521255E34F6A5061B25EF1C9C4 PUSH1 0x60 DUP8 DUP4 MUL SWAP1 SAR SUB SWAP1 POP PUSH14 0xB1BBB201F443CF962F1A1D3DB4A5 PUSH1 0x60 DUP8 DUP4 MUL SWAP1 SAR ADD SWAP1 POP PUSH15 0x2C72388D9F74F51A9331FED693F15 PUSH1 0x60 DUP8 DUP4 MUL SWAP1 SAR SUB SWAP1 POP PUSH15 0x5180BB14799AB47A8A8CB2A527D57 PUSH1 0x60 DUP8 DUP4 MUL SWAP1 SAR ADD SWAP1 POP DUP1 DUP3 SDIV SWAP5 POP DUP4 PUSH1 0xC3 SUB PUSH21 0x29D9DC38563C32E5C2F6DC192EE70EF65F9978AF3 DUP7 MUL SWAP1 SHR SWAP5 POP POP POP POP POP JUMPDEST SWAP2 SWAP1 POP JUMP JUMPDEST PUSH1 0x0 DUP3 DUP5 MUL SWAP1 POP PUSH1 0x1 ISZERO PUSH3 0x665 JUMPI DUP2 DUP4 DUP6 DUP4 DIV EQ DUP6 ISZERO OR MUL PUSH3 0x65F JUMPI PUSH1 0x0 NOT DUP4 DUP6 MULMOD DUP2 DUP2 LT DUP3 ADD DUP2 SUB DUP4 DUP6 DUP8 MULMOD DUP5 PUSH1 0x0 SUB DUP6 AND DUP3 DUP7 GT PUSH3 0x5F6 JUMPI PUSH4 0xAE47F702 PUSH1 0x0 MSTORE PUSH1 0x4 PUSH1 0x1C REVERT JUMPDEST DUP1 DUP7 DIV SWAP6 POP DUP6 PUSH1 0x3 MUL PUSH1 0x2 XOR DUP1 DUP8 MUL PUSH1 0x2 SUB DUP2 MUL SWAP1 POP DUP1 DUP8 MUL PUSH1 0x2 SUB DUP2 MUL SWAP1 POP DUP1 DUP8 MUL PUSH1 0x2 SUB DUP2 MUL SWAP1 POP DUP1 DUP8 MUL PUSH1 0x2 SUB DUP2 MUL SWAP1 POP DUP1 DUP8 MUL PUSH1 0x2 SUB DUP2 MUL SWAP1 POP DUP1 DUP2 DUP9 MUL PUSH1 0x2 SUB MUL DUP3 DUP5 DUP9 SUB DIV PUSH1 0x1 DUP5 DUP6 PUSH1 0x0 SUB DIV ADD DUP9 DUP7 GT DUP8 SUB MUL OR MUL SWAP6 POP POP POP POP POP POP PUSH3 0x665 JUMP JUMPDEST DUP2 DUP2 DIV SWAP1 POP JUMPDEST SWAP4 SWAP3 POP POP POP JUMP JUMPDEST PUSH1 0x0 DUP1 REVERT JUMPDEST PUSH1 0x0 DUP2 SWAP1 POP SWAP2 SWAP1 POP JUMP JUMPDEST PUSH3 0x686 DUP2 PUSH3 0x671 JUMP JUMPDEST DUP2 EQ PUSH3 0x692 JUMPI PUSH1 0x0 DUP1 REVERT JUMPDEST POP JUMP JUMPDEST PUSH1 0x0 DUP2 MLOAD SWAP1 POP PUSH3 0x6A6 DUP2 PUSH3 0x67B JUMP JUMPDEST SWAP3 SWAP2 POP POP JUMP JUMPDEST PUSH1 0x0 DUP1 PUSH1 0x40 DUP4 DUP6 SUB SLT ISZERO PUSH3 0x6C6 JUMPI PUSH3 0x6C5 PUSH3 0x66C JUMP JUMPDEST JUMPDEST PUSH1 0x0 PUSH3 0x6D6 DUP6 DUP3 DUP7 ADD PUSH3 0x695 JUMP JUMPDEST SWAP3 POP POP PUSH1 0x20 PUSH3 0x6E9 DUP6 DUP3 DUP7 ADD PUSH3 0x695 JUMP JUMPDEST SWAP2 POP POP SWAP3 POP SWAP3 SWAP1 POP JUMP JUMPDEST PUSH32 0x4E487B7100000000000000000000000000000000000000000000000000000000 PUSH1 0x0 MSTORE PUSH1 0x11 PUSH1 0x4 MSTORE PUSH1 0x24 PUSH1 0x0 REVERT JUMPDEST PUSH1 0x0 PUSH3 0x72F DUP3 PUSH3 0x671 JUMP JUMPDEST SWAP2 POP PUSH3 0x73C DUP4 PUSH3 0x671 JUMP JUMPDEST SWAP3 POP DUP3 DUP3 LT ISZERO PUSH3 0x752 JUMPI PUSH3 0x751 PUSH3 0x6F3 JUMP JUMPDEST JUMPDEST DUP3 DUP3 SUB SWAP1 POP SWAP3 SWAP2 POP POP JUMP JUMPDEST PUSH32 0x4E487B7100000000000000000000000000000000000000000000000000000000 PUSH1 0x0 MSTORE PUSH1 0x12 PUSH1 0x4 MSTORE PUSH1 0x24 PUSH1 0x0 REVERT JUMPDEST PUSH1 0x80 MLOAD PUSH1 0xA0 MLOAD PUSH2 0xAA7 PUSH3 0x7CD PUSH1 0x0 CODECOPY PUSH1 0x0 DUP2 DUP2 PUSH1 0xEF ADD MSTORE DUP2 DUP2 PUSH2 0x13B ADD MSTORE PUSH2 0x1FB ADD MSTORE PUSH1 0x0 DUP2 DUP2 PUSH2 0x116 ADD MSTORE DUP2 DUP2 PUSH2 0x1D6 ADD MSTORE PUSH2 0x2A6 ADD MSTORE PUSH2 0xAA7 PUSH1 0x0 RETURN INVALID PUSH1 0x80 PUSH1 0x40 MSTORE CALLVALUE DUP1 ISZERO PUSH2 0x10 JUMPI PUSH1 0x0 DUP1 REVERT JUMPDEST POP PUSH1 0x4 CALLDATASIZE LT PUSH2 0x4C JUMPI PUSH1 0x0 CALLDATALOAD PUSH1 0xE0 SHR DUP1 PUSH4 0x32E7C5BF EQ PUSH2 0x51 JUMPI DUP1 PUSH4 0x7CABB7CF EQ PUSH2 0x6F JUMPI DUP1 PUSH4 0x901CE73E EQ PUSH2 0x9F JUMPI DUP1 PUSH4 0xF446C1D0 EQ PUSH2 0xCF JUMPI JUMPDEST PUSH1 0x0 DUP1 REVERT JUMPDEST PUSH2 0x59 PUSH2 0xED JUMP JUMPDEST PUSH1 0x40 MLOAD PUSH2 0x66 SWAP2 SWAP1 PUSH2 0x85F JUMP JUMPDEST PUSH1 0x40 MLOAD DUP1 SWAP2 SUB SWAP1 RETURN JUMPDEST PUSH2 0x89 PUSH1 0x4 DUP1 CALLDATASIZE SUB DUP2 ADD SWAP1 PUSH2 0x84 SWAP2 SWAP1 PUSH2 0x8AB JUMP JUMPDEST PUSH2 0x111 JUMP JUMPDEST PUSH1 0x40 MLOAD PUSH2 0x96 SWAP2 SWAP1 PUSH2 0x85F JUMP JUMPDEST PUSH1 0x40 MLOAD DUP1 SWAP2 SUB SWAP1 RETURN JUMPDEST PUSH2 0xB9 PUSH1 0x4 DUP1 CALLDATASIZE SUB DUP2 ADD SWAP1 PUSH2 0xB4 SWAP2 SWAP1 PUSH2 0x8AB JUMP JUMPDEST PUSH2 0x1D1 JUMP JUMPDEST PUSH1 0x40 MLOAD PUSH2 0xC6 SWAP2 SWAP1 PUSH2 0x85F JUMP JUMPDEST PUSH1 0x40 MLOAD DUP1 SWAP2 SUB SWAP1 RETURN JUMPDEST PUSH2 0xD7 PUSH2 0x2A4 JUMP JUMPDEST PUSH1 0x40 MLOAD PUSH2 0xE4 SWAP2 SWAP1 PUSH2 0x85F JUMP JUMPDEST PUSH1 0x40 MLOAD DUP1 SWAP2 SUB SWAP1 RETURN JUMPDEST PUSH32 0x0 DUP2 JUMP JUMPDEST PUSH1 0x0 DUP1 PUSH32 0x0 SWAP1 POP PUSH1 0x0 PUSH32 0x0 SWAP1 POP PUSH1 0x0 PUSH2 0x179 PUSH2 0x174 DUP8 DUP5 PUSH2 0x561 SWAP1 SWAP2 SWAP1 PUSH4 0xFFFFFFFF AND JUMP JUMPDEST PUSH2 0x599 JUMP JUMPDEST SWAP1 POP PUSH1 0x0 PUSH2 0x192 DUP4 DUP6 DUP9 PUSH2 0x789 SWAP1 SWAP3 SWAP2 SWAP1 PUSH4 0xFFFFFFFF AND JUMP JUMPDEST DUP3 PUSH2 0x19D SWAP2 SWAP1 PUSH2 0x91A JUMP JUMPDEST SWAP1 POP DUP7 PUSH2 0x1BB DUP5 PUSH2 0x1AD DUP5 PUSH2 0x2C8 JUMP JUMPDEST PUSH2 0x524 SWAP1 SWAP2 SWAP1 PUSH4 0xFFFFFFFF AND JUMP JUMPDEST PUSH2 0x1C5 SWAP2 SWAP1 PUSH2 0x970 JUMP JUMPDEST SWAP5 POP POP POP POP POP SWAP3 SWAP2 POP POP JUMP JUMPDEST PUSH1 0x0 DUP1 PUSH32 0x0 SWAP1 POP PUSH1 0x0 PUSH32 0x0 SWAP1 POP DUP4 DUP6 LT ISZERO PUSH2 0x229 JUMPI PUSH1 0x0 DUP1 REVERT JUMPDEST PUSH1 0x0 PUSH2 0x246 PUSH2 0x241 DUP8 DUP5 PUSH2 0x561 SWAP1 SWAP2 SWAP1 PUSH4 0xFFFFFFFF AND JUMP JUMPDEST PUSH2 0x599 JUMP JUMPDEST SWAP1 POP PUSH1 0x0 PUSH2 0x270 PUSH2 0x26B DUP8 DUP10 PUSH2 0x25C SWAP2 SWAP1 PUSH2 0x970 JUMP JUMPDEST DUP6 PUSH2 0x561 SWAP1 SWAP2 SWAP1 PUSH4 0xFFFFFFFF AND JUMP JUMPDEST PUSH2 0x599 JUMP JUMPDEST SWAP1 POP PUSH1 0x0 DUP2 DUP4 PUSH2 0x280 SWAP2 SWAP1 PUSH2 0x9AE JUMP JUMPDEST SWAP1 POP PUSH2 0x297 DUP2 DUP6 DUP8 PUSH2 0x789 SWAP1 SWAP3 SWAP2 SWAP1 PUSH4 0xFFFFFFFF AND JUMP JUMPDEST SWAP6 POP POP POP POP POP POP SWAP3 SWAP2 POP POP JUMP JUMPDEST PUSH32 0x0 DUP2 JUMP JUMPDEST PUSH1 0x0 DUP2 PUSH16 0xFFFFFFFFFFFFFFFFFFFFFFFFFFFFFFFF LT PUSH1 0x7 SHL SWAP1 POP DUP2 DUP2 SHR PUSH8 0xFFFFFFFFFFFFFFFF LT PUSH1 0x6 SHL DUP2 OR SWAP1 POP DUP2 DUP2 SHR PUSH4 0xFFFFFFFF LT PUSH1 0x5 SHL DUP2 OR SWAP1 POP DUP2 DUP2 SHR PUSH2 0xFFFF LT PUSH1 0x4 SHL DUP2 OR SWAP1 POP DUP2 DUP2 SHR PUSH1 0xFF LT PUSH1 0x3 SHL DUP2 OR SWAP1 POP PUSH1 0x0 DUP3 SGT PUSH2 0x337 JUMPI PUSH4 0x1615E638 PUSH1 0x0 MSTORE PUSH1 0x4 PUSH1 0x1C REVERT JUMPDEST PUSH32 0xF8F9F9FAF9FDFAFBF9FDFCFDFAFBFCFEF9FAFDFAFCFCFBFEFAFAFCFBFFFFFFFF PUSH16 0x8421084210842108CC6318C6DB6D54BE DUP4 DUP4 SHR SHR PUSH1 0x1F AND BYTE DUP2 XOR SWAP1 POP DUP2 DUP2 SHL PUSH1 0x9F SHR SWAP2 POP PUSH13 0x8C3F38E95A6B1FF2AB1C3B3437 DUP3 DUP4 DUP5 DUP6 PUSH13 0x29508E458543D8AA4DF2ABEE78 ADD MUL PUSH1 0x60 SAR PUSH14 0x139601A2EFABE717E604CBB4894 ADD MUL PUSH1 0x60 SAR PUSH14 0x2247F7A7B6594320649AA03ABA1 ADD MUL PUSH1 0x60 SAR SUB PUSH14 0x2384773BDF1AC5676FACCED6091 DUP4 DUP3 MUL PUSH1 0x60 SAR SUB SWAP1 POP PUSH13 0xB9A025D814B29C212B8B1A07CE DUP4 DUP3 MUL PUSH1 0x60 SAR SUB SWAP1 POP PUSH13 0xA09507084CC699BB0E71EA86A PUSH1 0x60 SHL DUP4 DUP3 MUL SUB SWAP1 POP DUP3 PUSH13 0x465772B2BBBB5F824B15207A30 ADD DUP1 DUP5 MUL PUSH1 0x60 SAR PUSH14 0x388EAA27412D5ACA026815D636E ADD SWAP1 POP DUP1 DUP5 MUL PUSH1 0x60 SAR PUSH14 0xDF99AC502031BF953EFF472FDCC ADD SWAP1 POP DUP1 DUP5 MUL PUSH1 0x60 SAR PUSH14 0x13CDFFB29D51D99322BDFF5F2211 ADD SWAP1 POP DUP1 DUP5 MUL PUSH1 0x60 SAR PUSH14 0xA0F742023DEF783A307A986912E ADD SWAP1 POP DUP1 DUP5 MUL PUSH1 0x60 SAR PUSH14 0x1920D8043CA89B5239253284E42 ADD SWAP1 POP DUP1 DUP5 MUL PUSH1 0x60 SAR PUSH13 0xB7A86D7375468FAC667A0A527 ADD SWAP1 POP DUP1 DUP3 SDIV SWAP2 POP DUP2 PUSH18 0x1340DAA0D5F769DBA1915CEF59F0815A5506 MUL SWAP2 POP DUP2 DUP4 PUSH1 0x9F SUB PUSH30 0x267A36C0C95B3975AB3EE5B203A7614A3F75373F047D803AE7B6687F2B3 MUL ADD SWAP2 POP DUP2 PUSH30 0x57115E47018C7177EEBF7CD370A3356A1B7863008A5AE8028C72B8864284 ADD SWAP2 POP DUP2 PUSH1 0xAE SAR SWAP3 POP POP POP SWAP2 SWAP1 POP JUMP JUMPDEST PUSH1 0x0 PUSH8 0xDE0B6B3A7640000 PUSH1 0x0 NOT DIV PUSH1 0x1 ADD DUP4 LT DUP3 MUL PUSH2 0x54C JUMPI PUSH4 0x7C5F487D PUSH1 0x0 MSTORE PUSH1 0x4 PUSH1 0x1C REVERT JUMPDEST DUP2 PUSH8 0xDE0B6B3A7640000 DUP5 MUL DIV SWAP1 POP SWAP3 SWAP2 POP POP JUMP JUMPDEST PUSH1 0x0 DUP2 PUSH1 0x0 NOT DIV DUP4 GT ISZERO PUSH2 0x584 JUMPI DUP2 ISZERO PUSH2 0x583 JUMPI PUSH4 0xBAC65E5B PUSH1 0x0 MSTORE PUSH1 0x4 PUSH1 0x1C REVERT JUMPDEST JUMPDEST PUSH8 0xDE0B6B3A7640000 DUP3 DUP5 MUL DIV SWAP1 POP SWAP3 SWAP2 POP POP JUMP JUMPDEST PUSH1 0x0 PUSH32 0xFFFFFFFFFFFFFFFFFFFFFFFFFFFFFFFFFFFFFFFFFFFFFFFDC0D0570925A462D7 DUP3 SGT ISZERO PUSH2 0x784 JUMPI PUSH9 0x755BF798B4A1BF1E5 DUP3 SLT PUSH2 0x5E1 JUMPI PUSH4 0xA37BFEC9 PUSH1 0x0 MSTORE PUSH1 0x4 PUSH1 0x1C REVERT JUMPDEST PUSH6 0x3782DACE9D9 PUSH1 0x4E DUP4 SWAP1 SHL DUP2 PUSH2 0x5FB JUMPI PUSH2 0x5FA PUSH2 0xA42 JUMP JUMPDEST JUMPDEST SDIV SWAP2 POP PUSH1 0x0 PUSH1 0x60 PUSH12 0x800000000000000000000000 PUSH12 0xB17217F7D1CF79ABC9E3B398 PUSH1 0x60 DUP7 SWAP1 SHL DUP2 PUSH2 0x62F JUMPI PUSH2 0x62E PUSH2 0xA42 JUMP JUMPDEST JUMPDEST SDIV ADD SWAP1 SAR SWAP1 POP PUSH12 0xB17217F7D1CF79ABC9E3B398 DUP2 MUL DUP4 SUB SWAP3 POP PUSH1 0x0 PUSH13 0x10FE68E7FD37D0007B713F7650 DUP5 ADD SWAP1 POP PUSH14 0x2D16720577BD19BF614176FE9EA PUSH1 0x60 DUP6 DUP4 MUL SWAP1 SAR ADD SWAP1 POP PUSH1 0x0 PUSH14 0x4A4FD9F2A8B96949216D2255A6C DUP6 DUP4 ADD SUB SWAP1 POP PUSH15 0x587F503BB6EA29D25FCB740196450 PUSH1 0x60 DUP4 DUP4 MUL SWAP1 SAR ADD SWAP1 POP PUSH26 0xD835EBBA824C98FB31B83B2CA45C000000000000000000000000 DUP6 DUP3 MUL ADD SWAP1 POP PUSH1 0x0 PUSH13 0x240C330E9FB2D9CBAF0FD5AAFC DUP7 SUB SWAP1 POP PUSH14 0x277594991CFC85F6E2461837CD9 PUSH1 0x60 DUP8 DUP4 MUL SWAP1 SAR ADD SWAP1 POP PUSH14 0x1A521255E34F6A5061B25EF1C9C4 PUSH1 0x60 DUP8 DUP4 MUL SWAP1 SAR SUB SWAP1 POP PUSH14 0xB1BBB201F443CF962F1A1D3DB4A5 PUSH1 0x60 DUP8 DUP4 MUL SWAP1 SAR ADD SWAP1 POP PUSH15 0x2C72388D9F74F51A9331FED693F15 PUSH1 0x60 DUP8 DUP4 MUL SWAP1 SAR SUB SWAP1 POP PUSH15 0x5180BB14799AB47A8A8CB2A527D57 PUSH1 0x60 DUP8 DUP4 MUL SWAP1 SAR ADD SWAP1 POP DUP1 DUP3 SDIV SWAP5 POP DUP4 PUSH1 0xC3 SUB PUSH21 0x29D9DC38563C32E5C2F6DC192EE70EF65F9978AF3 DUP7 MUL SWAP1 SHR SWAP5 POP POP POP POP POP JUMPDEST SWAP2 SWAP1 POP JUMP JUMPDEST PUSH1 0x0 DUP3 DUP5 MUL SWAP1 POP PUSH1 0x1 ISZERO PUSH2 0x83F JUMPI DUP2 DUP4 DUP6 DUP4 DIV EQ DUP6 ISZERO OR MUL PUSH2 0x839 JUMPI PUSH1 0x0 NOT DUP4 DUP6 MULMOD DUP2 DUP2 LT DUP3 ADD DUP2 SUB DUP4 DUP6 DUP8 MULMOD DUP5 PUSH1 0x0 SUB DUP6 AND DUP3 DUP7 GT PUSH2 0x7D1 JUMPI PUSH4 0xAE47F702 PUSH1 0x0 MSTORE PUSH1 0x4 PUSH1 0x1C REVERT JUMPDEST DUP1 DUP7 DIV SWAP6 POP DUP6 PUSH1 0x3 MUL PUSH1 0x2 XOR DUP1 DUP8 MUL PUSH1 0x2 SUB DUP2 MUL SWAP1 POP DUP1 DUP8 MUL PUSH1 0x2 SUB DUP2 MUL SWAP1 POP DUP1 DUP8 MUL PUSH1 0x2 SUB DUP2 MUL SWAP1 POP DUP1 DUP8 MUL PUSH1 0x2 SUB DUP2 MUL SWAP1 POP DUP1 DUP8 MUL PUSH1 0x2 SUB DUP2 MUL SWAP1 POP DUP1 DUP2 DUP9 MUL PUSH1 0x2 SUB MUL DUP3 DUP5 DUP9 SUB DIV PUSH1 0x1 DUP5 DUP6 PUSH1 0x0 SUB DIV ADD DUP9 DUP7 GT DUP8 SUB MUL OR MUL SWAP6 POP POP POP POP POP POP PUSH2 0x83F JUMP JUMPDEST DUP2 DUP2 DIV SWAP1 POP JUMPDEST SWAP4 SWAP3 POP POP POP JUMP JUMPDEST PUSH1 0x0 DUP2 SWAP1 POP SWAP2 SWAP1 POP JUMP JUMPDEST PUSH2 0x859 DUP2 PUSH2 0x846 JUMP JUMPDEST DUP3 MSTORE POP POP JUMP JUMPDEST PUSH1 0x0 PUSH1 0x20 DUP3 ADD SWAP1 POP PUSH2 0x874 PUSH1 0x0 DUP4 ADD DUP5 PUSH2 0x850 JUMP JUMPDEST SWAP3 SWAP2 POP POP JUMP JUMPDEST PUSH1 0x0 DUP1 REVERT JUMPDEST PUSH2 0x888 DUP2 PUSH2 0x846 JUMP JUMPDEST DUP2 EQ PUSH2 0x893 JUMPI PUSH1 0x0 DUP1 REVERT JUMPDEST POP JUMP JUMPDEST PUSH1 0x0 DUP2 CALLDATALOAD SWAP1 POP PUSH2 0x8A5 DUP2 PUSH2 0x87F JUMP JUMPDEST SWAP3 SWAP2 POP POP JUMP JUMPDEST PUSH1 0x0 DUP1 PUSH1 0x40 DUP4 DUP6 SUB SLT ISZERO PUSH2 0x8C2 JUMPI PUSH2 0x8C1 PUSH2 0x87A JUMP JUMPDEST JUMPDEST PUSH1 0x0 PUSH2 0x8D0 DUP6 DUP3 DUP7 ADD PUSH2 0x896 JUMP JUMPDEST SWAP3 POP POP PUSH1 0x20 PUSH2 0x8E1 DUP6 DUP3 DUP7 ADD PUSH2 0x896 JUMP JUMPDEST SWAP2 POP POP SWAP3 POP SWAP3 SWAP1 POP JUMP JUMPDEST PUSH32 0x4E487B7100000000000000000000000000000000000000000000000000000000 PUSH1 0x0 MSTORE PUSH1 0x11 PUSH1 0x4 MSTORE PUSH1 0x24 PUSH1 0x0 REVERT JUMPDEST PUSH1 0x0 PUSH2 0x925 DUP3 PUSH2 0x846 JUMP JUMPDEST SWAP2 POP PUSH2 0x930 DUP4 PUSH2 0x846 JUMP JUMPDEST SWAP3 POP DUP3 PUSH32 0xFFFFFFFFFFFFFFFFFFFFFFFFFFFFFFFFFFFFFFFFFFFFFFFFFFFFFFFFFFFFFFFF SUB DUP3 GT ISZERO PUSH2 0x965 JUMPI PUSH2 0x964 PUSH2 0x8EB JUMP JUMPDEST JUMPDEST DUP3 DUP3 ADD SWAP1 POP SWAP3 SWAP2 POP POP JUMP JUMPDEST PUSH1 0x0 PUSH2 0x97B DUP3 PUSH2 0x846 JUMP JUMPDEST SWAP2 POP PUSH2 0x986 DUP4 PUSH2 0x846 JUMP JUMPDEST SWAP3 POP DUP3 DUP3 LT ISZERO PUSH2 0x999 JUMPI PUSH2 0x998 PUSH2 0x8EB JUMP JUMPDEST JUMPDEST DUP3 DUP3 SUB SWAP1 POP SWAP3 SWAP2 POP POP JUMP JUMPDEST PUSH1 0x0 DUP2 SWAP1 POP SWAP2 SWAP1 POP JUMP JUMPDEST PUSH1 0x0 PUSH2 0x9B9 DUP3 PUSH2 0x9A4 JUMP JUMPDEST SWAP2 POP PUSH2 0x9C4 DUP4 PUSH2 0x9A4 JUMP JUMPDEST SWAP3 POP DUP3 PUSH32 0x8000000000000000000000000000000000000000000000000000000000000000 ADD DUP3 SLT PUSH1 0x0 DUP5 SLT ISZERO AND ISZERO PUSH2 0x9FF JUMPI PUSH2 0x9FE PUSH2 0x8EB JUMP JUMPDEST JUMPDEST DUP3 PUSH32 0x7FFFFFFFFFFFFFFFFFFFFFFFFFFFFFFFFFFFFFFFFFFFFFFFFFFFFFFFFFFFFFFF ADD DUP3 SGT PUSH1 0x0 DUP5 SLT AND ISZERO PUSH2 0xA37 JUMPI PUSH2 0xA36 PUSH2 0x8EB JUMP JUMPDEST JUMPDEST DUP3 DUP3 SUB SWAP1 POP SWAP3 SWAP2 POP POP JUMP JUMPDEST PUSH32 0x4E487B7100000000000000000000000000000000000000000000000000000000 PUSH1 0x0 MSTORE PUSH1 0x12 PUSH1 0x4 MSTORE PUSH1 0x24 PUSH1 0x0 REVERT INVALID LOG2 PUSH5 0x6970667358 0x22 SLT KECCAK256 DUP8 TIMESTAMP LOG4 PUSH23 0xFD4A57868F7252603E8C6F9BEC93A696C9E76AD9CFAB54 0xEE 0xC6 0xC3 0xB5 0xFB PUSH5 0x736F6C6343 STOP ADDMOD 0xD STOP CALLER "
		},
		"gasEstimates": {
			"creation": {
				"codeDepositCost": "545400",
				"executionCost": "infinite",
				"totalCost": "infinite"
			},
			"external": {
				"A()": "infinite",
				"B()": "infinite",
				"getAmountOut(uint256,uint256)": "infinite",
				"getFundsReceived(uint256,uint256)": "infinite"
			}
		},
		"methodIdentifiers": {
			"A()": "f446c1d0",
			"B()": "32e7c5bf",
			"getAmountOut(uint256,uint256)": "7cabb7cf",
			"getFundsReceived(uint256,uint256)": "901ce73e"
		}
	},
	"abi": [
		{
			"inputs": [
				{
					"internalType": "uint256",
					"name": "_fundingSupply",
					"type": "uint256"
				},
				{
					"internalType": "uint256",
					"name": "_fundingGoal",
					"type": "uint256"
				}
			],
			"stateMutability": "nonpayable",
			"type": "constructor"
		},
		{
			"inputs": [],
			"name": "A",
			"outputs": [
				{
					"internalType": "uint256",
					"name": "",
					"type": "uint256"
				}
			],
			"stateMutability": "view",
			"type": "function"
		},
		{
			"inputs": [],
			"name": "B",
			"outputs": [
				{
					"internalType": "uint256",
					"name": "",
					"type": "uint256"
				}
			],
			"stateMutability": "view",
			"type": "function"
		},
		{
			"inputs": [
				{
					"internalType": "uint256",
					"name": "x0",
					"type": "uint256"
				},
				{
					"internalType": "uint256",
					"name": "deltaY",
					"type": "uint256"
				}
			],
			"name": "getAmountOut",
			"outputs": [
				{
					"internalType": "uint256",
					"name": "deltaX",
					"type": "uint256"
				}
			],
			"stateMutability": "view",
			"type": "function"
		},
		{
			"inputs": [
				{
					"internalType": "uint256",
					"name": "x0",
					"type": "uint256"
				},
				{
					"internalType": "uint256",
					"name": "deltaX",
					"type": "uint256"
				}
			],
			"name": "getFundsReceived",
			"outputs": [
				{
					"internalType": "uint256",
					"name": "deltaY",
					"type": "uint256"
				}
			],
			"stateMutability": "view",
			"type": "function"
		}
	]
}