{
	"data": {
		"bytecode": {
			"linkReferences": {},
			"object": "60806040523480156200001157600080fd5b506040516200655238038062006552833981810160405281019062000037919062000326565b60016000819055506200005f62000053620001a560201b60201c565b620001ad60201b60201c565b83600460006101000a81548173ffffffffffffffffffffffffffffffffffffffff021916908373ffffffffffffffffffffffffffffffffffffffff16021790555082600560006101000a81548173ffffffffffffffffffffffffffffffffffffffff021916908373ffffffffffffffffffffffffffffffffffffffff160217905550600560046b033b2e3c9fd0803ce8000000620000fe9190620003c7565b6200010a919062000457565b68056bc75e2d63100000604051620001229062000273565b6200012f929190620004a0565b604051809103906000f0801580156200014c573d6000803e3d6000fd5b50600660006101000a81548173ffffffffffffffffffffffffffffffffffffffff021916908373ffffffffffffffffffffffffffffffffffffffff160217905550816007819055508060098190555050505050620004cd565b600033905090565b6000600160009054906101000a900473ffffffffffffffffffffffffffffffffffffffff16905081600160006101000a81548173ffffffffffffffffffffffffffffffffffffffff021916908373ffffffffffffffffffffffffffffffffffffffff1602179055508173ffffffffffffffffffffffffffffffffffffffff168173ffffffffffffffffffffffffffffffffffffffff167f8be0079c531659141344cd1fd0a4f28419497f9722a3daafe3b4186f6b6457e060405160405180910390a35050565b61127480620052de83390190565b600080fd5b600073ffffffffffffffffffffffffffffffffffffffff82169050919050565b6000620002b38262000286565b9050919050565b620002c581620002a6565b8114620002d157600080fd5b50565b600081519050620002e581620002ba565b92915050565b6000819050919050565b6200030081620002eb565b81146200030c57600080fd5b50565b6000815190506200032081620002f5565b92915050565b6000806000806080858703121562000343576200034262000281565b5b60006200035387828801620002d4565b94505060206200036687828801620002d4565b935050604062000379878288016200030f565b92505060606200038c878288016200030f565b91505092959194509250565b7f4e487b7100000000000000000000000000000000000000000000000000000000600052601160045260246000fd5b6000620003d482620002eb565b9150620003e183620002eb565b9250817fffffffffffffffffffffffffffffffffffffffffffffffffffffffffffffffff04831182151516156200041d576200041c62000398565b5b828202905092915050565b7f4e487b7100000000000000000000000000000000000000000000000000000000600052601260045260246000fd5b60006200046482620002eb565b91506200047183620002eb565b92508262000484576200048362000428565b5b828204905092915050565b6200049a81620002eb565b82525050565b6000604082019050620004b760008301856200048f565b620004c660208301846200048f565b9392505050565b614e0180620004dd6000396000f3fe608060405260043610620001885760003560e01c80637ce3489b11620000e5578063d73792a91162000097578063eff1d50e116200006d578063eff1d50e1462000577578063f088d54714620005a7578063f2fde38b14620005c7578063fe96973a14620005f55762000188565b8063d73792a914620004d3578063ddca3f431462000503578063e486033914620005335762000188565b80637ce3489b14620003b75780637fd6f15c14620003e55780638da5cb5b146200041557806399d32fc41462000445578063a5fdc5de146200045f578063bfe6085614620004a35762000188565b806343ff1fb8116200013f57806343ff1fb814620002b157806353bee85c14620002df57806359d0f713146200030f5780636c197ff5146200033f578063715018a6146200036d57806373b79cb514620003875762000188565b80631694505e146200018d5780631698755f14620001bd5780632f2f2d5614620001eb5780632ff2e9dc146200022157806332cb6b0c146200025157806342e49d5a1462000281575b600080fd5b3480156200019a57600080fd5b50620001a562000623565b604051620001b4919062001f65565b60405180910390f35b348015620001ca57600080fd5b50620001e96004803603810190620001e3919062002002565b62000649565b005b620002096004803603810190620002039190620021ab565b620006db565b60405162000218919062001f65565b60405180910390f35b3480156200022e57600080fd5b506200023962000844565b60405162000248919062002241565b60405180910390f35b3480156200025e57600080fd5b506200026962000870565b60405162000278919062002241565b60405180910390f35b3480156200028e57600080fd5b506200029962000880565b604051620002a8919062002241565b60405180910390f35b348015620002be57600080fd5b50620002dd6004803603810190620002d791906200225e565b6200088d565b005b348015620002ec57600080fd5b50620002f7620008db565b60405162000306919062002241565b60405180910390f35b3480156200031c57600080fd5b5062000327620008e5565b60405162000336919062001f65565b60405180910390f35b3480156200034c57600080fd5b506200036b600480360381019062000365919062002002565b6200090b565b005b3480156200037a57600080fd5b506200038562000da6565b005b3480156200039457600080fd5b506200039f62000dbe565b604051620003ae919062002241565b60405180910390f35b348015620003c457600080fd5b50620003e36004803603810190620003dd919062002290565b62000dc4565b005b348015620003f257600080fd5b50620003fd62000dd8565b6040516200040c919062002241565b60405180910390f35b3480156200042257600080fd5b506200042d62000dde565b6040516200043c919062001f65565b60405180910390f35b3480156200045257600080fd5b506200045d62000e08565b005b3480156200046c57600080fd5b506200048b60048036038101906200048591906200225e565b62000f25565b6040516200049a919062002241565b60405180910390f35b348015620004b057600080fd5b50620004bb62000f3d565b604051620004ca919062002241565b60405180910390f35b348015620004e057600080fd5b50620004eb62000f69565b604051620004fa919062002241565b60405180910390f35b3480156200051057600080fd5b506200051b62000f6f565b6040516200052a919062002241565b60405180910390f35b3480156200054057600080fd5b506200055f60048036038101906200055991906200225e565b62000f75565b6040516200056e919062002342565b60405180910390f35b3480156200058457600080fd5b506200058f62000f95565b6040516200059e9190620023ca565b60405180910390f35b620005c56004803603810190620005bf91906200225e565b62000fbb565b005b348015620005d457600080fd5b50620005f36004803603810190620005ed91906200225e565b6200185c565b005b3480156200060257600080fd5b506200062160048036038101906200061b919062002290565b620018e6565b005b600460009054906101000a900473ffffffffffffffffffffffffffffffffffffffff1681565b62000653620019fa565b8173ffffffffffffffffffffffffffffffffffffffff1663a9059cbb33836040518363ffffffff1660e01b815260040162000690929190620023e7565b6020604051808303816000875af1158015620006b0573d6000803e3d6000fd5b505050506040513d601f19601f82011682018060405250810190620006d6919062002451565b505050565b600060095434101562000725576040517f08c379a00000000000000000000000000000000000000000000000000000000081526004016200071c90620024e4565b60405180910390fd5b346008600082825462000739919062002535565b9250508190555060008383604051620007529062001f12565b6200075f92919062002614565b604051809103906000f0801580156200077c573d6000803e3d6000fd5b5090506001600260008373ffffffffffffffffffffffffffffffffffffffff1673ffffffffffffffffffffffffffffffffffffffff16815260200190815260200160002060006101000a81548160ff02191690836002811115620007e557620007e4620022c2565b5b02179055508073ffffffffffffffffffffffffffffffffffffffff167f1cef2b4ec7f129e441c961eb4fae22fd3131868db6be990c6f065f35b6b53cf34260405162000832919062002241565b60405180910390a28091505092915050565b600560016b033b2e3c9fd0803ce80000006200086191906200264f565b6200086d9190620026df565b81565b6b033b2e3c9fd0803ce800000081565b68056bc75e2d6310000081565b62000897620019fa565b80600660006101000a81548173ffffffffffffffffffffffffffffffffffffffff021916908373ffffffffffffffffffffffffffffffffffffffff16021790555050565b655af3107a400081565b600560009054906101000a900473ffffffffffffffffffffffffffffffffffffffff1681565b6200091562001a7f565b600160028111156200092c576200092b620022c2565b5b600260008473ffffffffffffffffffffffffffffffffffffffff1673ffffffffffffffffffffffffffffffffffffffff16815260200190815260200160002060009054906101000a900460ff1660028111156200098e576200098d620022c2565b5b14620009d1576040517f08c379a0000000000000000000000000000000000000000000000000000000008152600401620009c89062002767565b60405180910390fd5b6000811162000a17576040517f08c379a000000000000000000000000000000000000000000000000000000000815260040162000a0e90620027ff565b60405180910390fd5b60008290506000600660009054906101000a900473ffffffffffffffffffffffffffffffffffffffff1673ffffffffffffffffffffffffffffffffffffffff1663901ce73e8373ffffffffffffffffffffffffffffffffffffffff166318160ddd6040518163ffffffff1660e01b8152600401602060405180830381865afa15801562000aa8573d6000803e3d6000fd5b505050506040513d601f19601f8201168201806040525081019062000ace919062002838565b856040518363ffffffff1660e01b815260040162000aee9291906200286a565b602060405180830381865afa15801562000b0c573d6000803e3d6000fd5b505050506040513d601f19601f8201168201806040525081019062000b32919062002838565b9050600062000b448260075462001ac6565b9050808262000b54919062002897565b9150806008600082825462000b6a919062002535565b925050819055508273ffffffffffffffffffffffffffffffffffffffff16639dc29fac33866040518363ffffffff1660e01b815260040162000bae929190620023e7565b600060405180830381600087803b15801562000bc957600080fd5b505af115801562000bde573d6000803e3d6000fd5b5050505081600360008773ffffffffffffffffffffffffffffffffffffffff1673ffffffffffffffffffffffffffffffffffffffff168152602001908152602001600020600082825462000c33919062002897565b925050819055508473ffffffffffffffffffffffffffffffffffffffff167f846c37eef631e0943682d87352ec117c20008eb7f425c9b85ac011a6d4774cc042848760405162000c8693929190620028d2565b60405180910390a260003373ffffffffffffffffffffffffffffffffffffffff1683600067ffffffffffffffff81111562000cc65762000cc562002064565b5b6040519080825280601f01601f19166020018201604052801562000cf95781602001600182028036833780820191505090505b5060405162000d0991906200295c565b60006040518083038185875af1925050503d806000811462000d48576040519150601f19603f3d011682016040523d82523d6000602084013e62000d4d565b606091505b505090508062000d94576040517f08c379a000000000000000000000000000000000000000000000000000000000815260040162000d8b90620029c5565b60405180910390fd5b5050505062000da262001aed565b5050565b62000db0620019fa565b62000dbc600062001af7565b565b60095481565b62000dce620019fa565b8060078190555050565b60075481565b6000600160009054906101000a900473ffffffffffffffffffffffffffffffffffffffff16905090565b62000e12620019fa565b60003373ffffffffffffffffffffffffffffffffffffffff16600854600067ffffffffffffffff81111562000e4c5762000e4b62002064565b5b6040519080825280601f01601f19166020018201604052801562000e7f5781602001600182028036833780820191505090505b5060405162000e8f91906200295c565b60006040518083038185875af1925050503d806000811462000ece576040519150601f19603f3d011682016040523d82523d6000602084013e62000ed3565b606091505b505090508062000f1a576040517f08c379a000000000000000000000000000000000000000000000000000000000815260040162000f1190620029c5565b60405180910390fd5b600060088190555050565b60036020528060005260406000206000915090505481565b600560046b033b2e3c9fd0803ce800000062000f5a91906200264f565b62000f669190620026df565b81565b61271081565b60085481565b60026020528060005260406000206000915054906101000a900460ff1681565b600660009054906101000a900473ffffffffffffffffffffffffffffffffffffffff1681565b62000fc562001a7f565b6001600281111562000fdc5762000fdb620022c2565b5b600260008373ffffffffffffffffffffffffffffffffffffffff1673ffffffffffffffffffffffffffffffffffffffff16815260200190815260200160002060009054906101000a900460ff1660028111156200103e576200103d620022c2565b5b1462001081576040517f08c379a0000000000000000000000000000000000000000000000000000000008152600401620010789062002a37565b60405180910390fd5b60003411620010c7576040517f08c379a0000000000000000000000000000000000000000000000000000000008152600401620010be9062002aa9565b60405180910390fd5b6000349050600080600360008573ffffffffffffffffffffffffffffffffffffffff1673ffffffffffffffffffffffffffffffffffffffff16815260200190815260200160002054905060008168056bc75e2d631000006200112a919062002897565b9050600060075461271062001140919062002535565b612710866200115091906200264f565b6200115c9190620026df565b9050818111156200116b578190505b60006200117b8260075462001ac6565b9050600081836200118d919062002535565b90508087116200119f576000620011ae565b8087620011ad919062002897565b5b95508160086000828254620011c4919062002535565b9250508190555060008890506000600660009054906101000a900473ffffffffffffffffffffffffffffffffffffffff1673ffffffffffffffffffffffffffffffffffffffff16637cabb7cf8373ffffffffffffffffffffffffffffffffffffffff166318160ddd6040518163ffffffff1660e01b8152600401602060405180830381865afa1580156200125c573d6000803e3d6000fd5b505050506040513d601f19601f8201168201806040525081019062001282919062002838565b876040518363ffffffff1660e01b8152600401620012a29291906200286a565b602060405180830381865afa158015620012c0573d6000803e3d6000fd5b505050506040513d601f19601f82011682018060405250810190620012e6919062002838565b905060008273ffffffffffffffffffffffffffffffffffffffff166318160ddd6040518163ffffffff1660e01b8152600401602060405180830381865afa15801562001336573d6000803e3d6000fd5b505050506040513d601f19601f820116820180604052508101906200135c919062002838565b600560046b033b2e3c9fd0803ce80000006200137991906200264f565b620013859190620026df565b62001391919062002897565b905080821115620013d9576040517f08c379a0000000000000000000000000000000000000000000000000000000008152600401620013d09062002b1b565b60405180910390fd5b8588620013e7919062002535565b97508273ffffffffffffffffffffffffffffffffffffffff166340c10f1933846040518363ffffffff1660e01b815260040162001426929190620023e7565b600060405180830381600087803b1580156200144157600080fd5b505af115801562001456573d6000803e3d6000fd5b505050508a73ffffffffffffffffffffffffffffffffffffffff167fbeae048c6d270d9469f86cf6e8fedda3c60ad770f16c24c9fc131c8e9a09101d428885604051620014a693929190620028d2565b60405180910390a268056bc75e2d63100000655af3107a400089620014cc919062002535565b10620016e2578273ffffffffffffffffffffffffffffffffffffffff166340c10f19308573ffffffffffffffffffffffffffffffffffffffff166318160ddd6040518163ffffffff1660e01b8152600401602060405180830381865afa1580156200153b573d6000803e3d6000fd5b505050506040513d601f19601f8201168201806040525081019062001561919062002838565b6b033b2e3c9fd0803ce80000006200157a919062002897565b6040518363ffffffff1660e01b815260040162001599929190620023e7565b600060405180830381600087803b158015620015b457600080fd5b505af1158015620015c9573d6000803e3d6000fd5b505050506000620015da8c62001bbd565b90506000620016138d600560016b033b2e3c9fd0803ce80000006200160091906200264f565b6200160c9190620026df565b8c62001d0f565b905062001621828262001e81565b6000995060028060008f73ffffffffffffffffffffffffffffffffffffffff1673ffffffffffffffffffffffffffffffffffffffff16815260200190815260200160002060006101000a81548160ff021916908360028111156200168a5762001689620022c2565b5b02179055508c73ffffffffffffffffffffffffffffffffffffffff167f7b7fe75b1149a5dfdde15ea794c36563367c5cd459178393d63e169d50be178242604051620016d7919062002241565b60405180910390a250505b87600360008d73ffffffffffffffffffffffffffffffffffffffff1673ffffffffffffffffffffffffffffffffffffffff168152602001908152602001600020819055506000891115620018455760003373ffffffffffffffffffffffffffffffffffffffff168b3462001757919062002897565b600067ffffffffffffffff81111562001775576200177462002064565b5b6040519080825280601f01601f191660200182016040528015620017a85781602001600182028036833780820191505090505b50604051620017b891906200295c565b60006040518083038185875af1925050503d8060008114620017f7576040519150601f19603f3d011682016040523d82523d6000602084013e620017fc565b606091505b505090508062001843576040517f08c379a00000000000000000000000000000000000000000000000000000000081526004016200183a90620029c5565b60405180910390fd5b505b505050505050505050506200185962001aed565b50565b62001866620019fa565b600073ffffffffffffffffffffffffffffffffffffffff168173ffffffffffffffffffffffffffffffffffffffff1603620018d8576040517f08c379a0000000000000000000000000000000000000000000000000000000008152600401620018cf9062002bb3565b60405180910390fd5b620018e38162001af7565b50565b620018f0620019fa565b60003373ffffffffffffffffffffffffffffffffffffffff1682600067ffffffffffffffff81111562001928576200192762002064565b5b6040519080825280601f01601f1916602001820160405280156200195b5781602001600182028036833780820191505090505b506040516200196b91906200295c565b60006040518083038185875af1925050503d8060008114620019aa576040519150601f19603f3d011682016040523d82523d6000602084013e620019af565b606091505b5050905080620019f6576040517f08c379a0000000000000000000000000000000000000000000000000000000008152600401620019ed90620029c5565b60405180910390fd5b5050565b62001a0462001f0a565b73ffffffffffffffffffffffffffffffffffffffff1662001a2462000dde565b73ffffffffffffffffffffffffffffffffffffffff161462001a7d576040517f08c379a000000000000000000000000000000000000000000000000000000000815260040162001a749062002c25565b60405180910390fd5b565b60026000540362001abc576040517f3ee5aeb500000000000000000000000000000000000000000000000000000000815260040160405180910390fd5b6002600081905550565b6000612710828462001ad991906200264f565b62001ae59190620026df565b905092915050565b6001600081905550565b6000600160009054906101000a900473ffffffffffffffffffffffffffffffffffffffff16905081600160006101000a81548173ffffffffffffffffffffffffffffffffffffffff021916908373ffffffffffffffffffffffffffffffffffffffff1602179055508173ffffffffffffffffffffffffffffffffffffffff168173ffffffffffffffffffffffffffffffffffffffff167f8be0079c531659141344cd1fd0a4f28419497f9722a3daafe3b4186f6b6457e060405160405180910390a35050565b600080600560009054906101000a900473ffffffffffffffffffffffffffffffffffffffff1690506000600460009054906101000a900473ffffffffffffffffffffffffffffffffffffffff16905060008273ffffffffffffffffffffffffffffffffffffffff1663c9c65396868473ffffffffffffffffffffffffffffffffffffffff1663ad5c46486040518163ffffffff1660e01b8152600401602060405180830381865afa15801562001c77573d6000803e3d6000fd5b505050506040513d601f19601f8201168201806040525081019062001c9d919062002c5e565b6040518363ffffffff1660e01b815260040162001cbc92919062002c90565b6020604051808303816000875af115801562001cdc573d6000803e3d6000fd5b505050506040513d601f19601f8201168201806040525081019062001d02919062002c5e565b9050809350505050919050565b6000808490506000600460009054906101000a900473ffffffffffffffffffffffffffffffffffffffff1690508173ffffffffffffffffffffffffffffffffffffffff1663095ea7b3600460009054906101000a900473ffffffffffffffffffffffffffffffffffffffff16876040518363ffffffff1660e01b815260040162001d9b929190620023e7565b6020604051808303816000875af115801562001dbb573d6000803e3d6000fd5b505050506040513d601f19601f8201168201806040525081019062001de1919062002451565b5060008173ffffffffffffffffffffffffffffffffffffffff1663f305d7198689898a8a30426040518863ffffffff1660e01b815260040162001e2a9695949392919062002cbd565b60606040518083038185885af115801562001e49573d6000803e3d6000fd5b50505050506040513d601f19601f8201168201806040525081019062001e70919062002d2a565b925050508093505050509392505050565b8173ffffffffffffffffffffffffffffffffffffffff1663a9059cbb6000836040518363ffffffff1660e01b815260040162001ebf929190620023e7565b6020604051808303816000875af115801562001edf573d6000803e3d6000fd5b505050506040513d601f19601f8201168201806040525081019062001f05919062002451565b505050565b600033905090565b6120458062002d8783390190565b600073ffffffffffffffffffffffffffffffffffffffff82169050919050565b600062001f4d8262001f20565b9050919050565b62001f5f8162001f40565b82525050565b600060208201905062001f7c600083018462001f54565b92915050565b6000604051905090565b600080fd5b600080fd5b62001fa18162001f40565b811462001fad57600080fd5b50565b60008135905062001fc18162001f96565b92915050565b6000819050919050565b62001fdc8162001fc7565b811462001fe857600080fd5b50565b60008135905062001ffc8162001fd1565b92915050565b600080604083850312156200201c576200201b62001f8c565b5b60006200202c8582860162001fb0565b92505060206200203f8582860162001feb565b9150509250929050565b600080fd5b600080fd5b6000601f19601f8301169050919050565b7f4e487b7100000000000000000000000000000000000000000000000000000000600052604160045260246000fd5b6200209e8262002053565b810181811067ffffffffffffffff82111715620020c057620020bf62002064565b5b80604052505050565b6000620020d562001f82565b9050620020e3828262002093565b919050565b600067ffffffffffffffff82111562002106576200210562002064565b5b620021118262002053565b9050602081019050919050565b82818337600083830152505050565b6000620021446200213e84620020e8565b620020c9565b9050828152602081018484840111156200216357620021626200204e565b5b620021708482856200211e565b509392505050565b600082601f83011262002190576200218f62002049565b5b8135620021a28482602086016200212d565b91505092915050565b60008060408385031215620021c557620021c462001f8c565b5b600083013567ffffffffffffffff811115620021e657620021e562001f91565b5b620021f48582860162002178565b925050602083013567ffffffffffffffff81111562002218576200221762001f91565b5b620022268582860162002178565b9150509250929050565b6200223b8162001fc7565b82525050565b600060208201905062002258600083018462002230565b92915050565b60006020828403121562002277576200227662001f8c565b5b6000620022878482850162001fb0565b91505092915050565b600060208284031215620022a957620022a862001f8c565b5b6000620022b98482850162001feb565b91505092915050565b7f4e487b7100000000000000000000000000000000000000000000000000000000600052602160045260246000fd5b60038110620023055762002304620022c2565b5b50565b60008190506200231882620022f1565b919050565b60006200232a8262002308565b9050919050565b6200233c816200231d565b82525050565b600060208201905062002359600083018462002331565b92915050565b6000819050919050565b60006200238a620023846200237e8462001f20565b6200235f565b62001f20565b9050919050565b60006200239e8262002369565b9050919050565b6000620023b28262002391565b9050919050565b620023c481620023a5565b82525050565b6000602082019050620023e16000830184620023b9565b92915050565b6000604082019050620023fe600083018562001f54565b6200240d602083018462002230565b9392505050565b60008115159050919050565b6200242b8162002414565b81146200243757600080fd5b50565b6000815190506200244b8162002420565b92915050565b6000602082840312156200246a576200246962001f8c565b5b60006200247a848285016200243a565b91505092915050565b600082825260208201905092915050565b7f6372656174696f6e2066656573206e6f74207061696400000000000000000000600082015250565b6000620024cc60168362002483565b9150620024d98262002494565b602082019050919050565b60006020820190508181036000830152620024ff81620024bd565b9050919050565b7f4e487b7100000000000000000000000000000000000000000000000000000000600052601160045260246000fd5b6000620025428262001fc7565b91506200254f8362001fc7565b9250827fffffffffffffffffffffffffffffffffffffffffffffffffffffffffffffffff0382111562002587576200258662002506565b5b828201905092915050565b600081519050919050565b60005b83811015620025bd578082015181840152602081019050620025a0565b83811115620025cd576000848401525b50505050565b6000620025e08262002592565b620025ec818562002483565b9350620025fe8185602086016200259d565b620026098162002053565b840191505092915050565b60006040820190508181036000830152620026308185620025d3565b90508181036020830152620026468184620025d3565b90509392505050565b60006200265c8262001fc7565b9150620026698362001fc7565b9250817fffffffffffffffffffffffffffffffffffffffffffffffffffffffffffffffff0483118215151615620026a557620026a462002506565b5b828202905092915050565b7f4e487b7100000000000000000000000000000000000000000000000000000000600052601260045260246000fd5b6000620026ec8262001fc7565b9150620026f98362001fc7565b9250826200270c576200270b620026b0565b5b828204905092915050565b7f546f6b656e206973206e6f742066756e64696e67000000000000000000000000600082015250565b60006200274f60148362002483565b91506200275c8262002717565b602082019050919050565b60006020820190508181036000830152620027828162002740565b9050919050565b7f416d6f756e742073686f756c642062652067726561746572207468616e207a6560008201527f726f000000000000000000000000000000000000000000000000000000000000602082015250565b6000620027e760228362002483565b9150620027f48262002789565b604082019050919050565b600060208201905081810360008301526200281a81620027d8565b9050919050565b600081519050620028328162001fd1565b92915050565b60006020828403121562002851576200285062001f8c565b5b6000620028618482850162002821565b91505092915050565b600060408201905062002881600083018562002230565b62002890602083018462002230565b9392505050565b6000620028a48262001fc7565b9150620028b18362001fc7565b925082821015620028c757620028c662002506565b5b828203905092915050565b6000606082019050620028e9600083018662002230565b620028f8602083018562002230565b62002907604083018462002230565b949350505050565b600081519050919050565b600081905092915050565b600062002932826200290f565b6200293e81856200291a565b9350620029508185602086016200259d565b80840191505092915050565b60006200296a828462002925565b915081905092915050565b7f4554482073656e64206661696c65640000000000000000000000000000000000600082015250565b6000620029ad600f8362002483565b9150620029ba8262002975565b602082019050919050565b60006020820190508181036000830152620029e0816200299e565b9050919050565b7f546f6b656e206e6f7420666f756e640000000000000000000000000000000000600082015250565b600062002a1f600f8362002483565b915062002a2c82620029e7565b602082019050919050565b6000602082019050818103600083015262002a528162002a10565b9050919050565b7f455448206e6f7420656e6f756768000000000000000000000000000000000000600082015250565b600062002a91600e8362002483565b915062002a9e8262002a59565b602082019050919050565b6000602082019050818103600083015262002ac48162002a82565b9050919050565b7f546f6b656e20737570706c79206e6f7420656e6f756768000000000000000000600082015250565b600062002b0360178362002483565b915062002b108262002acb565b602082019050919050565b6000602082019050818103600083015262002b368162002af4565b9050919050565b7f4f776e61626c653a206e6577206f776e657220697320746865207a65726f206160008201527f6464726573730000000000000000000000000000000000000000000000000000602082015250565b600062002b9b60268362002483565b915062002ba88262002b3d565b604082019050919050565b6000602082019050818103600083015262002bce8162002b8c565b9050919050565b7f4f776e61626c653a2063616c6c6572206973206e6f7420746865206f776e6572600082015250565b600062002c0d60208362002483565b915062002c1a8262002bd5565b602082019050919050565b6000602082019050818103600083015262002c408162002bfe565b9050919050565b60008151905062002c588162001f96565b92915050565b60006020828403121562002c775762002c7662001f8c565b5b600062002c878482850162002c47565b91505092915050565b600060408201905062002ca7600083018562001f54565b62002cb6602083018462001f54565b9392505050565b600060c08201905062002cd4600083018962001f54565b62002ce3602083018862002230565b62002cf2604083018762002230565b62002d01606083018662002230565b62002d10608083018562001f54565b62002d1f60a083018462002230565b979650505050505050565b60008060006060848603121562002d465762002d4562001f8c565b5b600062002d568682870162002821565b935050602062002d698682870162002821565b925050604062002d7c8682870162002821565b915050925092509256fe60806040523480156200001157600080fd5b5060405162002045380380620020458339818101604052810190620000379190620003b0565b818181600390805190602001906200005192919062000163565b5080600490805190602001906200006a92919062000163565b5050506200008d620000816200009560201b60201c565b6200009d60201b60201c565b505062000499565b600033905090565b6000600560009054906101000a900473ffffffffffffffffffffffffffffffffffffffff16905081600560006101000a81548173ffffffffffffffffffffffffffffffffffffffff021916908373ffffffffffffffffffffffffffffffffffffffff1602179055508173ffffffffffffffffffffffffffffffffffffffff168173ffffffffffffffffffffffffffffffffffffffff167f8be0079c531659141344cd1fd0a4f28419497f9722a3daafe3b4186f6b6457e060405160405180910390a35050565b828054620001719062000464565b90600052602060002090601f016020900481019282620001955760008555620001e1565b82601f10620001b057805160ff1916838001178555620001e1565b82800160010185558215620001e1579182015b82811115620001e0578251825591602001919060010190620001c3565b5b509050620001f09190620001f4565b5090565b5b808211156200020f576000816000905550600101620001f5565b5090565b6000604051905090565b600080fd5b600080fd5b600080fd5b600080fd5b6000601f19601f8301169050919050565b7f4e487b7100000000000000000000000000000000000000000000000000000000600052604160045260246000fd5b6200027c8262000231565b810181811067ffffffffffffffff821117156200029e576200029d62000242565b5b80604052505050565b6000620002b362000213565b9050620002c1828262000271565b919050565b600067ffffffffffffffff821115620002e457620002e362000242565b5b620002ef8262000231565b9050602081019050919050565b60005b838110156200031c578082015181840152602081019050620002ff565b838111156200032c576000848401525b50505050565b6000620003496200034384620002c6565b620002a7565b9050828152602081018484840111156200036857620003676200022c565b5b62000375848285620002fc565b509392505050565b600082601f83011262000395576200039462000227565b5b8151620003a784826020860162000332565b91505092915050565b60008060408385031215620003ca57620003c96200021d565b5b600083015167ffffffffffffffff811115620003eb57620003ea62000222565b5b620003f9858286016200037d565b925050602083015167ffffffffffffffff8111156200041d576200041c62000222565b5b6200042b858286016200037d565b9150509250929050565b7f4e487b7100000000000000000000000000000000000000000000000000000000600052602260045260246000fd5b600060028204905060018216806200047d57607f821691505b60208210810362000493576200049262000435565b5b50919050565b611b9c80620004a96000396000f3fe608060405234801561001057600080fd5b50600436106101005760003560e01c8063715018a611610097578063a457c2d711610066578063a457c2d71461029d578063a9059cbb146102cd578063dd62ed3e146102fd578063f2fde38b1461032d57610100565b8063715018a61461023b5780638da5cb5b1461024557806395d89b41146102635780639dc29fac1461028157610100565b8063313ce567116100d3578063313ce567146101a157806339509351146101bf57806340c10f19146101ef57806370a082311461020b57610100565b806306fdde0314610105578063095ea7b31461012357806318160ddd1461015357806323b872dd14610171575b600080fd5b61010d610349565b60405161011a919061119f565b60405180910390f35b61013d6004803603810190610138919061125a565b6103db565b60405161014a91906112b5565b60405180910390f35b61015b6103fe565b60405161016891906112df565b60405180910390f35b61018b600480360381019061018691906112fa565b610408565b60405161019891906112b5565b60405180910390f35b6101a9610437565b6040516101b69190611369565b60405180910390f35b6101d960048036038101906101d4919061125a565b610440565b6040516101e691906112b5565b60405180910390f35b6102096004803603810190610204919061125a565b610477565b005b61022560048036038101906102209190611384565b61048d565b60405161023291906112df565b60405180910390f35b6102436104d5565b005b61024d6104e9565b60405161025a91906113c0565b60405180910390f35b61026b610513565b604051610278919061119f565b60405180910390f35b61029b6004803603810190610296919061125a565b6105a5565b005b6102b760048036038101906102b2919061125a565b610629565b6040516102c491906112b5565b60405180910390f35b6102e760048036038101906102e2919061125a565b6106a0565b6040516102f491906112b5565b60405180910390f35b610317600480360381019061031291906113db565b6106c3565b60405161032491906112df565b60405180910390f35b61034760048036038101906103429190611384565b61074a565b005b6060600380546103589061144a565b80601f01602080910402602001604051908101604052809291908181526020018280546103849061144a565b80156103d15780601f106103a6576101008083540402835291602001916103d1565b820191906000526020600020905b8154815290600101906020018083116103b457829003601f168201915b5050505050905090565b6000806103e66107cd565b90506103f38185856107d5565b600191505092915050565b6000600254905090565b6000806104136107cd565b905061042085828561099e565b61042b858585610a2a565b60019150509392505050565b60006012905090565b60008061044b6107cd565b905061046c81858561045d85896106c3565b61046791906114aa565b6107d5565b600191505092915050565b61047f610c95565b6104898282610d13565b5050565b60008060008373ffffffffffffffffffffffffffffffffffffffff1673ffffffffffffffffffffffffffffffffffffffff168152602001908152602001600020549050919050565b6104dd610c95565b6104e76000610e69565b565b6000600560009054906101000a900473ffffffffffffffffffffffffffffffffffffffff16905090565b6060600480546105229061144a565b80601f016020809104026020016040519081016040528092919081815260200182805461054e9061144a565b801561059b5780601f106105705761010080835404028352916020019161059b565b820191906000526020600020905b81548152906001019060200180831161057e57829003601f168201915b5050505050905090565b8173ffffffffffffffffffffffffffffffffffffffff163373ffffffffffffffffffffffffffffffffffffffff1614158061061257506105e36104e9565b73ffffffffffffffffffffffffffffffffffffffff163373ffffffffffffffffffffffffffffffffffffffff16145b61061b57600080fd5b6106258282610f2f565b5050565b6000806106346107cd565b9050600061064282866106c3565b905083811015610687576040517f08c379a000000000000000000000000000000000000000000000000000000000815260040161067e90611572565b60405180910390fd5b61069482868684036107d5565b60019250505092915050565b6000806106ab6107cd565b90506106b8818585610a2a565b600191505092915050565b6000600160008473ffffffffffffffffffffffffffffffffffffffff1673ffffffffffffffffffffffffffffffffffffffff16815260200190815260200160002060008373ffffffffffffffffffffffffffffffffffffffff1673ffffffffffffffffffffffffffffffffffffffff16815260200190815260200160002054905092915050565b610752610c95565b600073ffffffffffffffffffffffffffffffffffffffff168173ffffffffffffffffffffffffffffffffffffffff16036107c1576040517f08c379a00000000000000000000000000000000000000000000000000000000081526004016107b890611604565b60405180910390fd5b6107ca81610e69565b50565b600033905090565b600073ffffffffffffffffffffffffffffffffffffffff168373ffffffffffffffffffffffffffffffffffffffff1603610844576040517f08c379a000000000000000000000000000000000000000000000000000000000815260040161083b90611696565b60405180910390fd5b600073ffffffffffffffffffffffffffffffffffffffff168273ffffffffffffffffffffffffffffffffffffffff16036108b3576040517f08c379a00000000000000000000000000000000000000000000000000000000081526004016108aa90611728565b60405180910390fd5b80600160008573ffffffffffffffffffffffffffffffffffffffff1673ffffffffffffffffffffffffffffffffffffffff16815260200190815260200160002060008473ffffffffffffffffffffffffffffffffffffffff1673ffffffffffffffffffffffffffffffffffffffff168152602001908152602001600020819055508173ffffffffffffffffffffffffffffffffffffffff168373ffffffffffffffffffffffffffffffffffffffff167f8c5be1e5ebec7d5bd14f71427d1e84f3dd0314c0f7b2291e5b200ac8c7c3b9258360405161099191906112df565b60405180910390a3505050565b60006109aa84846106c3565b90507fffffffffffffffffffffffffffffffffffffffffffffffffffffffffffffffff8114610a245781811015610a16576040517f08c379a0000000000000000000000000000000000000000000000000000000008152600401610a0d90611794565b60405180910390fd5b610a2384848484036107d5565b5b50505050565b600073ffffffffffffffffffffffffffffffffffffffff168373ffffffffffffffffffffffffffffffffffffffff1603610a99576040517f08c379a0000000000000000000000000000000000000000000000000000000008152600401610a9090611826565b60405180910390fd5b600073ffffffffffffffffffffffffffffffffffffffff168273ffffffffffffffffffffffffffffffffffffffff1603610b08576040517f08c379a0000000000000000000000000000000000000000000000000000000008152600401610aff906118b8565b60405180910390fd5b60008060008573ffffffffffffffffffffffffffffffffffffffff1673ffffffffffffffffffffffffffffffffffffffff16815260200190815260200160002054905081811015610b8e576040517f08c379a0000000000000000000000000000000000000000000000000000000008152600401610b859061194a565b60405180910390fd5b8181036000808673ffffffffffffffffffffffffffffffffffffffff1673ffffffffffffffffffffffffffffffffffffffff16815260200190815260200160002081905550816000808573ffffffffffffffffffffffffffffffffffffffff1673ffffffffffffffffffffffffffffffffffffffff168152602001908152602001600020600082825401925050819055508273ffffffffffffffffffffffffffffffffffffffff168473ffffffffffffffffffffffffffffffffffffffff167fddf252ad1be2c89b69c2b068fc378daa952ba7f163c4a11628f55a4df523b3ef84604051610c7c91906112df565b60405180910390a3610c8f8484846110fc565b50505050565b610c9d6107cd565b73ffffffffffffffffffffffffffffffffffffffff16610cbb6104e9565b73ffffffffffffffffffffffffffffffffffffffff1614610d11576040517f08c379a0000000000000000000000000000000000000000000000000000000008152600401610d08906119b6565b60405180910390fd5b565b600073ffffffffffffffffffffffffffffffffffffffff168273ffffffffffffffffffffffffffffffffffffffff1603610d82576040517f08c379a0000000000000000000000000000000000000000000000000000000008152600401610d7990611a22565b60405180910390fd5b610d8e60008383611101565b8060026000828254610da091906114aa565b92505081905550806000808473ffffffffffffffffffffffffffffffffffffffff1673ffffffffffffffffffffffffffffffffffffffff168152602001908152602001600020600082825401925050819055508173ffffffffffffffffffffffffffffffffffffffff16600073ffffffffffffffffffffffffffffffffffffffff167fddf252ad1be2c89b69c2b068fc378daa952ba7f163c4a11628f55a4df523b3ef83604051610e5191906112df565b60405180910390a3610e65600083836110fc565b5050565b6000600560009054906101000a900473ffffffffffffffffffffffffffffffffffffffff16905081600560006101000a81548173ffffffffffffffffffffffffffffffffffffffff021916908373ffffffffffffffffffffffffffffffffffffffff1602179055508173ffffffffffffffffffffffffffffffffffffffff168173ffffffffffffffffffffffffffffffffffffffff167f8be0079c531659141344cd1fd0a4f28419497f9722a3daafe3b4186f6b6457e060405160405180910390a35050565b600073ffffffffffffffffffffffffffffffffffffffff168273ffffffffffffffffffffffffffffffffffffffff1603610f9e576040517f08c379a0000000000000000000000000000000000000000000000000000000008152600401610f9590611ab4565b60405180910390fd5b610faa82600083611101565b60008060008473ffffffffffffffffffffffffffffffffffffffff1673ffffffffffffffffffffffffffffffffffffffff16815260200190815260200160002054905081811015611030576040517f08c379a000000000000000000000000000000000000000000000000000000000815260040161102790611b46565b60405180910390fd5b8181036000808573ffffffffffffffffffffffffffffffffffffffff1673ffffffffffffffffffffffffffffffffffffffff1681526020019081526020016000208190555081600260008282540392505081905550600073ffffffffffffffffffffffffffffffffffffffff168373ffffffffffffffffffffffffffffffffffffffff167fddf252ad1be2c89b69c2b068fc378daa952ba7f163c4a11628f55a4df523b3ef846040516110e391906112df565b60405180910390a36110f7836000846110fc565b505050565b505050565b505050565b600081519050919050565b600082825260208201905092915050565b60005b83811015611140578082015181840152602081019050611125565b8381111561114f576000848401525b50505050565b6000601f19601f8301169050919050565b600061117182611106565b61117b8185611111565b935061118b818560208601611122565b61119481611155565b840191505092915050565b600060208201905081810360008301526111b98184611166565b905092915050565b600080fd5b600073ffffffffffffffffffffffffffffffffffffffff82169050919050565b60006111f1826111c6565b9050919050565b611201816111e6565b811461120c57600080fd5b50565b60008135905061121e816111f8565b92915050565b6000819050919050565b61123781611224565b811461124257600080fd5b50565b6000813590506112548161122e565b92915050565b60008060408385031215611271576112706111c1565b5b600061127f8582860161120f565b925050602061129085828601611245565b9150509250929050565b60008115159050919050565b6112af8161129a565b82525050565b60006020820190506112ca60008301846112a6565b92915050565b6112d981611224565b82525050565b60006020820190506112f460008301846112d0565b92915050565b600080600060608486031215611313576113126111c1565b5b60006113218682870161120f565b93505060206113328682870161120f565b925050604061134386828701611245565b9150509250925092565b600060ff82169050919050565b6113638161134d565b82525050565b600060208201905061137e600083018461135a565b92915050565b60006020828403121561139a576113996111c1565b5b60006113a88482850161120f565b91505092915050565b6113ba816111e6565b82525050565b60006020820190506113d560008301846113b1565b92915050565b600080604083850312156113f2576113f16111c1565b5b60006114008582860161120f565b92505060206114118582860161120f565b9150509250929050565b7f4e487b7100000000000000000000000000000000000000000000000000000000600052602260045260246000fd5b6000600282049050600182168061146257607f821691505b6020821081036114755761147461141b565b5b50919050565b7f4e487b7100000000000000000000000000000000000000000000000000000000600052601160045260246000fd5b60006114b582611224565b91506114c083611224565b9250827fffffffffffffffffffffffffffffffffffffffffffffffffffffffffffffffff038211156114f5576114f461147b565b5b828201905092915050565b7f45524332303a2064656372656173656420616c6c6f77616e63652062656c6f7760008201527f207a65726f000000000000000000000000000000000000000000000000000000602082015250565b600061155c602583611111565b915061156782611500565b604082019050919050565b6000602082019050818103600083015261158b8161154f565b9050919050565b7f4f776e61626c653a206e6577206f776e657220697320746865207a65726f206160008201527f6464726573730000000000000000000000000000000000000000000000000000602082015250565b60006115ee602683611111565b91506115f982611592565b604082019050919050565b6000602082019050818103600083015261161d816115e1565b9050919050565b7f45524332303a20617070726f76652066726f6d20746865207a65726f2061646460008201527f7265737300000000000000000000000000000000000000000000000000000000602082015250565b6000611680602483611111565b915061168b82611624565b604082019050919050565b600060208201905081810360008301526116af81611673565b9050919050565b7f45524332303a20617070726f766520746f20746865207a65726f20616464726560008201527f7373000000000000000000000000000000000000000000000000000000000000602082015250565b6000611712602283611111565b915061171d826116b6565b604082019050919050565b6000602082019050818103600083015261174181611705565b9050919050565b7f45524332303a20696e73756666696369656e7420616c6c6f77616e6365000000600082015250565b600061177e601d83611111565b915061178982611748565b602082019050919050565b600060208201905081810360008301526117ad81611771565b9050919050565b7f45524332303a207472616e736665722066726f6d20746865207a65726f20616460008201527f6472657373000000000000000000000000000000000000000000000000000000602082015250565b6000611810602583611111565b915061181b826117b4565b604082019050919050565b6000602082019050818103600083015261183f81611803565b9050919050565b7f45524332303a207472616e7366657220746f20746865207a65726f206164647260008201527f6573730000000000000000000000000000000000000000000000000000000000602082015250565b60006118a2602383611111565b91506118ad82611846565b604082019050919050565b600060208201905081810360008301526118d181611895565b9050919050565b7f45524332303a207472616e7366657220616d6f756e742065786365656473206260008201527f616c616e63650000000000000000000000000000000000000000000000000000602082015250565b6000611934602683611111565b915061193f826118d8565b604082019050919050565b6000602082019050818103600083015261196381611927565b9050919050565b7f4f776e61626c653a2063616c6c6572206973206e6f7420746865206f776e6572600082015250565b60006119a0602083611111565b91506119ab8261196a565b602082019050919050565b600060208201905081810360008301526119cf81611993565b9050919050565b7f45524332303a206d696e7420746f20746865207a65726f206164647265737300600082015250565b6000611a0c601f83611111565b9150611a17826119d6565b602082019050919050565b60006020820190508181036000830152611a3b816119ff565b9050919050565b7f45524332303a206275726e2066726f6d20746865207a65726f2061646472657360008201527f7300000000000000000000000000000000000000000000000000000000000000602082015250565b6000611a9e602183611111565b9150611aa982611a42565b604082019050919050565b60006020820190508181036000830152611acd81611a91565b9050919050565b7f45524332303a206275726e20616d6f756e7420657863656564732062616c616e60008201527f6365000000000000000000000000000000000000000000000000000000000000602082015250565b6000611b30602283611111565b9150611b3b82611ad4565b604082019050919050565b60006020820190508181036000830152611b5f81611b23565b905091905056fea2646970667358221220a6c9faf5b97eff0fd6ce90861166833c018225cabde5ff359897f6173cd3cb5b64736f6c634300080d0033a26469706673582212207b001c0f75ebd34385082d6277ea96ce53f296fe24862eca8d4bd425b08adb4f64736f6c634300080d003360c06040523480156200001157600080fd5b5060405162001274380380620012748339818101604052810190620000379190620006ac565b62000066826200005283620000de60201b620002c81760201c565b6200033b60201b620005241790919060201c565b60a081815250506000620000a06200008f8460a0516200037960201b620005611790919060201c565b620003b360201b620005991760201c565b9050620000ce60a051600183620000b8919062000722565b84620005ab60201b62000789179092919060201c565b608081815250505050506200078c565b6000816fffffffffffffffffffffffffffffffff1060071b905081811c67ffffffffffffffff1060061b8117905081811c63ffffffff1060051b8117905081811c61ffff1060041b8117905081811c60ff1060031b81179050600082136200014e57631615e6386000526004601cfd5b7ff8f9f9faf9fdfafbf9fdfcfdfafbfcfef9fafdfafcfcfbfefafafcfbffffffff6f8421084210842108cc6318c6db6d54be83831c1c601f161a8118905081811b609f1c91506c8c3f38e95a6b1ff2ab1c3b3437828384856c29508e458543d8aa4df2abee78010260601d6d0139601a2efabe717e604cbb4894010260601d6d02247f7a7b6594320649aa03aba1010260601d036d02384773bdf1ac5676facced609183820260601d0390506cb9a025d814b29c212b8b1a07ce83820260601d0390506c0a09507084cc699bb0e71ea86a60601b838202039050826c465772b2bbbb5f824b15207a300180840260601d6d0388eaa27412d5aca026815d636e01905080840260601d6d0df99ac502031bf953eff472fdcc01905080840260601d6d13cdffb29d51d99322bdff5f221101905080840260601d6d0a0f742023def783a307a986912e01905080840260601d6d01920d8043ca89b5239253284e4201905080840260601d6c0b7a86d7375468fac667a0a527019050808205915081711340daa0d5f769dba1915cef59f0815a55060291508183609f037d0267a36c0c95b3975ab3ee5b203a7614a3f75373f047d803ae7b6687f2b302019150817d57115e47018c7177eebf7cd370a3356a1b7863008a5ae8028c72b88642840191508160ae1d92505050919050565b6000670de0b6b3a764000060001904600101831082026200036457637c5f487d6000526004601cfd5b81670de0b6b3a7640000840204905092915050565b600081600019048311156200039e5781156200039d5763bac65e5b6000526004601cfd5b5b670de0b6b3a764000082840204905092915050565b60007ffffffffffffffffffffffffffffffffffffffffffffffffdc0d0570925a462d7821315620005a657680755bf798b4a1bf1e58212620003fd5763a37bfec96000526004601cfd5b6503782dace9d9604e83901b816200041a57620004196200075d565b5b059150600060606b8000000000000000000000006bb17217f7d1cf79abc9e3b398606086901b816200045157620004506200075d565b5b0501901d90506bb17217f7d1cf79abc9e3b39881028303925060006c10fe68e7fd37d0007b713f7650840190506d02d16720577bd19bf614176fe9ea6060858302901d01905060006d04a4fd9f2a8b96949216d2255a6c8583010390506e0587f503bb6ea29d25fcb7401964506060838302901d01905079d835ebba824c98fb31b83b2ca45c00000000000000000000000085820201905060006c240c330e9fb2d9cbaf0fd5aafc860390506d0277594991cfc85f6e2461837cd96060878302901d0190506d1a521255e34f6a5061b25ef1c9c46060878302901d0390506db1bbb201f443cf962f1a1d3db4a56060878302901d0190506e02c72388d9f74f51a9331fed693f156060878302901d0390506e05180bb14799ab47a8a8cb2a527d576060878302901d01905080820594508360c30374029d9dc38563c32e5c2f6dc192ee70ef65f9978af38602901c9450505050505b919050565b600082840290506001156200066557818385830414851517026200065f576000198385098181108201810383858709846000038516828611620005f65763ae47f7026000526004601cfd5b80860495508560030260021880870260020381029050808702600203810290508087026002038102905080870260020381029050808702600203810290508081880260020302828488030460018485600003040188861187030217029550505050505062000665565b81810490505b9392505050565b600080fd5b6000819050919050565b620006868162000671565b81146200069257600080fd5b50565b600081519050620006a6816200067b565b92915050565b60008060408385031215620006c657620006c56200066c565b5b6000620006d68582860162000695565b9250506020620006e98582860162000695565b9150509250929050565b7f4e487b7100000000000000000000000000000000000000000000000000000000600052601160045260246000fd5b60006200072f8262000671565b91506200073c8362000671565b925082821015620007525762000751620006f3565b5b828203905092915050565b7f4e487b7100000000000000000000000000000000000000000000000000000000600052601260045260246000fd5b60805160a051610aa7620007cd6000396000818160ef0152818161013b01526101fb015260008181610116015281816101d601526102a60152610aa76000f3fe608060405234801561001057600080fd5b506004361061004c5760003560e01c806332e7c5bf146100515780637cabb7cf1461006f578063901ce73e1461009f578063f446c1d0146100cf575b600080fd5b6100596100ed565b604051610066919061085f565b60405180910390f35b610089600480360381019061008491906108ab565b610111565b604051610096919061085f565b60405180910390f35b6100b960048036038101906100b491906108ab565b6101d1565b6040516100c6919061085f565b60405180910390f35b6100d76102a4565b6040516100e4919061085f565b60405180910390f35b7f000000000000000000000000000000000000000000000000000000000000000081565b6000807f0000000000000000000000000000000000000000000000000000000000000000905060007f000000000000000000000000000000000000000000000000000000000000000090506000610179610174878461056190919063ffffffff16565b610599565b905060006101928385886107899092919063ffffffff16565b8261019d919061091a565b9050866101bb846101ad846102c8565b61052490919063ffffffff16565b6101c59190610970565b94505050505092915050565b6000807f0000000000000000000000000000000000000000000000000000000000000000905060007f000000000000000000000000000000000000000000000000000000000000000090508385101561022957600080fd5b6000610246610241878461056190919063ffffffff16565b610599565b9050600061027061026b878961025c9190610970565b8561056190919063ffffffff16565b610599565b90506000818361028091906109ae565b90506102978185876107899092919063ffffffff16565b9550505050505092915050565b7f000000000000000000000000000000000000000000000000000000000000000081565b6000816fffffffffffffffffffffffffffffffff1060071b905081811c67ffffffffffffffff1060061b8117905081811c63ffffffff1060051b8117905081811c61ffff1060041b8117905081811c60ff1060031b811790506000821361033757631615e6386000526004601cfd5b7ff8f9f9faf9fdfafbf9fdfcfdfafbfcfef9fafdfafcfcfbfefafafcfbffffffff6f8421084210842108cc6318c6db6d54be83831c1c601f161a8118905081811b609f1c91506c8c3f38e95a6b1ff2ab1c3b3437828384856c29508e458543d8aa4df2abee78010260601d6d0139601a2efabe717e604cbb4894010260601d6d02247f7a7b6594320649aa03aba1010260601d036d02384773bdf1ac5676facced609183820260601d0390506cb9a025d814b29c212b8b1a07ce83820260601d0390506c0a09507084cc699bb0e71ea86a60601b838202039050826c465772b2bbbb5f824b15207a300180840260601d6d0388eaa27412d5aca026815d636e01905080840260601d6d0df99ac502031bf953eff472fdcc01905080840260601d6d13cdffb29d51d99322bdff5f221101905080840260601d6d0a0f742023def783a307a986912e01905080840260601d6d01920d8043ca89b5239253284e4201905080840260601d6c0b7a86d7375468fac667a0a527019050808205915081711340daa0d5f769dba1915cef59f0815a55060291508183609f037d0267a36c0c95b3975ab3ee5b203a7614a3f75373f047d803ae7b6687f2b302019150817d57115e47018c7177eebf7cd370a3356a1b7863008a5ae8028c72b88642840191508160ae1d92505050919050565b6000670de0b6b3a7640000600019046001018310820261054c57637c5f487d6000526004601cfd5b81670de0b6b3a7640000840204905092915050565b600081600019048311156105845781156105835763bac65e5b6000526004601cfd5b5b670de0b6b3a764000082840204905092915050565b60007ffffffffffffffffffffffffffffffffffffffffffffffffdc0d0570925a462d782131561078457680755bf798b4a1bf1e582126105e15763a37bfec96000526004601cfd5b6503782dace9d9604e83901b816105fb576105fa610a42565b5b059150600060606b8000000000000000000000006bb17217f7d1cf79abc9e3b398606086901b8161062f5761062e610a42565b5b0501901d90506bb17217f7d1cf79abc9e3b39881028303925060006c10fe68e7fd37d0007b713f7650840190506d02d16720577bd19bf614176fe9ea6060858302901d01905060006d04a4fd9f2a8b96949216d2255a6c8583010390506e0587f503bb6ea29d25fcb7401964506060838302901d01905079d835ebba824c98fb31b83b2ca45c00000000000000000000000085820201905060006c240c330e9fb2d9cbaf0fd5aafc860390506d0277594991cfc85f6e2461837cd96060878302901d0190506d1a521255e34f6a5061b25ef1c9c46060878302901d0390506db1bbb201f443cf962f1a1d3db4a56060878302901d0190506e02c72388d9f74f51a9331fed693f156060878302901d0390506e05180bb14799ab47a8a8cb2a527d576060878302901d01905080820594508360c30374029d9dc38563c32e5c2f6dc192ee70ef65f9978af38602901c9450505050505b919050565b6000828402905060011561083f57818385830414851517026108395760001983850981811082018103838587098460000385168286116107d15763ae47f7026000526004601cfd5b80860495508560030260021880870260020381029050808702600203810290508087026002038102905080870260020381029050808702600203810290508081880260020302828488030460018485600003040188861187030217029550505050505061083f565b81810490505b9392505050565b6000819050919050565b61085981610846565b82525050565b60006020820190506108746000830184610850565b92915050565b600080fd5b61088881610846565b811461089357600080fd5b50565b6000813590506108a58161087f565b92915050565b600080604083850312156108c2576108c161087a565b5b60006108d085828601610896565b92505060206108e185828601610896565b9150509250929050565b7f4e487b7100000000000000000000000000000000000000000000000000000000600052601160045260246000fd5b600061092582610846565b915061093083610846565b9250827fffffffffffffffffffffffffffffffffffffffffffffffffffffffffffffffff03821115610965576109646108eb565b5b828201905092915050565b600061097b82610846565b915061098683610846565b925082821015610999576109986108eb565b5b828203905092915050565b6000819050919050565b60006109b9826109a4565b91506109c4836109a4565b9250827f8000000000000000000000000000000000000000000000000000000000000000018212600084121516156109ff576109fe6108eb565b5b827f7fffffffffffffffffffffffffffffffffffffffffffffffffffffffffffffff018213600084121615610a3757610a366108eb565b5b828203905092915050565b7f4e487b7100000000000000000000000000000000000000000000000000000000600052601260045260246000fdfea26469706673582212208742a476fd4a57868f7252603e8c6f9bec93a696c9e76ad9cfab54eec6c3b5fb64736f6c634300080d0033",
			"opcodes": "PUSH1 0x80 PUSH1 0x40 MSTORE CALLVALUE DUP1 ISZERO PUSH3 0x11 JUMPI PUSH1 0x0 DUP1 REVERT JUMPDEST POP PUSH1 0x40 MLOAD PUSH3 0x6552 CODESIZE SUB DUP1 PUSH3 0x6552 DUP4 CODECOPY DUP2 DUP2 ADD PUSH1 0x40 MSTORE DUP2 ADD SWAP1 PUSH3 0x37 SWAP2 SWAP1 PUSH3 0x326 JUMP JUMPDEST PUSH1 0x1 PUSH1 0x0 DUP2 SWAP1 SSTORE POP PUSH3 0x5F PUSH3 0x53 PUSH3 0x1A5 PUSH1 0x20 SHL PUSH1 0x20 SHR JUMP JUMPDEST PUSH3 0x1AD PUSH1 0x20 SHL PUSH1 0x20 SHR JUMP JUMPDEST DUP4 PUSH1 0x4 PUSH1 0x0 PUSH2 0x100 EXP DUP2 SLOAD DUP2 PUSH20 0xFFFFFFFFFFFFFFFFFFFFFFFFFFFFFFFFFFFFFFFF MUL NOT AND SWAP1 DUP4 PUSH20 0xFFFFFFFFFFFFFFFFFFFFFFFFFFFFFFFFFFFFFFFF AND MUL OR SWAP1 SSTORE POP DUP3 PUSH1 0x5 PUSH1 0x0 PUSH2 0x100 EXP DUP2 SLOAD DUP2 PUSH20 0xFFFFFFFFFFFFFFFFFFFFFFFFFFFFFFFFFFFFFFFF MUL NOT AND SWAP1 DUP4 PUSH20 0xFFFFFFFFFFFFFFFFFFFFFFFFFFFFFFFFFFFFFFFF AND MUL OR SWAP1 SSTORE POP PUSH1 0x5 PUSH1 0x4 PUSH12 0x33B2E3C9FD0803CE8000000 PUSH3 0xFE SWAP2 SWAP1 PUSH3 0x3C7 JUMP JUMPDEST PUSH3 0x10A SWAP2 SWAP1 PUSH3 0x457 JUMP JUMPDEST PUSH9 0x56BC75E2D63100000 PUSH1 0x40 MLOAD PUSH3 0x122 SWAP1 PUSH3 0x273 JUMP JUMPDEST PUSH3 0x12F SWAP3 SWAP2 SWAP1 PUSH3 0x4A0 JUMP JUMPDEST PUSH1 0x40 MLOAD DUP1 SWAP2 SUB SWAP1 PUSH1 0x0 CREATE DUP1 ISZERO DUP1 ISZERO PUSH3 0x14C JUMPI RETURNDATASIZE PUSH1 0x0 DUP1 RETURNDATACOPY RETURNDATASIZE PUSH1 0x0 REVERT JUMPDEST POP PUSH1 0x6 PUSH1 0x0 PUSH2 0x100 EXP DUP2 SLOAD DUP2 PUSH20 0xFFFFFFFFFFFFFFFFFFFFFFFFFFFFFFFFFFFFFFFF MUL NOT AND SWAP1 DUP4 PUSH20 0xFFFFFFFFFFFFFFFFFFFFFFFFFFFFFFFFFFFFFFFF AND MUL OR SWAP1 SSTORE POP DUP2 PUSH1 0x7 DUP2 SWAP1 SSTORE POP DUP1 PUSH1 0x9 DUP2 SWAP1 SSTORE POP POP POP POP POP PUSH3 0x4CD JUMP JUMPDEST PUSH1 0x0 CALLER SWAP1 POP SWAP1 JUMP JUMPDEST PUSH1 0x0 PUSH1 0x1 PUSH1 0x0 SWAP1 SLOAD SWAP1 PUSH2 0x100 EXP SWAP1 DIV PUSH20 0xFFFFFFFFFFFFFFFFFFFFFFFFFFFFFFFFFFFFFFFF AND SWAP1 POP DUP2 PUSH1 0x1 PUSH1 0x0 PUSH2 0x100 EXP DUP2 SLOAD DUP2 PUSH20 0xFFFFFFFFFFFFFFFFFFFFFFFFFFFFFFFFFFFFFFFF MUL NOT AND SWAP1 DUP4 PUSH20 0xFFFFFFFFFFFFFFFFFFFFFFFFFFFFFFFFFFFFFFFF AND MUL OR SWAP1 SSTORE POP DUP2 PUSH20 0xFFFFFFFFFFFFFFFFFFFFFFFFFFFFFFFFFFFFFFFF AND DUP2 PUSH20 0xFFFFFFFFFFFFFFFFFFFFFFFFFFFFFFFFFFFFFFFF AND PUSH32 0x8BE0079C531659141344CD1FD0A4F28419497F9722A3DAAFE3B4186F6B6457E0 PUSH1 0x40 MLOAD PUSH1 0x40 MLOAD DUP1 SWAP2 SUB SWAP1 LOG3 POP POP JUMP JUMPDEST PUSH2 0x1274 DUP1 PUSH3 0x52DE DUP4 CODECOPY ADD SWAP1 JUMP JUMPDEST PUSH1 0x0 DUP1 REVERT JUMPDEST PUSH1 0x0 PUSH20 0xFFFFFFFFFFFFFFFFFFFFFFFFFFFFFFFFFFFFFFFF DUP3 AND SWAP1 POP SWAP2 SWAP1 POP JUMP JUMPDEST PUSH1 0x0 PUSH3 0x2B3 DUP3 PUSH3 0x286 JUMP JUMPDEST SWAP1 POP SWAP2 SWAP1 POP JUMP JUMPDEST PUSH3 0x2C5 DUP2 PUSH3 0x2A6 JUMP JUMPDEST DUP2 EQ PUSH3 0x2D1 JUMPI PUSH1 0x0 DUP1 REVERT JUMPDEST POP JUMP JUMPDEST PUSH1 0x0 DUP2 MLOAD SWAP1 POP PUSH3 0x2E5 DUP2 PUSH3 0x2BA JUMP JUMPDEST SWAP3 SWAP2 POP POP JUMP JUMPDEST PUSH1 0x0 DUP2 SWAP1 POP SWAP2 SWAP1 POP JUMP JUMPDEST PUSH3 0x300 DUP2 PUSH3 0x2EB JUMP JUMPDEST DUP2 EQ PUSH3 0x30C JUMPI PUSH1 0x0 DUP1 REVERT JUMPDEST POP JUMP JUMPDEST PUSH1 0x0 DUP2 MLOAD SWAP1 POP PUSH3 0x320 DUP2 PUSH3 0x2F5 JUMP JUMPDEST SWAP3 SWAP2 POP POP JUMP JUMPDEST PUSH1 0x0 DUP1 PUSH1 0x0 DUP1 PUSH1 0x80 DUP6 DUP8 SUB SLT ISZERO PUSH3 0x343 JUMPI PUSH3 0x342 PUSH3 0x281 JUMP JUMPDEST JUMPDEST PUSH1 0x0 PUSH3 0x353 DUP8 DUP3 DUP9 ADD PUSH3 0x2D4 JUMP JUMPDEST SWAP5 POP POP PUSH1 0x20 PUSH3 0x366 DUP8 DUP3 DUP9 ADD PUSH3 0x2D4 JUMP JUMPDEST SWAP4 POP POP PUSH1 0x40 PUSH3 0x379 DUP8 DUP3 DUP9 ADD PUSH3 0x30F JUMP JUMPDEST SWAP3 POP POP PUSH1 0x60 PUSH3 0x38C DUP8 DUP3 DUP9 ADD PUSH3 0x30F JUMP JUMPDEST SWAP2 POP POP SWAP3 SWAP6 SWAP2 SWAP5 POP SWAP3 POP JUMP JUMPDEST PUSH32 0x4E487B7100000000000000000000000000000000000000000000000000000000 PUSH1 0x0 MSTORE PUSH1 0x11 PUSH1 0x4 MSTORE PUSH1 0x24 PUSH1 0x0 REVERT JUMPDEST PUSH1 0x0 PUSH3 0x3D4 DUP3 PUSH3 0x2EB JUMP JUMPDEST SWAP2 POP PUSH3 0x3E1 DUP4 PUSH3 0x2EB JUMP JUMPDEST SWAP3 POP DUP2 PUSH32 0xFFFFFFFFFFFFFFFFFFFFFFFFFFFFFFFFFFFFFFFFFFFFFFFFFFFFFFFFFFFFFFFF DIV DUP4 GT DUP3 ISZERO ISZERO AND ISZERO PUSH3 0x41D JUMPI PUSH3 0x41C PUSH3 0x398 JUMP JUMPDEST JUMPDEST DUP3 DUP3 MUL SWAP1 POP SWAP3 SWAP2 POP POP JUMP JUMPDEST PUSH32 0x4E487B7100000000000000000000000000000000000000000000000000000000 PUSH1 0x0 MSTORE PUSH1 0x12 PUSH1 0x4 MSTORE PUSH1 0x24 PUSH1 0x0 REVERT JUMPDEST PUSH1 0x0 PUSH3 0x464 DUP3 PUSH3 0x2EB JUMP JUMPDEST SWAP2 POP PUSH3 0x471 DUP4 PUSH3 0x2EB JUMP JUMPDEST SWAP3 POP DUP3 PUSH3 0x484 JUMPI PUSH3 0x483 PUSH3 0x428 JUMP JUMPDEST JUMPDEST DUP3 DUP3 DIV SWAP1 POP SWAP3 SWAP2 POP POP JUMP JUMPDEST PUSH3 0x49A DUP2 PUSH3 0x2EB JUMP JUMPDEST DUP3 MSTORE POP POP JUMP JUMPDEST PUSH1 0x0 PUSH1 0x40 DUP3 ADD SWAP1 POP PUSH3 0x4B7 PUSH1 0x0 DUP4 ADD DUP6 PUSH3 0x48F JUMP JUMPDEST PUSH3 0x4C6 PUSH1 0x20 DUP4 ADD DUP5 PUSH3 0x48F JUMP JUMPDEST SWAP4 SWAP3 POP POP POP JUMP JUMPDEST PUSH2 0x4E01 DUP1 PUSH3 0x4DD PUSH1 0x0 CODECOPY PUSH1 0x0 RETURN INVALID PUSH1 0x80 PUSH1 0x40 MSTORE PUSH1 0x4 CALLDATASIZE LT PUSH3 0x188 JUMPI PUSH1 0x0 CALLDATALOAD PUSH1 0xE0 SHR DUP1 PUSH4 0x7CE3489B GT PUSH3 0xE5 JUMPI DUP1 PUSH4 0xD73792A9 GT PUSH3 0x97 JUMPI DUP1 PUSH4 0xEFF1D50E GT PUSH3 0x6D JUMPI DUP1 PUSH4 0xEFF1D50E EQ PUSH3 0x577 JUMPI DUP1 PUSH4 0xF088D547 EQ PUSH3 0x5A7 JUMPI DUP1 PUSH4 0xF2FDE38B EQ PUSH3 0x5C7 JUMPI DUP1 PUSH4 0xFE96973A EQ PUSH3 0x5F5 JUMPI PUSH3 0x188 JUMP JUMPDEST DUP1 PUSH4 0xD73792A9 EQ PUSH3 0x4D3 JUMPI DUP1 PUSH4 0xDDCA3F43 EQ PUSH3 0x503 JUMPI DUP1 PUSH4 0xE4860339 EQ PUSH3 0x533 JUMPI PUSH3 0x188 JUMP JUMPDEST DUP1 PUSH4 0x7CE3489B EQ PUSH3 0x3B7 JUMPI DUP1 PUSH4 0x7FD6F15C EQ PUSH3 0x3E5 JUMPI DUP1 PUSH4 0x8DA5CB5B EQ PUSH3 0x415 JUMPI DUP1 PUSH4 0x99D32FC4 EQ PUSH3 0x445 JUMPI DUP1 PUSH4 0xA5FDC5DE EQ PUSH3 0x45F JUMPI DUP1 PUSH4 0xBFE60856 EQ PUSH3 0x4A3 JUMPI PUSH3 0x188 JUMP JUMPDEST DUP1 PUSH4 0x43FF1FB8 GT PUSH3 0x13F JUMPI DUP1 PUSH4 0x43FF1FB8 EQ PUSH3 0x2B1 JUMPI DUP1 PUSH4 0x53BEE85C EQ PUSH3 0x2DF JUMPI DUP1 PUSH4 0x59D0F713 EQ PUSH3 0x30F JUMPI DUP1 PUSH4 0x6C197FF5 EQ PUSH3 0x33F JUMPI DUP1 PUSH4 0x715018A6 EQ PUSH3 0x36D JUMPI DUP1 PUSH4 0x73B79CB5 EQ PUSH3 0x387 JUMPI PUSH3 0x188 JUMP JUMPDEST DUP1 PUSH4 0x1694505E EQ PUSH3 0x18D JUMPI DUP1 PUSH4 0x1698755F EQ PUSH3 0x1BD JUMPI DUP1 PUSH4 0x2F2F2D56 EQ PUSH3 0x1EB JUMPI DUP1 PUSH4 0x2FF2E9DC EQ PUSH3 0x221 JUMPI DUP1 PUSH4 0x32CB6B0C EQ PUSH3 0x251 JUMPI DUP1 PUSH4 0x42E49D5A EQ PUSH3 0x281 JUMPI JUMPDEST PUSH1 0x0 DUP1 REVERT JUMPDEST CALLVALUE DUP1 ISZERO PUSH3 0x19A JUMPI PUSH1 0x0 DUP1 REVERT JUMPDEST POP PUSH3 0x1A5 PUSH3 0x623 JUMP JUMPDEST PUSH1 0x40 MLOAD PUSH3 0x1B4 SWAP2 SWAP1 PUSH3 0x1F65 JUMP JUMPDEST PUSH1 0x40 MLOAD DUP1 SWAP2 SUB SWAP1 RETURN JUMPDEST CALLVALUE DUP1 ISZERO PUSH3 0x1CA JUMPI PUSH1 0x0 DUP1 REVERT JUMPDEST POP PUSH3 0x1E9 PUSH1 0x4 DUP1 CALLDATASIZE SUB DUP2 ADD SWAP1 PUSH3 0x1E3 SWAP2 SWAP1 PUSH3 0x2002 JUMP JUMPDEST PUSH3 0x649 JUMP JUMPDEST STOP JUMPDEST PUSH3 0x209 PUSH1 0x4 DUP1 CALLDATASIZE SUB DUP2 ADD SWAP1 PUSH3 0x203 SWAP2 SWAP1 PUSH3 0x21AB JUMP JUMPDEST PUSH3 0x6DB JUMP JUMPDEST PUSH1 0x40 MLOAD PUSH3 0x218 SWAP2 SWAP1 PUSH3 0x1F65 JUMP JUMPDEST PUSH1 0x40 MLOAD DUP1 SWAP2 SUB SWAP1 RETURN JUMPDEST CALLVALUE DUP1 ISZERO PUSH3 0x22E JUMPI PUSH1 0x0 DUP1 REVERT JUMPDEST POP PUSH3 0x239 PUSH3 0x844 JUMP JUMPDEST PUSH1 0x40 MLOAD PUSH3 0x248 SWAP2 SWAP1 PUSH3 0x2241 JUMP JUMPDEST PUSH1 0x40 MLOAD DUP1 SWAP2 SUB SWAP1 RETURN JUMPDEST CALLVALUE DUP1 ISZERO PUSH3 0x25E JUMPI PUSH1 0x0 DUP1 REVERT JUMPDEST POP PUSH3 0x269 PUSH3 0x870 JUMP JUMPDEST PUSH1 0x40 MLOAD PUSH3 0x278 SWAP2 SWAP1 PUSH3 0x2241 JUMP JUMPDEST PUSH1 0x40 MLOAD DUP1 SWAP2 SUB SWAP1 RETURN JUMPDEST CALLVALUE DUP1 ISZERO PUSH3 0x28E JUMPI PUSH1 0x0 DUP1 REVERT JUMPDEST POP PUSH3 0x299 PUSH3 0x880 JUMP JUMPDEST PUSH1 0x40 MLOAD PUSH3 0x2A8 SWAP2 SWAP1 PUSH3 0x2241 JUMP JUMPDEST PUSH1 0x40 MLOAD DUP1 SWAP2 SUB SWAP1 RETURN JUMPDEST CALLVALUE DUP1 ISZERO PUSH3 0x2BE JUMPI PUSH1 0x0 DUP1 REVERT JUMPDEST POP PUSH3 0x2DD PUSH1 0x4 DUP1 CALLDATASIZE SUB DUP2 ADD SWAP1 PUSH3 0x2D7 SWAP2 SWAP1 PUSH3 0x225E JUMP JUMPDEST PUSH3 0x88D JUMP JUMPDEST STOP JUMPDEST CALLVALUE DUP1 ISZERO PUSH3 0x2EC JUMPI PUSH1 0x0 DUP1 REVERT JUMPDEST POP PUSH3 0x2F7 PUSH3 0x8DB JUMP JUMPDEST PUSH1 0x40 MLOAD PUSH3 0x306 SWAP2 SWAP1 PUSH3 0x2241 JUMP JUMPDEST PUSH1 0x40 MLOAD DUP1 SWAP2 SUB SWAP1 RETURN JUMPDEST CALLVALUE DUP1 ISZERO PUSH3 0x31C JUMPI PUSH1 0x0 DUP1 REVERT JUMPDEST POP PUSH3 0x327 PUSH3 0x8E5 JUMP JUMPDEST PUSH1 0x40 MLOAD PUSH3 0x336 SWAP2 SWAP1 PUSH3 0x1F65 JUMP JUMPDEST PUSH1 0x40 MLOAD DUP1 SWAP2 SUB SWAP1 RETURN JUMPDEST CALLVALUE DUP1 ISZERO PUSH3 0x34C JUMPI PUSH1 0x0 DUP1 REVERT JUMPDEST POP PUSH3 0x36B PUSH1 0x4 DUP1 CALLDATASIZE SUB DUP2 ADD SWAP1 PUSH3 0x365 SWAP2 SWAP1 PUSH3 0x2002 JUMP JUMPDEST PUSH3 0x90B JUMP JUMPDEST STOP JUMPDEST CALLVALUE DUP1 ISZERO PUSH3 0x37A JUMPI PUSH1 0x0 DUP1 REVERT JUMPDEST POP PUSH3 0x385 PUSH3 0xDA6 JUMP JUMPDEST STOP JUMPDEST CALLVALUE DUP1 ISZERO PUSH3 0x394 JUMPI PUSH1 0x0 DUP1 REVERT JUMPDEST POP PUSH3 0x39F PUSH3 0xDBE JUMP JUMPDEST PUSH1 0x40 MLOAD PUSH3 0x3AE SWAP2 SWAP1 PUSH3 0x2241 JUMP JUMPDEST PUSH1 0x40 MLOAD DUP1 SWAP2 SUB SWAP1 RETURN JUMPDEST CALLVALUE DUP1 ISZERO PUSH3 0x3C4 JUMPI PUSH1 0x0 DUP1 REVERT JUMPDEST POP PUSH3 0x3E3 PUSH1 0x4 DUP1 CALLDATASIZE SUB DUP2 ADD SWAP1 PUSH3 0x3DD SWAP2 SWAP1 PUSH3 0x2290 JUMP JUMPDEST PUSH3 0xDC4 JUMP JUMPDEST STOP JUMPDEST CALLVALUE DUP1 ISZERO PUSH3 0x3F2 JUMPI PUSH1 0x0 DUP1 REVERT JUMPDEST POP PUSH3 0x3FD PUSH3 0xDD8 JUMP JUMPDEST PUSH1 0x40 MLOAD PUSH3 0x40C SWAP2 SWAP1 PUSH3 0x2241 JUMP JUMPDEST PUSH1 0x40 MLOAD DUP1 SWAP2 SUB SWAP1 RETURN JUMPDEST CALLVALUE DUP1 ISZERO PUSH3 0x422 JUMPI PUSH1 0x0 DUP1 REVERT JUMPDEST POP PUSH3 0x42D PUSH3 0xDDE JUMP JUMPDEST PUSH1 0x40 MLOAD PUSH3 0x43C SWAP2 SWAP1 PUSH3 0x1F65 JUMP JUMPDEST PUSH1 0x40 MLOAD DUP1 SWAP2 SUB SWAP1 RETURN JUMPDEST CALLVALUE DUP1 ISZERO PUSH3 0x452 JUMPI PUSH1 0x0 DUP1 REVERT JUMPDEST POP PUSH3 0x45D PUSH3 0xE08 JUMP JUMPDEST STOP JUMPDEST CALLVALUE DUP1 ISZERO PUSH3 0x46C JUMPI PUSH1 0x0 DUP1 REVERT JUMPDEST POP PUSH3 0x48B PUSH1 0x4 DUP1 CALLDATASIZE SUB DUP2 ADD SWAP1 PUSH3 0x485 SWAP2 SWAP1 PUSH3 0x225E JUMP JUMPDEST PUSH3 0xF25 JUMP JUMPDEST PUSH1 0x40 MLOAD PUSH3 0x49A SWAP2 SWAP1 PUSH3 0x2241 JUMP JUMPDEST PUSH1 0x40 MLOAD DUP1 SWAP2 SUB SWAP1 RETURN JUMPDEST CALLVALUE DUP1 ISZERO PUSH3 0x4B0 JUMPI PUSH1 0x0 DUP1 REVERT JUMPDEST POP PUSH3 0x4BB PUSH3 0xF3D JUMP JUMPDEST PUSH1 0x40 MLOAD PUSH3 0x4CA SWAP2 SWAP1 PUSH3 0x2241 JUMP JUMPDEST PUSH1 0x40 MLOAD DUP1 SWAP2 SUB SWAP1 RETURN JUMPDEST CALLVALUE DUP1 ISZERO PUSH3 0x4E0 JUMPI PUSH1 0x0 DUP1 REVERT JUMPDEST POP PUSH3 0x4EB PUSH3 0xF69 JUMP JUMPDEST PUSH1 0x40 MLOAD PUSH3 0x4FA SWAP2 SWAP1 PUSH3 0x2241 JUMP JUMPDEST PUSH1 0x40 MLOAD DUP1 SWAP2 SUB SWAP1 RETURN JUMPDEST CALLVALUE DUP1 ISZERO PUSH3 0x510 JUMPI PUSH1 0x0 DUP1 REVERT JUMPDEST POP PUSH3 0x51B PUSH3 0xF6F JUMP JUMPDEST PUSH1 0x40 MLOAD PUSH3 0x52A SWAP2 SWAP1 PUSH3 0x2241 JUMP JUMPDEST PUSH1 0x40 MLOAD DUP1 SWAP2 SUB SWAP1 RETURN JUMPDEST CALLVALUE DUP1 ISZERO PUSH3 0x540 JUMPI PUSH1 0x0 DUP1 REVERT JUMPDEST POP PUSH3 0x55F PUSH1 0x4 DUP1 CALLDATASIZE SUB DUP2 ADD SWAP1 PUSH3 0x559 SWAP2 SWAP1 PUSH3 0x225E JUMP JUMPDEST PUSH3 0xF75 JUMP JUMPDEST PUSH1 0x40 MLOAD PUSH3 0x56E SWAP2 SWAP1 PUSH3 0x2342 JUMP JUMPDEST PUSH1 0x40 MLOAD DUP1 SWAP2 SUB SWAP1 RETURN JUMPDEST CALLVALUE DUP1 ISZERO PUSH3 0x584 JUMPI PUSH1 0x0 DUP1 REVERT JUMPDEST POP PUSH3 0x58F PUSH3 0xF95 JUMP JUMPDEST PUSH1 0x40 MLOAD PUSH3 0x59E SWAP2 SWAP1 PUSH3 0x23CA JUMP JUMPDEST PUSH1 0x40 MLOAD DUP1 SWAP2 SUB SWAP1 RETURN JUMPDEST PUSH3 0x5C5 PUSH1 0x4 DUP1 CALLDATASIZE SUB DUP2 ADD SWAP1 PUSH3 0x5BF SWAP2 SWAP1 PUSH3 0x225E JUMP JUMPDEST PUSH3 0xFBB JUMP JUMPDEST STOP JUMPDEST CALLVALUE DUP1 ISZERO PUSH3 0x5D4 JUMPI PUSH1 0x0 DUP1 REVERT JUMPDEST POP PUSH3 0x5F3 PUSH1 0x4 DUP1 CALLDATASIZE SUB DUP2 ADD SWAP1 PUSH3 0x5ED SWAP2 SWAP1 PUSH3 0x225E JUMP JUMPDEST PUSH3 0x185C JUMP JUMPDEST STOP JUMPDEST CALLVALUE DUP1 ISZERO PUSH3 0x602 JUMPI PUSH1 0x0 DUP1 REVERT JUMPDEST POP PUSH3 0x621 PUSH1 0x4 DUP1 CALLDATASIZE SUB DUP2 ADD SWAP1 PUSH3 0x61B SWAP2 SWAP1 PUSH3 0x2290 JUMP JUMPDEST PUSH3 0x18E6 JUMP JUMPDEST STOP JUMPDEST PUSH1 0x4 PUSH1 0x0 SWAP1 SLOAD SWAP1 PUSH2 0x100 EXP SWAP1 DIV PUSH20 0xFFFFFFFFFFFFFFFFFFFFFFFFFFFFFFFFFFFFFFFF AND DUP2 JUMP JUMPDEST PUSH3 0x653 PUSH3 0x19FA JUMP JUMPDEST DUP2 PUSH20 0xFFFFFFFFFFFFFFFFFFFFFFFFFFFFFFFFFFFFFFFF AND PUSH4 0xA9059CBB CALLER DUP4 PUSH1 0x40 MLOAD DUP4 PUSH4 0xFFFFFFFF AND PUSH1 0xE0 SHL DUP2 MSTORE PUSH1 0x4 ADD PUSH3 0x690 SWAP3 SWAP2 SWAP1 PUSH3 0x23E7 JUMP JUMPDEST PUSH1 0x20 PUSH1 0x40 MLOAD DUP1 DUP4 SUB DUP2 PUSH1 0x0 DUP8 GAS CALL ISZERO DUP1 ISZERO PUSH3 0x6B0 JUMPI RETURNDATASIZE PUSH1 0x0 DUP1 RETURNDATACOPY RETURNDATASIZE PUSH1 0x0 REVERT JUMPDEST POP POP POP POP PUSH1 0x40 MLOAD RETURNDATASIZE PUSH1 0x1F NOT PUSH1 0x1F DUP3 ADD AND DUP3 ADD DUP1 PUSH1 0x40 MSTORE POP DUP2 ADD SWAP1 PUSH3 0x6D6 SWAP2 SWAP1 PUSH3 0x2451 JUMP JUMPDEST POP POP POP JUMP JUMPDEST PUSH1 0x0 PUSH1 0x9 SLOAD CALLVALUE LT ISZERO PUSH3 0x725 JUMPI PUSH1 0x40 MLOAD PUSH32 0x8C379A000000000000000000000000000000000000000000000000000000000 DUP2 MSTORE PUSH1 0x4 ADD PUSH3 0x71C SWAP1 PUSH3 0x24E4 JUMP JUMPDEST PUSH1 0x40 MLOAD DUP1 SWAP2 SUB SWAP1 REVERT JUMPDEST CALLVALUE PUSH1 0x8 PUSH1 0x0 DUP3 DUP3 SLOAD PUSH3 0x739 SWAP2 SWAP1 PUSH3 0x2535 JUMP JUMPDEST SWAP3 POP POP DUP2 SWAP1 SSTORE POP PUSH1 0x0 DUP4 DUP4 PUSH1 0x40 MLOAD PUSH3 0x752 SWAP1 PUSH3 0x1F12 JUMP JUMPDEST PUSH3 0x75F SWAP3 SWAP2 SWAP1 PUSH3 0x2614 JUMP JUMPDEST PUSH1 0x40 MLOAD DUP1 SWAP2 SUB SWAP1 PUSH1 0x0 CREATE DUP1 ISZERO DUP1 ISZERO PUSH3 0x77C JUMPI RETURNDATASIZE PUSH1 0x0 DUP1 RETURNDATACOPY RETURNDATASIZE PUSH1 0x0 REVERT JUMPDEST POP SWAP1 POP PUSH1 0x1 PUSH1 0x2 PUSH1 0x0 DUP4 PUSH20 0xFFFFFFFFFFFFFFFFFFFFFFFFFFFFFFFFFFFFFFFF AND PUSH20 0xFFFFFFFFFFFFFFFFFFFFFFFFFFFFFFFFFFFFFFFF AND DUP2 MSTORE PUSH1 0x20 ADD SWAP1 DUP2 MSTORE PUSH1 0x20 ADD PUSH1 0x0 KECCAK256 PUSH1 0x0 PUSH2 0x100 EXP DUP2 SLOAD DUP2 PUSH1 0xFF MUL NOT AND SWAP1 DUP4 PUSH1 0x2 DUP2 GT ISZERO PUSH3 0x7E5 JUMPI PUSH3 0x7E4 PUSH3 0x22C2 JUMP JUMPDEST JUMPDEST MUL OR SWAP1 SSTORE POP DUP1 PUSH20 0xFFFFFFFFFFFFFFFFFFFFFFFFFFFFFFFFFFFFFFFF AND PUSH32 0x1CEF2B4EC7F129E441C961EB4FAE22FD3131868DB6BE990C6F065F35B6B53CF3 TIMESTAMP PUSH1 0x40 MLOAD PUSH3 0x832 SWAP2 SWAP1 PUSH3 0x2241 JUMP JUMPDEST PUSH1 0x40 MLOAD DUP1 SWAP2 SUB SWAP1 LOG2 DUP1 SWAP2 POP POP SWAP3 SWAP2 POP POP JUMP JUMPDEST PUSH1 0x5 PUSH1 0x1 PUSH12 0x33B2E3C9FD0803CE8000000 PUSH3 0x861 SWAP2 SWAP1 PUSH3 0x264F JUMP JUMPDEST PUSH3 0x86D SWAP2 SWAP1 PUSH3 0x26DF JUMP JUMPDEST DUP2 JUMP JUMPDEST PUSH12 0x33B2E3C9FD0803CE8000000 DUP2 JUMP JUMPDEST PUSH9 0x56BC75E2D63100000 DUP2 JUMP JUMPDEST PUSH3 0x897 PUSH3 0x19FA JUMP JUMPDEST DUP1 PUSH1 0x6 PUSH1 0x0 PUSH2 0x100 EXP DUP2 SLOAD DUP2 PUSH20 0xFFFFFFFFFFFFFFFFFFFFFFFFFFFFFFFFFFFFFFFF MUL NOT AND SWAP1 DUP4 PUSH20 0xFFFFFFFFFFFFFFFFFFFFFFFFFFFFFFFFFFFFFFFF AND MUL OR SWAP1 SSTORE POP POP JUMP JUMPDEST PUSH6 0x5AF3107A4000 DUP2 JUMP JUMPDEST PUSH1 0x5 PUSH1 0x0 SWAP1 SLOAD SWAP1 PUSH2 0x100 EXP SWAP1 DIV PUSH20 0xFFFFFFFFFFFFFFFFFFFFFFFFFFFFFFFFFFFFFFFF AND DUP2 JUMP JUMPDEST PUSH3 0x915 PUSH3 0x1A7F JUMP JUMPDEST PUSH1 0x1 PUSH1 0x2 DUP2 GT ISZERO PUSH3 0x92C JUMPI PUSH3 0x92B PUSH3 0x22C2 JUMP JUMPDEST JUMPDEST PUSH1 0x2 PUSH1 0x0 DUP5 PUSH20 0xFFFFFFFFFFFFFFFFFFFFFFFFFFFFFFFFFFFFFFFF AND PUSH20 0xFFFFFFFFFFFFFFFFFFFFFFFFFFFFFFFFFFFFFFFF AND DUP2 MSTORE PUSH1 0x20 ADD SWAP1 DUP2 MSTORE PUSH1 0x20 ADD PUSH1 0x0 KECCAK256 PUSH1 0x0 SWAP1 SLOAD SWAP1 PUSH2 0x100 EXP SWAP1 DIV PUSH1 0xFF AND PUSH1 0x2 DUP2 GT ISZERO PUSH3 0x98E JUMPI PUSH3 0x98D PUSH3 0x22C2 JUMP JUMPDEST JUMPDEST EQ PUSH3 0x9D1 JUMPI PUSH1 0x40 MLOAD PUSH32 0x8C379A000000000000000000000000000000000000000000000000000000000 DUP2 MSTORE PUSH1 0x4 ADD PUSH3 0x9C8 SWAP1 PUSH3 0x2767 JUMP JUMPDEST PUSH1 0x40 MLOAD DUP1 SWAP2 SUB SWAP1 REVERT JUMPDEST PUSH1 0x0 DUP2 GT PUSH3 0xA17 JUMPI PUSH1 0x40 MLOAD PUSH32 0x8C379A000000000000000000000000000000000000000000000000000000000 DUP2 MSTORE PUSH1 0x4 ADD PUSH3 0xA0E SWAP1 PUSH3 0x27FF JUMP JUMPDEST PUSH1 0x40 MLOAD DUP1 SWAP2 SUB SWAP1 REVERT JUMPDEST PUSH1 0x0 DUP3 SWAP1 POP PUSH1 0x0 PUSH1 0x6 PUSH1 0x0 SWAP1 SLOAD SWAP1 PUSH2 0x100 EXP SWAP1 DIV PUSH20 0xFFFFFFFFFFFFFFFFFFFFFFFFFFFFFFFFFFFFFFFF AND PUSH20 0xFFFFFFFFFFFFFFFFFFFFFFFFFFFFFFFFFFFFFFFF AND PUSH4 0x901CE73E DUP4 PUSH20 0xFFFFFFFFFFFFFFFFFFFFFFFFFFFFFFFFFFFFFFFF AND PUSH4 0x18160DDD PUSH1 0x40 MLOAD DUP2 PUSH4 0xFFFFFFFF AND PUSH1 0xE0 SHL DUP2 MSTORE PUSH1 0x4 ADD PUSH1 0x20 PUSH1 0x40 MLOAD DUP1 DUP4 SUB DUP2 DUP7 GAS STATICCALL ISZERO DUP1 ISZERO PUSH3 0xAA8 JUMPI RETURNDATASIZE PUSH1 0x0 DUP1 RETURNDATACOPY RETURNDATASIZE PUSH1 0x0 REVERT JUMPDEST POP POP POP POP PUSH1 0x40 MLOAD RETURNDATASIZE PUSH1 0x1F NOT PUSH1 0x1F DUP3 ADD AND DUP3 ADD DUP1 PUSH1 0x40 MSTORE POP DUP2 ADD SWAP1 PUSH3 0xACE SWAP2 SWAP1 PUSH3 0x2838 JUMP JUMPDEST DUP6 PUSH1 0x40 MLOAD DUP4 PUSH4 0xFFFFFFFF AND PUSH1 0xE0 SHL DUP2 MSTORE PUSH1 0x4 ADD PUSH3 0xAEE SWAP3 SWAP2 SWAP1 PUSH3 0x286A JUMP JUMPDEST PUSH1 0x20 PUSH1 0x40 MLOAD DUP1 DUP4 SUB DUP2 DUP7 GAS STATICCALL ISZERO DUP1 ISZERO PUSH3 0xB0C JUMPI RETURNDATASIZE PUSH1 0x0 DUP1 RETURNDATACOPY RETURNDATASIZE PUSH1 0x0 REVERT JUMPDEST POP POP POP POP PUSH1 0x40 MLOAD RETURNDATASIZE PUSH1 0x1F NOT PUSH1 0x1F DUP3 ADD AND DUP3 ADD DUP1 PUSH1 0x40 MSTORE POP DUP2 ADD SWAP1 PUSH3 0xB32 SWAP2 SWAP1 PUSH3 0x2838 JUMP JUMPDEST SWAP1 POP PUSH1 0x0 PUSH3 0xB44 DUP3 PUSH1 0x7 SLOAD PUSH3 0x1AC6 JUMP JUMPDEST SWAP1 POP DUP1 DUP3 PUSH3 0xB54 SWAP2 SWAP1 PUSH3 0x2897 JUMP JUMPDEST SWAP2 POP DUP1 PUSH1 0x8 PUSH1 0x0 DUP3 DUP3 SLOAD PUSH3 0xB6A SWAP2 SWAP1 PUSH3 0x2535 JUMP JUMPDEST SWAP3 POP POP DUP2 SWAP1 SSTORE POP DUP3 PUSH20 0xFFFFFFFFFFFFFFFFFFFFFFFFFFFFFFFFFFFFFFFF AND PUSH4 0x9DC29FAC CALLER DUP7 PUSH1 0x40 MLOAD DUP4 PUSH4 0xFFFFFFFF AND PUSH1 0xE0 SHL DUP2 MSTORE PUSH1 0x4 ADD PUSH3 0xBAE SWAP3 SWAP2 SWAP1 PUSH3 0x23E7 JUMP JUMPDEST PUSH1 0x0 PUSH1 0x40 MLOAD DUP1 DUP4 SUB DUP2 PUSH1 0x0 DUP8 DUP1 EXTCODESIZE ISZERO DUP1 ISZERO PUSH3 0xBC9 JUMPI PUSH1 0x0 DUP1 REVERT JUMPDEST POP GAS CALL ISZERO DUP1 ISZERO PUSH3 0xBDE JUMPI RETURNDATASIZE PUSH1 0x0 DUP1 RETURNDATACOPY RETURNDATASIZE PUSH1 0x0 REVERT JUMPDEST POP POP POP POP DUP2 PUSH1 0x3 PUSH1 0x0 DUP8 PUSH20 0xFFFFFFFFFFFFFFFFFFFFFFFFFFFFFFFFFFFFFFFF AND PUSH20 0xFFFFFFFFFFFFFFFFFFFFFFFFFFFFFFFFFFFFFFFF AND DUP2 MSTORE PUSH1 0x20 ADD SWAP1 DUP2 MSTORE PUSH1 0x20 ADD PUSH1 0x0 KECCAK256 PUSH1 0x0 DUP3 DUP3 SLOAD PUSH3 0xC33 SWAP2 SWAP1 PUSH3 0x2897 JUMP JUMPDEST SWAP3 POP POP DUP2 SWAP1 SSTORE POP DUP5 PUSH20 0xFFFFFFFFFFFFFFFFFFFFFFFFFFFFFFFFFFFFFFFF AND PUSH32 0x846C37EEF631E0943682D87352EC117C20008EB7F425C9B85AC011A6D4774CC0 TIMESTAMP DUP5 DUP8 PUSH1 0x40 MLOAD PUSH3 0xC86 SWAP4 SWAP3 SWAP2 SWAP1 PUSH3 0x28D2 JUMP JUMPDEST PUSH1 0x40 MLOAD DUP1 SWAP2 SUB SWAP1 LOG2 PUSH1 0x0 CALLER PUSH20 0xFFFFFFFFFFFFFFFFFFFFFFFFFFFFFFFFFFFFFFFF AND DUP4 PUSH1 0x0 PUSH8 0xFFFFFFFFFFFFFFFF DUP2 GT ISZERO PUSH3 0xCC6 JUMPI PUSH3 0xCC5 PUSH3 0x2064 JUMP JUMPDEST JUMPDEST PUSH1 0x40 MLOAD SWAP1 DUP1 DUP3 MSTORE DUP1 PUSH1 0x1F ADD PUSH1 0x1F NOT AND PUSH1 0x20 ADD DUP3 ADD PUSH1 0x40 MSTORE DUP1 ISZERO PUSH3 0xCF9 JUMPI DUP2 PUSH1 0x20 ADD PUSH1 0x1 DUP3 MUL DUP1 CALLDATASIZE DUP4 CALLDATACOPY DUP1 DUP3 ADD SWAP2 POP POP SWAP1 POP JUMPDEST POP PUSH1 0x40 MLOAD PUSH3 0xD09 SWAP2 SWAP1 PUSH3 0x295C JUMP JUMPDEST PUSH1 0x0 PUSH1 0x40 MLOAD DUP1 DUP4 SUB DUP2 DUP6 DUP8 GAS CALL SWAP3 POP POP POP RETURNDATASIZE DUP1 PUSH1 0x0 DUP2 EQ PUSH3 0xD48 JUMPI PUSH1 0x40 MLOAD SWAP2 POP PUSH1 0x1F NOT PUSH1 0x3F RETURNDATASIZE ADD AND DUP3 ADD PUSH1 0x40 MSTORE RETURNDATASIZE DUP3 MSTORE RETURNDATASIZE PUSH1 0x0 PUSH1 0x20 DUP5 ADD RETURNDATACOPY PUSH3 0xD4D JUMP JUMPDEST PUSH1 0x60 SWAP2 POP JUMPDEST POP POP SWAP1 POP DUP1 PUSH3 0xD94 JUMPI PUSH1 0x40 MLOAD PUSH32 0x8C379A000000000000000000000000000000000000000000000000000000000 DUP2 MSTORE PUSH1 0x4 ADD PUSH3 0xD8B SWAP1 PUSH3 0x29C5 JUMP JUMPDEST PUSH1 0x40 MLOAD DUP1 SWAP2 SUB SWAP1 REVERT JUMPDEST POP POP POP POP PUSH3 0xDA2 PUSH3 0x1AED JUMP JUMPDEST POP POP JUMP JUMPDEST PUSH3 0xDB0 PUSH3 0x19FA JUMP JUMPDEST PUSH3 0xDBC PUSH1 0x0 PUSH3 0x1AF7 JUMP JUMPDEST JUMP JUMPDEST PUSH1 0x9 SLOAD DUP2 JUMP JUMPDEST PUSH3 0xDCE PUSH3 0x19FA JUMP JUMPDEST DUP1 PUSH1 0x7 DUP2 SWAP1 SSTORE POP POP JUMP JUMPDEST PUSH1 0x7 SLOAD DUP2 JUMP JUMPDEST PUSH1 0x0 PUSH1 0x1 PUSH1 0x0 SWAP1 SLOAD SWAP1 PUSH2 0x100 EXP SWAP1 DIV PUSH20 0xFFFFFFFFFFFFFFFFFFFFFFFFFFFFFFFFFFFFFFFF AND SWAP1 POP SWAP1 JUMP JUMPDEST PUSH3 0xE12 PUSH3 0x19FA JUMP JUMPDEST PUSH1 0x0 CALLER PUSH20 0xFFFFFFFFFFFFFFFFFFFFFFFFFFFFFFFFFFFFFFFF AND PUSH1 0x8 SLOAD PUSH1 0x0 PUSH8 0xFFFFFFFFFFFFFFFF DUP2 GT ISZERO PUSH3 0xE4C JUMPI PUSH3 0xE4B PUSH3 0x2064 JUMP JUMPDEST JUMPDEST PUSH1 0x40 MLOAD SWAP1 DUP1 DUP3 MSTORE DUP1 PUSH1 0x1F ADD PUSH1 0x1F NOT AND PUSH1 0x20 ADD DUP3 ADD PUSH1 0x40 MSTORE DUP1 ISZERO PUSH3 0xE7F JUMPI DUP2 PUSH1 0x20 ADD PUSH1 0x1 DUP3 MUL DUP1 CALLDATASIZE DUP4 CALLDATACOPY DUP1 DUP3 ADD SWAP2 POP POP SWAP1 POP JUMPDEST POP PUSH1 0x40 MLOAD PUSH3 0xE8F SWAP2 SWAP1 PUSH3 0x295C JUMP JUMPDEST PUSH1 0x0 PUSH1 0x40 MLOAD DUP1 DUP4 SUB DUP2 DUP6 DUP8 GAS CALL SWAP3 POP POP POP RETURNDATASIZE DUP1 PUSH1 0x0 DUP2 EQ PUSH3 0xECE JUMPI PUSH1 0x40 MLOAD SWAP2 POP PUSH1 0x1F NOT PUSH1 0x3F RETURNDATASIZE ADD AND DUP3 ADD PUSH1 0x40 MSTORE RETURNDATASIZE DUP3 MSTORE RETURNDATASIZE PUSH1 0x0 PUSH1 0x20 DUP5 ADD RETURNDATACOPY PUSH3 0xED3 JUMP JUMPDEST PUSH1 0x60 SWAP2 POP JUMPDEST POP POP SWAP1 POP DUP1 PUSH3 0xF1A JUMPI PUSH1 0x40 MLOAD PUSH32 0x8C379A000000000000000000000000000000000000000000000000000000000 DUP2 MSTORE PUSH1 0x4 ADD PUSH3 0xF11 SWAP1 PUSH3 0x29C5 JUMP JUMPDEST PUSH1 0x40 MLOAD DUP1 SWAP2 SUB SWAP1 REVERT JUMPDEST PUSH1 0x0 PUSH1 0x8 DUP2 SWAP1 SSTORE POP POP JUMP JUMPDEST PUSH1 0x3 PUSH1 0x20 MSTORE DUP1 PUSH1 0x0 MSTORE PUSH1 0x40 PUSH1 0x0 KECCAK256 PUSH1 0x0 SWAP2 POP SWAP1 POP SLOAD DUP2 JUMP JUMPDEST PUSH1 0x5 PUSH1 0x4 PUSH12 0x33B2E3C9FD0803CE8000000 PUSH3 0xF5A SWAP2 SWAP1 PUSH3 0x264F JUMP JUMPDEST PUSH3 0xF66 SWAP2 SWAP1 PUSH3 0x26DF JUMP JUMPDEST DUP2 JUMP JUMPDEST PUSH2 0x2710 DUP2 JUMP JUMPDEST PUSH1 0x8 SLOAD DUP2 JUMP JUMPDEST PUSH1 0x2 PUSH1 0x20 MSTORE DUP1 PUSH1 0x0 MSTORE PUSH1 0x40 PUSH1 0x0 KECCAK256 PUSH1 0x0 SWAP2 POP SLOAD SWAP1 PUSH2 0x100 EXP SWAP1 DIV PUSH1 0xFF AND DUP2 JUMP JUMPDEST PUSH1 0x6 PUSH1 0x0 SWAP1 SLOAD SWAP1 PUSH2 0x100 EXP SWAP1 DIV PUSH20 0xFFFFFFFFFFFFFFFFFFFFFFFFFFFFFFFFFFFFFFFF AND DUP2 JUMP JUMPDEST PUSH3 0xFC5 PUSH3 0x1A7F JUMP JUMPDEST PUSH1 0x1 PUSH1 0x2 DUP2 GT ISZERO PUSH3 0xFDC JUMPI PUSH3 0xFDB PUSH3 0x22C2 JUMP JUMPDEST JUMPDEST PUSH1 0x2 PUSH1 0x0 DUP4 PUSH20 0xFFFFFFFFFFFFFFFFFFFFFFFFFFFFFFFFFFFFFFFF AND PUSH20 0xFFFFFFFFFFFFFFFFFFFFFFFFFFFFFFFFFFFFFFFF AND DUP2 MSTORE PUSH1 0x20 ADD SWAP1 DUP2 MSTORE PUSH1 0x20 ADD PUSH1 0x0 KECCAK256 PUSH1 0x0 SWAP1 SLOAD SWAP1 PUSH2 0x100 EXP SWAP1 DIV PUSH1 0xFF AND PUSH1 0x2 DUP2 GT ISZERO PUSH3 0x103E JUMPI PUSH3 0x103D PUSH3 0x22C2 JUMP JUMPDEST JUMPDEST EQ PUSH3 0x1081 JUMPI PUSH1 0x40 MLOAD PUSH32 0x8C379A000000000000000000000000000000000000000000000000000000000 DUP2 MSTORE PUSH1 0x4 ADD PUSH3 0x1078 SWAP1 PUSH3 0x2A37 JUMP JUMPDEST PUSH1 0x40 MLOAD DUP1 SWAP2 SUB SWAP1 REVERT JUMPDEST PUSH1 0x0 CALLVALUE GT PUSH3 0x10C7 JUMPI PUSH1 0x40 MLOAD PUSH32 0x8C379A000000000000000000000000000000000000000000000000000000000 DUP2 MSTORE PUSH1 0x4 ADD PUSH3 0x10BE SWAP1 PUSH3 0x2AA9 JUMP JUMPDEST PUSH1 0x40 MLOAD DUP1 SWAP2 SUB SWAP1 REVERT JUMPDEST PUSH1 0x0 CALLVALUE SWAP1 POP PUSH1 0x0 DUP1 PUSH1 0x3 PUSH1 0x0 DUP6 PUSH20 0xFFFFFFFFFFFFFFFFFFFFFFFFFFFFFFFFFFFFFFFF AND PUSH20 0xFFFFFFFFFFFFFFFFFFFFFFFFFFFFFFFFFFFFFFFF AND DUP2 MSTORE PUSH1 0x20 ADD SWAP1 DUP2 MSTORE PUSH1 0x20 ADD PUSH1 0x0 KECCAK256 SLOAD SWAP1 POP PUSH1 0x0 DUP2 PUSH9 0x56BC75E2D63100000 PUSH3 0x112A SWAP2 SWAP1 PUSH3 0x2897 JUMP JUMPDEST SWAP1 POP PUSH1 0x0 PUSH1 0x7 SLOAD PUSH2 0x2710 PUSH3 0x1140 SWAP2 SWAP1 PUSH3 0x2535 JUMP JUMPDEST PUSH2 0x2710 DUP7 PUSH3 0x1150 SWAP2 SWAP1 PUSH3 0x264F JUMP JUMPDEST PUSH3 0x115C SWAP2 SWAP1 PUSH3 0x26DF JUMP JUMPDEST SWAP1 POP DUP2 DUP2 GT ISZERO PUSH3 0x116B JUMPI DUP2 SWAP1 POP JUMPDEST PUSH1 0x0 PUSH3 0x117B DUP3 PUSH1 0x7 SLOAD PUSH3 0x1AC6 JUMP JUMPDEST SWAP1 POP PUSH1 0x0 DUP2 DUP4 PUSH3 0x118D SWAP2 SWAP1 PUSH3 0x2535 JUMP JUMPDEST SWAP1 POP DUP1 DUP8 GT PUSH3 0x119F JUMPI PUSH1 0x0 PUSH3 0x11AE JUMP JUMPDEST DUP1 DUP8 PUSH3 0x11AD SWAP2 SWAP1 PUSH3 0x2897 JUMP JUMPDEST JUMPDEST SWAP6 POP DUP2 PUSH1 0x8 PUSH1 0x0 DUP3 DUP3 SLOAD PUSH3 0x11C4 SWAP2 SWAP1 PUSH3 0x2535 JUMP JUMPDEST SWAP3 POP POP DUP2 SWAP1 SSTORE POP PUSH1 0x0 DUP9 SWAP1 POP PUSH1 0x0 PUSH1 0x6 PUSH1 0x0 SWAP1 SLOAD SWAP1 PUSH2 0x100 EXP SWAP1 DIV PUSH20 0xFFFFFFFFFFFFFFFFFFFFFFFFFFFFFFFFFFFFFFFF AND PUSH20 0xFFFFFFFFFFFFFFFFFFFFFFFFFFFFFFFFFFFFFFFF AND PUSH4 0x7CABB7CF DUP4 PUSH20 0xFFFFFFFFFFFFFFFFFFFFFFFFFFFFFFFFFFFFFFFF AND PUSH4 0x18160DDD PUSH1 0x40 MLOAD DUP2 PUSH4 0xFFFFFFFF AND PUSH1 0xE0 SHL DUP2 MSTORE PUSH1 0x4 ADD PUSH1 0x20 PUSH1 0x40 MLOAD DUP1 DUP4 SUB DUP2 DUP7 GAS STATICCALL ISZERO DUP1 ISZERO PUSH3 0x125C JUMPI RETURNDATASIZE PUSH1 0x0 DUP1 RETURNDATACOPY RETURNDATASIZE PUSH1 0x0 REVERT JUMPDEST POP POP POP POP PUSH1 0x40 MLOAD RETURNDATASIZE PUSH1 0x1F NOT PUSH1 0x1F DUP3 ADD AND DUP3 ADD DUP1 PUSH1 0x40 MSTORE POP DUP2 ADD SWAP1 PUSH3 0x1282 SWAP2 SWAP1 PUSH3 0x2838 JUMP JUMPDEST DUP8 PUSH1 0x40 MLOAD DUP4 PUSH4 0xFFFFFFFF AND PUSH1 0xE0 SHL DUP2 MSTORE PUSH1 0x4 ADD PUSH3 0x12A2 SWAP3 SWAP2 SWAP1 PUSH3 0x286A JUMP JUMPDEST PUSH1 0x20 PUSH1 0x40 MLOAD DUP1 DUP4 SUB DUP2 DUP7 GAS STATICCALL ISZERO DUP1 ISZERO PUSH3 0x12C0 JUMPI RETURNDATASIZE PUSH1 0x0 DUP1 RETURNDATACOPY RETURNDATASIZE PUSH1 0x0 REVERT JUMPDEST POP POP POP POP PUSH1 0x40 MLOAD RETURNDATASIZE PUSH1 0x1F NOT PUSH1 0x1F DUP3 ADD AND DUP3 ADD DUP1 PUSH1 0x40 MSTORE POP DUP2 ADD SWAP1 PUSH3 0x12E6 SWAP2 SWAP1 PUSH3 0x2838 JUMP JUMPDEST SWAP1 POP PUSH1 0x0 DUP3 PUSH20 0xFFFFFFFFFFFFFFFFFFFFFFFFFFFFFFFFFFFFFFFF AND PUSH4 0x18160DDD PUSH1 0x40 MLOAD DUP2 PUSH4 0xFFFFFFFF AND PUSH1 0xE0 SHL DUP2 MSTORE PUSH1 0x4 ADD PUSH1 0x20 PUSH1 0x40 MLOAD DUP1 DUP4 SUB DUP2 DUP7 GAS STATICCALL ISZERO DUP1 ISZERO PUSH3 0x1336 JUMPI RETURNDATASIZE PUSH1 0x0 DUP1 RETURNDATACOPY RETURNDATASIZE PUSH1 0x0 REVERT JUMPDEST POP POP POP POP PUSH1 0x40 MLOAD RETURNDATASIZE PUSH1 0x1F NOT PUSH1 0x1F DUP3 ADD AND DUP3 ADD DUP1 PUSH1 0x40 MSTORE POP DUP2 ADD SWAP1 PUSH3 0x135C SWAP2 SWAP1 PUSH3 0x2838 JUMP JUMPDEST PUSH1 0x5 PUSH1 0x4 PUSH12 0x33B2E3C9FD0803CE8000000 PUSH3 0x1379 SWAP2 SWAP1 PUSH3 0x264F JUMP JUMPDEST PUSH3 0x1385 SWAP2 SWAP1 PUSH3 0x26DF JUMP JUMPDEST PUSH3 0x1391 SWAP2 SWAP1 PUSH3 0x2897 JUMP JUMPDEST SWAP1 POP DUP1 DUP3 GT ISZERO PUSH3 0x13D9 JUMPI PUSH1 0x40 MLOAD PUSH32 0x8C379A000000000000000000000000000000000000000000000000000000000 DUP2 MSTORE PUSH1 0x4 ADD PUSH3 0x13D0 SWAP1 PUSH3 0x2B1B JUMP JUMPDEST PUSH1 0x40 MLOAD DUP1 SWAP2 SUB SWAP1 REVERT JUMPDEST DUP6 DUP9 PUSH3 0x13E7 SWAP2 SWAP1 PUSH3 0x2535 JUMP JUMPDEST SWAP8 POP DUP3 PUSH20 0xFFFFFFFFFFFFFFFFFFFFFFFFFFFFFFFFFFFFFFFF AND PUSH4 0x40C10F19 CALLER DUP5 PUSH1 0x40 MLOAD DUP4 PUSH4 0xFFFFFFFF AND PUSH1 0xE0 SHL DUP2 MSTORE PUSH1 0x4 ADD PUSH3 0x1426 SWAP3 SWAP2 SWAP1 PUSH3 0x23E7 JUMP JUMPDEST PUSH1 0x0 PUSH1 0x40 MLOAD DUP1 DUP4 SUB DUP2 PUSH1 0x0 DUP8 DUP1 EXTCODESIZE ISZERO DUP1 ISZERO PUSH3 0x1441 JUMPI PUSH1 0x0 DUP1 REVERT JUMPDEST POP GAS CALL ISZERO DUP1 ISZERO PUSH3 0x1456 JUMPI RETURNDATASIZE PUSH1 0x0 DUP1 RETURNDATACOPY RETURNDATASIZE PUSH1 0x0 REVERT JUMPDEST POP POP POP POP DUP11 PUSH20 0xFFFFFFFFFFFFFFFFFFFFFFFFFFFFFFFFFFFFFFFF AND PUSH32 0xBEAE048C6D270D9469F86CF6E8FEDDA3C60AD770F16C24C9FC131C8E9A09101D TIMESTAMP DUP9 DUP6 PUSH1 0x40 MLOAD PUSH3 0x14A6 SWAP4 SWAP3 SWAP2 SWAP1 PUSH3 0x28D2 JUMP JUMPDEST PUSH1 0x40 MLOAD DUP1 SWAP2 SUB SWAP1 LOG2 PUSH9 0x56BC75E2D63100000 PUSH6 0x5AF3107A4000 DUP10 PUSH3 0x14CC SWAP2 SWAP1 PUSH3 0x2535 JUMP JUMPDEST LT PUSH3 0x16E2 JUMPI DUP3 PUSH20 0xFFFFFFFFFFFFFFFFFFFFFFFFFFFFFFFFFFFFFFFF AND PUSH4 0x40C10F19 ADDRESS DUP6 PUSH20 0xFFFFFFFFFFFFFFFFFFFFFFFFFFFFFFFFFFFFFFFF AND PUSH4 0x18160DDD PUSH1 0x40 MLOAD DUP2 PUSH4 0xFFFFFFFF AND PUSH1 0xE0 SHL DUP2 MSTORE PUSH1 0x4 ADD PUSH1 0x20 PUSH1 0x40 MLOAD DUP1 DUP4 SUB DUP2 DUP7 GAS STATICCALL ISZERO DUP1 ISZERO PUSH3 0x153B JUMPI RETURNDATASIZE PUSH1 0x0 DUP1 RETURNDATACOPY RETURNDATASIZE PUSH1 0x0 REVERT JUMPDEST POP POP POP POP PUSH1 0x40 MLOAD RETURNDATASIZE PUSH1 0x1F NOT PUSH1 0x1F DUP3 ADD AND DUP3 ADD DUP1 PUSH1 0x40 MSTORE POP DUP2 ADD SWAP1 PUSH3 0x1561 SWAP2 SWAP1 PUSH3 0x2838 JUMP JUMPDEST PUSH12 0x33B2E3C9FD0803CE8000000 PUSH3 0x157A SWAP2 SWAP1 PUSH3 0x2897 JUMP JUMPDEST PUSH1 0x40 MLOAD DUP4 PUSH4 0xFFFFFFFF AND PUSH1 0xE0 SHL DUP2 MSTORE PUSH1 0x4 ADD PUSH3 0x1599 SWAP3 SWAP2 SWAP1 PUSH3 0x23E7 JUMP JUMPDEST PUSH1 0x0 PUSH1 0x40 MLOAD DUP1 DUP4 SUB DUP2 PUSH1 0x0 DUP8 DUP1 EXTCODESIZE ISZERO DUP1 ISZERO PUSH3 0x15B4 JUMPI PUSH1 0x0 DUP1 REVERT JUMPDEST POP GAS CALL ISZERO DUP1 ISZERO PUSH3 0x15C9 JUMPI RETURNDATASIZE PUSH1 0x0 DUP1 RETURNDATACOPY RETURNDATASIZE PUSH1 0x0 REVERT JUMPDEST POP POP POP POP PUSH1 0x0 PUSH3 0x15DA DUP13 PUSH3 0x1BBD JUMP JUMPDEST SWAP1 POP PUSH1 0x0 PUSH3 0x1613 DUP14 PUSH1 0x5 PUSH1 0x1 PUSH12 0x33B2E3C9FD0803CE8000000 PUSH3 0x1600 SWAP2 SWAP1 PUSH3 0x264F JUMP JUMPDEST PUSH3 0x160C SWAP2 SWAP1 PUSH3 0x26DF JUMP JUMPDEST DUP13 PUSH3 0x1D0F JUMP JUMPDEST SWAP1 POP PUSH3 0x1621 DUP3 DUP3 PUSH3 0x1E81 JUMP JUMPDEST PUSH1 0x0 SWAP10 POP PUSH1 0x2 DUP1 PUSH1 0x0 DUP16 PUSH20 0xFFFFFFFFFFFFFFFFFFFFFFFFFFFFFFFFFFFFFFFF AND PUSH20 0xFFFFFFFFFFFFFFFFFFFFFFFFFFFFFFFFFFFFFFFF AND DUP2 MSTORE PUSH1 0x20 ADD SWAP1 DUP2 MSTORE PUSH1 0x20 ADD PUSH1 0x0 KECCAK256 PUSH1 0x0 PUSH2 0x100 EXP DUP2 SLOAD DUP2 PUSH1 0xFF MUL NOT AND SWAP1 DUP4 PUSH1 0x2 DUP2 GT ISZERO PUSH3 0x168A JUMPI PUSH3 0x1689 PUSH3 0x22C2 JUMP JUMPDEST JUMPDEST MUL OR SWAP1 SSTORE POP DUP13 PUSH20 0xFFFFFFFFFFFFFFFFFFFFFFFFFFFFFFFFFFFFFFFF AND PUSH32 0x7B7FE75B1149A5DFDDE15EA794C36563367C5CD459178393D63E169D50BE1782 TIMESTAMP PUSH1 0x40 MLOAD PUSH3 0x16D7 SWAP2 SWAP1 PUSH3 0x2241 JUMP JUMPDEST PUSH1 0x40 MLOAD DUP1 SWAP2 SUB SWAP1 LOG2 POP POP JUMPDEST DUP8 PUSH1 0x3 PUSH1 0x0 DUP14 PUSH20 0xFFFFFFFFFFFFFFFFFFFFFFFFFFFFFFFFFFFFFFFF AND PUSH20 0xFFFFFFFFFFFFFFFFFFFFFFFFFFFFFFFFFFFFFFFF AND DUP2 MSTORE PUSH1 0x20 ADD SWAP1 DUP2 MSTORE PUSH1 0x20 ADD PUSH1 0x0 KECCAK256 DUP2 SWAP1 SSTORE POP PUSH1 0x0 DUP10 GT ISZERO PUSH3 0x1845 JUMPI PUSH1 0x0 CALLER PUSH20 0xFFFFFFFFFFFFFFFFFFFFFFFFFFFFFFFFFFFFFFFF AND DUP12 CALLVALUE PUSH3 0x1757 SWAP2 SWAP1 PUSH3 0x2897 JUMP JUMPDEST PUSH1 0x0 PUSH8 0xFFFFFFFFFFFFFFFF DUP2 GT ISZERO PUSH3 0x1775 JUMPI PUSH3 0x1774 PUSH3 0x2064 JUMP JUMPDEST JUMPDEST PUSH1 0x40 MLOAD SWAP1 DUP1 DUP3 MSTORE DUP1 PUSH1 0x1F ADD PUSH1 0x1F NOT AND PUSH1 0x20 ADD DUP3 ADD PUSH1 0x40 MSTORE DUP1 ISZERO PUSH3 0x17A8 JUMPI DUP2 PUSH1 0x20 ADD PUSH1 0x1 DUP3 MUL DUP1 CALLDATASIZE DUP4 CALLDATACOPY DUP1 DUP3 ADD SWAP2 POP POP SWAP1 POP JUMPDEST POP PUSH1 0x40 MLOAD PUSH3 0x17B8 SWAP2 SWAP1 PUSH3 0x295C JUMP JUMPDEST PUSH1 0x0 PUSH1 0x40 MLOAD DUP1 DUP4 SUB DUP2 DUP6 DUP8 GAS CALL SWAP3 POP POP POP RETURNDATASIZE DUP1 PUSH1 0x0 DUP2 EQ PUSH3 0x17F7 JUMPI PUSH1 0x40 MLOAD SWAP2 POP PUSH1 0x1F NOT PUSH1 0x3F RETURNDATASIZE ADD AND DUP3 ADD PUSH1 0x40 MSTORE RETURNDATASIZE DUP3 MSTORE RETURNDATASIZE PUSH1 0x0 PUSH1 0x20 DUP5 ADD RETURNDATACOPY PUSH3 0x17FC JUMP JUMPDEST PUSH1 0x60 SWAP2 POP JUMPDEST POP POP SWAP1 POP DUP1 PUSH3 0x1843 JUMPI PUSH1 0x40 MLOAD PUSH32 0x8C379A000000000000000000000000000000000000000000000000000000000 DUP2 MSTORE PUSH1 0x4 ADD PUSH3 0x183A SWAP1 PUSH3 0x29C5 JUMP JUMPDEST PUSH1 0x40 MLOAD DUP1 SWAP2 SUB SWAP1 REVERT JUMPDEST POP JUMPDEST POP POP POP POP POP POP POP POP POP POP PUSH3 0x1859 PUSH3 0x1AED JUMP JUMPDEST POP JUMP JUMPDEST PUSH3 0x1866 PUSH3 0x19FA JUMP JUMPDEST PUSH1 0x0 PUSH20 0xFFFFFFFFFFFFFFFFFFFFFFFFFFFFFFFFFFFFFFFF AND DUP2 PUSH20 0xFFFFFFFFFFFFFFFFFFFFFFFFFFFFFFFFFFFFFFFF AND SUB PUSH3 0x18D8 JUMPI PUSH1 0x40 MLOAD PUSH32 0x8C379A000000000000000000000000000000000000000000000000000000000 DUP2 MSTORE PUSH1 0x4 ADD PUSH3 0x18CF SWAP1 PUSH3 0x2BB3 JUMP JUMPDEST PUSH1 0x40 MLOAD DUP1 SWAP2 SUB SWAP1 REVERT JUMPDEST PUSH3 0x18E3 DUP2 PUSH3 0x1AF7 JUMP JUMPDEST POP JUMP JUMPDEST PUSH3 0x18F0 PUSH3 0x19FA JUMP JUMPDEST PUSH1 0x0 CALLER PUSH20 0xFFFFFFFFFFFFFFFFFFFFFFFFFFFFFFFFFFFFFFFF AND DUP3 PUSH1 0x0 PUSH8 0xFFFFFFFFFFFFFFFF DUP2 GT ISZERO PUSH3 0x1928 JUMPI PUSH3 0x1927 PUSH3 0x2064 JUMP JUMPDEST JUMPDEST PUSH1 0x40 MLOAD SWAP1 DUP1 DUP3 MSTORE DUP1 PUSH1 0x1F ADD PUSH1 0x1F NOT AND PUSH1 0x20 ADD DUP3 ADD PUSH1 0x40 MSTORE DUP1 ISZERO PUSH3 0x195B JUMPI DUP2 PUSH1 0x20 ADD PUSH1 0x1 DUP3 MUL DUP1 CALLDATASIZE DUP4 CALLDATACOPY DUP1 DUP3 ADD SWAP2 POP POP SWAP1 POP JUMPDEST POP PUSH1 0x40 MLOAD PUSH3 0x196B SWAP2 SWAP1 PUSH3 0x295C JUMP JUMPDEST PUSH1 0x0 PUSH1 0x40 MLOAD DUP1 DUP4 SUB DUP2 DUP6 DUP8 GAS CALL SWAP3 POP POP POP RETURNDATASIZE DUP1 PUSH1 0x0 DUP2 EQ PUSH3 0x19AA JUMPI PUSH1 0x40 MLOAD SWAP2 POP PUSH1 0x1F NOT PUSH1 0x3F RETURNDATASIZE ADD AND DUP3 ADD PUSH1 0x40 MSTORE RETURNDATASIZE DUP3 MSTORE RETURNDATASIZE PUSH1 0x0 PUSH1 0x20 DUP5 ADD RETURNDATACOPY PUSH3 0x19AF JUMP JUMPDEST PUSH1 0x60 SWAP2 POP JUMPDEST POP POP SWAP1 POP DUP1 PUSH3 0x19F6 JUMPI PUSH1 0x40 MLOAD PUSH32 0x8C379A000000000000000000000000000000000000000000000000000000000 DUP2 MSTORE PUSH1 0x4 ADD PUSH3 0x19ED SWAP1 PUSH3 0x29C5 JUMP JUMPDEST PUSH1 0x40 MLOAD DUP1 SWAP2 SUB SWAP1 REVERT JUMPDEST POP POP JUMP JUMPDEST PUSH3 0x1A04 PUSH3 0x1F0A JUMP JUMPDEST PUSH20 0xFFFFFFFFFFFFFFFFFFFFFFFFFFFFFFFFFFFFFFFF AND PUSH3 0x1A24 PUSH3 0xDDE JUMP JUMPDEST PUSH20 0xFFFFFFFFFFFFFFFFFFFFFFFFFFFFFFFFFFFFFFFF AND EQ PUSH3 0x1A7D JUMPI PUSH1 0x40 MLOAD PUSH32 0x8C379A000000000000000000000000000000000000000000000000000000000 DUP2 MSTORE PUSH1 0x4 ADD PUSH3 0x1A74 SWAP1 PUSH3 0x2C25 JUMP JUMPDEST PUSH1 0x40 MLOAD DUP1 SWAP2 SUB SWAP1 REVERT JUMPDEST JUMP JUMPDEST PUSH1 0x2 PUSH1 0x0 SLOAD SUB PUSH3 0x1ABC JUMPI PUSH1 0x40 MLOAD PUSH32 0x3EE5AEB500000000000000000000000000000000000000000000000000000000 DUP2 MSTORE PUSH1 0x4 ADD PUSH1 0x40 MLOAD DUP1 SWAP2 SUB SWAP1 REVERT JUMPDEST PUSH1 0x2 PUSH1 0x0 DUP2 SWAP1 SSTORE POP JUMP JUMPDEST PUSH1 0x0 PUSH2 0x2710 DUP3 DUP5 PUSH3 0x1AD9 SWAP2 SWAP1 PUSH3 0x264F JUMP JUMPDEST PUSH3 0x1AE5 SWAP2 SWAP1 PUSH3 0x26DF JUMP JUMPDEST SWAP1 POP SWAP3 SWAP2 POP POP JUMP JUMPDEST PUSH1 0x1 PUSH1 0x0 DUP2 SWAP1 SSTORE POP JUMP JUMPDEST PUSH1 0x0 PUSH1 0x1 PUSH1 0x0 SWAP1 SLOAD SWAP1 PUSH2 0x100 EXP SWAP1 DIV PUSH20 0xFFFFFFFFFFFFFFFFFFFFFFFFFFFFFFFFFFFFFFFF AND SWAP1 POP DUP2 PUSH1 0x1 PUSH1 0x0 PUSH2 0x100 EXP DUP2 SLOAD DUP2 PUSH20 0xFFFFFFFFFFFFFFFFFFFFFFFFFFFFFFFFFFFFFFFF MUL NOT AND SWAP1 DUP4 PUSH20 0xFFFFFFFFFFFFFFFFFFFFFFFFFFFFFFFFFFFFFFFF AND MUL OR SWAP1 SSTORE POP DUP2 PUSH20 0xFFFFFFFFFFFFFFFFFFFFFFFFFFFFFFFFFFFFFFFF AND DUP2 PUSH20 0xFFFFFFFFFFFFFFFFFFFFFFFFFFFFFFFFFFFFFFFF AND PUSH32 0x8BE0079C531659141344CD1FD0A4F28419497F9722A3DAAFE3B4186F6B6457E0 PUSH1 0x40 MLOAD PUSH1 0x40 MLOAD DUP1 SWAP2 SUB SWAP1 LOG3 POP POP JUMP JUMPDEST PUSH1 0x0 DUP1 PUSH1 0x5 PUSH1 0x0 SWAP1 SLOAD SWAP1 PUSH2 0x100 EXP SWAP1 DIV PUSH20 0xFFFFFFFFFFFFFFFFFFFFFFFFFFFFFFFFFFFFFFFF AND SWAP1 POP PUSH1 0x0 PUSH1 0x4 PUSH1 0x0 SWAP1 SLOAD SWAP1 PUSH2 0x100 EXP SWAP1 DIV PUSH20 0xFFFFFFFFFFFFFFFFFFFFFFFFFFFFFFFFFFFFFFFF AND SWAP1 POP PUSH1 0x0 DUP3 PUSH20 0xFFFFFFFFFFFFFFFFFFFFFFFFFFFFFFFFFFFFFFFF AND PUSH4 0xC9C65396 DUP7 DUP5 PUSH20 0xFFFFFFFFFFFFFFFFFFFFFFFFFFFFFFFFFFFFFFFF AND PUSH4 0xAD5C4648 PUSH1 0x40 MLOAD DUP2 PUSH4 0xFFFFFFFF AND PUSH1 0xE0 SHL DUP2 MSTORE PUSH1 0x4 ADD PUSH1 0x20 PUSH1 0x40 MLOAD DUP1 DUP4 SUB DUP2 DUP7 GAS STATICCALL ISZERO DUP1 ISZERO PUSH3 0x1C77 JUMPI RETURNDATASIZE PUSH1 0x0 DUP1 RETURNDATACOPY RETURNDATASIZE PUSH1 0x0 REVERT JUMPDEST POP POP POP POP PUSH1 0x40 MLOAD RETURNDATASIZE PUSH1 0x1F NOT PUSH1 0x1F DUP3 ADD AND DUP3 ADD DUP1 PUSH1 0x40 MSTORE POP DUP2 ADD SWAP1 PUSH3 0x1C9D SWAP2 SWAP1 PUSH3 0x2C5E JUMP JUMPDEST PUSH1 0x40 MLOAD DUP4 PUSH4 0xFFFFFFFF AND PUSH1 0xE0 SHL DUP2 MSTORE PUSH1 0x4 ADD PUSH3 0x1CBC SWAP3 SWAP2 SWAP1 PUSH3 0x2C90 JUMP JUMPDEST PUSH1 0x20 PUSH1 0x40 MLOAD DUP1 DUP4 SUB DUP2 PUSH1 0x0 DUP8 GAS CALL ISZERO DUP1 ISZERO PUSH3 0x1CDC JUMPI RETURNDATASIZE PUSH1 0x0 DUP1 RETURNDATACOPY RETURNDATASIZE PUSH1 0x0 REVERT JUMPDEST POP POP POP POP PUSH1 0x40 MLOAD RETURNDATASIZE PUSH1 0x1F NOT PUSH1 0x1F DUP3 ADD AND DUP3 ADD DUP1 PUSH1 0x40 MSTORE POP DUP2 ADD SWAP1 PUSH3 0x1D02 SWAP2 SWAP1 PUSH3 0x2C5E JUMP JUMPDEST SWAP1 POP DUP1 SWAP4 POP POP POP POP SWAP2 SWAP1 POP JUMP JUMPDEST PUSH1 0x0 DUP1 DUP5 SWAP1 POP PUSH1 0x0 PUSH1 0x4 PUSH1 0x0 SWAP1 SLOAD SWAP1 PUSH2 0x100 EXP SWAP1 DIV PUSH20 0xFFFFFFFFFFFFFFFFFFFFFFFFFFFFFFFFFFFFFFFF AND SWAP1 POP DUP2 PUSH20 0xFFFFFFFFFFFFFFFFFFFFFFFFFFFFFFFFFFFFFFFF AND PUSH4 0x95EA7B3 PUSH1 0x4 PUSH1 0x0 SWAP1 SLOAD SWAP1 PUSH2 0x100 EXP SWAP1 DIV PUSH20 0xFFFFFFFFFFFFFFFFFFFFFFFFFFFFFFFFFFFFFFFF AND DUP8 PUSH1 0x40 MLOAD DUP4 PUSH4 0xFFFFFFFF AND PUSH1 0xE0 SHL DUP2 MSTORE PUSH1 0x4 ADD PUSH3 0x1D9B SWAP3 SWAP2 SWAP1 PUSH3 0x23E7 JUMP JUMPDEST PUSH1 0x20 PUSH1 0x40 MLOAD DUP1 DUP4 SUB DUP2 PUSH1 0x0 DUP8 GAS CALL ISZERO DUP1 ISZERO PUSH3 0x1DBB JUMPI RETURNDATASIZE PUSH1 0x0 DUP1 RETURNDATACOPY RETURNDATASIZE PUSH1 0x0 REVERT JUMPDEST POP POP POP POP PUSH1 0x40 MLOAD RETURNDATASIZE PUSH1 0x1F NOT PUSH1 0x1F DUP3 ADD AND DUP3 ADD DUP1 PUSH1 0x40 MSTORE POP DUP2 ADD SWAP1 PUSH3 0x1DE1 SWAP2 SWAP1 PUSH3 0x2451 JUMP JUMPDEST POP PUSH1 0x0 DUP2 PUSH20 0xFFFFFFFFFFFFFFFFFFFFFFFFFFFFFFFFFFFFFFFF AND PUSH4 0xF305D719 DUP7 DUP10 DUP10 DUP11 DUP11 ADDRESS TIMESTAMP PUSH1 0x40 MLOAD DUP9 PUSH4 0xFFFFFFFF AND PUSH1 0xE0 SHL DUP2 MSTORE PUSH1 0x4 ADD PUSH3 0x1E2A SWAP7 SWAP6 SWAP5 SWAP4 SWAP3 SWAP2 SWAP1 PUSH3 0x2CBD JUMP JUMPDEST PUSH1 0x60 PUSH1 0x40 MLOAD DUP1 DUP4 SUB DUP2 DUP6 DUP9 GAS CALL ISZERO DUP1 ISZERO PUSH3 0x1E49 JUMPI RETURNDATASIZE PUSH1 0x0 DUP1 RETURNDATACOPY RETURNDATASIZE PUSH1 0x0 REVERT JUMPDEST POP POP POP POP POP PUSH1 0x40 MLOAD RETURNDATASIZE PUSH1 0x1F NOT PUSH1 0x1F DUP3 ADD AND DUP3 ADD DUP1 PUSH1 0x40 MSTORE POP DUP2 ADD SWAP1 PUSH3 0x1E70 SWAP2 SWAP1 PUSH3 0x2D2A JUMP JUMPDEST SWAP3 POP POP POP DUP1 SWAP4 POP POP POP POP SWAP4 SWAP3 POP POP POP JUMP JUMPDEST DUP2 PUSH20 0xFFFFFFFFFFFFFFFFFFFFFFFFFFFFFFFFFFFFFFFF AND PUSH4 0xA9059CBB PUSH1 0x0 DUP4 PUSH1 0x40 MLOAD DUP4 PUSH4 0xFFFFFFFF AND PUSH1 0xE0 SHL DUP2 MSTORE PUSH1 0x4 ADD PUSH3 0x1EBF SWAP3 SWAP2 SWAP1 PUSH3 0x23E7 JUMP JUMPDEST PUSH1 0x20 PUSH1 0x40 MLOAD DUP1 DUP4 SUB DUP2 PUSH1 0x0 DUP8 GAS CALL ISZERO DUP1 ISZERO PUSH3 0x1EDF JUMPI RETURNDATASIZE PUSH1 0x0 DUP1 RETURNDATACOPY RETURNDATASIZE PUSH1 0x0 REVERT JUMPDEST POP POP POP POP PUSH1 0x40 MLOAD RETURNDATASIZE PUSH1 0x1F NOT PUSH1 0x1F DUP3 ADD AND DUP3 ADD DUP1 PUSH1 0x40 MSTORE POP DUP2 ADD SWAP1 PUSH3 0x1F05 SWAP2 SWAP1 PUSH3 0x2451 JUMP JUMPDEST POP POP POP JUMP JUMPDEST PUSH1 0x0 CALLER SWAP1 POP SWAP1 JUMP JUMPDEST PUSH2 0x2045 DUP1 PUSH3 0x2D87 DUP4 CODECOPY ADD SWAP1 JUMP JUMPDEST PUSH1 0x0 PUSH20 0xFFFFFFFFFFFFFFFFFFFFFFFFFFFFFFFFFFFFFFFF DUP3 AND SWAP1 POP SWAP2 SWAP1 POP JUMP JUMPDEST PUSH1 0x0 PUSH3 0x1F4D DUP3 PUSH3 0x1F20 JUMP JUMPDEST SWAP1 POP SWAP2 SWAP1 POP JUMP JUMPDEST PUSH3 0x1F5F DUP2 PUSH3 0x1F40 JUMP JUMPDEST DUP3 MSTORE POP POP JUMP JUMPDEST PUSH1 0x0 PUSH1 0x20 DUP3 ADD SWAP1 POP PUSH3 0x1F7C PUSH1 0x0 DUP4 ADD DUP5 PUSH3 0x1F54 JUMP JUMPDEST SWAP3 SWAP2 POP POP JUMP JUMPDEST PUSH1 0x0 PUSH1 0x40 MLOAD SWAP1 POP SWAP1 JUMP JUMPDEST PUSH1 0x0 DUP1 REVERT JUMPDEST PUSH1 0x0 DUP1 REVERT JUMPDEST PUSH3 0x1FA1 DUP2 PUSH3 0x1F40 JUMP JUMPDEST DUP2 EQ PUSH3 0x1FAD JUMPI PUSH1 0x0 DUP1 REVERT JUMPDEST POP JUMP JUMPDEST PUSH1 0x0 DUP2 CALLDATALOAD SWAP1 POP PUSH3 0x1FC1 DUP2 PUSH3 0x1F96 JUMP JUMPDEST SWAP3 SWAP2 POP POP JUMP JUMPDEST PUSH1 0x0 DUP2 SWAP1 POP SWAP2 SWAP1 POP JUMP JUMPDEST PUSH3 0x1FDC DUP2 PUSH3 0x1FC7 JUMP JUMPDEST DUP2 EQ PUSH3 0x1FE8 JUMPI PUSH1 0x0 DUP1 REVERT JUMPDEST POP JUMP JUMPDEST PUSH1 0x0 DUP2 CALLDATALOAD SWAP1 POP PUSH3 0x1FFC DUP2 PUSH3 0x1FD1 JUMP JUMPDEST SWAP3 SWAP2 POP POP JUMP JUMPDEST PUSH1 0x0 DUP1 PUSH1 0x40 DUP4 DUP6 SUB SLT ISZERO PUSH3 0x201C JUMPI PUSH3 0x201B PUSH3 0x1F8C JUMP JUMPDEST JUMPDEST PUSH1 0x0 PUSH3 0x202C DUP6 DUP3 DUP7 ADD PUSH3 0x1FB0 JUMP JUMPDEST SWAP3 POP POP PUSH1 0x20 PUSH3 0x203F DUP6 DUP3 DUP7 ADD PUSH3 0x1FEB JUMP JUMPDEST SWAP2 POP POP SWAP3 POP SWAP3 SWAP1 POP JUMP JUMPDEST PUSH1 0x0 DUP1 REVERT JUMPDEST PUSH1 0x0 DUP1 REVERT JUMPDEST PUSH1 0x0 PUSH1 0x1F NOT PUSH1 0x1F DUP4 ADD AND SWAP1 POP SWAP2 SWAP1 POP JUMP JUMPDEST PUSH32 0x4E487B7100000000000000000000000000000000000000000000000000000000 PUSH1 0x0 MSTORE PUSH1 0x41 PUSH1 0x4 MSTORE PUSH1 0x24 PUSH1 0x0 REVERT JUMPDEST PUSH3 0x209E DUP3 PUSH3 0x2053 JUMP JUMPDEST DUP2 ADD DUP2 DUP2 LT PUSH8 0xFFFFFFFFFFFFFFFF DUP3 GT OR ISZERO PUSH3 0x20C0 JUMPI PUSH3 0x20BF PUSH3 0x2064 JUMP JUMPDEST JUMPDEST DUP1 PUSH1 0x40 MSTORE POP POP POP JUMP JUMPDEST PUSH1 0x0 PUSH3 0x20D5 PUSH3 0x1F82 JUMP JUMPDEST SWAP1 POP PUSH3 0x20E3 DUP3 DUP3 PUSH3 0x2093 JUMP JUMPDEST SWAP2 SWAP1 POP JUMP JUMPDEST PUSH1 0x0 PUSH8 0xFFFFFFFFFFFFFFFF DUP3 GT ISZERO PUSH3 0x2106 JUMPI PUSH3 0x2105 PUSH3 0x2064 JUMP JUMPDEST JUMPDEST PUSH3 0x2111 DUP3 PUSH3 0x2053 JUMP JUMPDEST SWAP1 POP PUSH1 0x20 DUP2 ADD SWAP1 POP SWAP2 SWAP1 POP JUMP JUMPDEST DUP3 DUP2 DUP4 CALLDATACOPY PUSH1 0x0 DUP4 DUP4 ADD MSTORE POP POP POP JUMP JUMPDEST PUSH1 0x0 PUSH3 0x2144 PUSH3 0x213E DUP5 PUSH3 0x20E8 JUMP JUMPDEST PUSH3 0x20C9 JUMP JUMPDEST SWAP1 POP DUP3 DUP2 MSTORE PUSH1 0x20 DUP2 ADD DUP5 DUP5 DUP5 ADD GT ISZERO PUSH3 0x2163 JUMPI PUSH3 0x2162 PUSH3 0x204E JUMP JUMPDEST JUMPDEST PUSH3 0x2170 DUP5 DUP3 DUP6 PUSH3 0x211E JUMP JUMPDEST POP SWAP4 SWAP3 POP POP POP JUMP JUMPDEST PUSH1 0x0 DUP3 PUSH1 0x1F DUP4 ADD SLT PUSH3 0x2190 JUMPI PUSH3 0x218F PUSH3 0x2049 JUMP JUMPDEST JUMPDEST DUP2 CALLDATALOAD PUSH3 0x21A2 DUP5 DUP3 PUSH1 0x20 DUP7 ADD PUSH3 0x212D JUMP JUMPDEST SWAP2 POP POP SWAP3 SWAP2 POP POP JUMP JUMPDEST PUSH1 0x0 DUP1 PUSH1 0x40 DUP4 DUP6 SUB SLT ISZERO PUSH3 0x21C5 JUMPI PUSH3 0x21C4 PUSH3 0x1F8C JUMP JUMPDEST JUMPDEST PUSH1 0x0 DUP4 ADD CALLDATALOAD PUSH8 0xFFFFFFFFFFFFFFFF DUP2 GT ISZERO PUSH3 0x21E6 JUMPI PUSH3 0x21E5 PUSH3 0x1F91 JUMP JUMPDEST JUMPDEST PUSH3 0x21F4 DUP6 DUP3 DUP7 ADD PUSH3 0x2178 JUMP JUMPDEST SWAP3 POP POP PUSH1 0x20 DUP4 ADD CALLDATALOAD PUSH8 0xFFFFFFFFFFFFFFFF DUP2 GT ISZERO PUSH3 0x2218 JUMPI PUSH3 0x2217 PUSH3 0x1F91 JUMP JUMPDEST JUMPDEST PUSH3 0x2226 DUP6 DUP3 DUP7 ADD PUSH3 0x2178 JUMP JUMPDEST SWAP2 POP POP SWAP3 POP SWAP3 SWAP1 POP JUMP JUMPDEST PUSH3 0x223B DUP2 PUSH3 0x1FC7 JUMP JUMPDEST DUP3 MSTORE POP POP JUMP JUMPDEST PUSH1 0x0 PUSH1 0x20 DUP3 ADD SWAP1 POP PUSH3 0x2258 PUSH1 0x0 DUP4 ADD DUP5 PUSH3 0x2230 JUMP JUMPDEST SWAP3 SWAP2 POP POP JUMP JUMPDEST PUSH1 0x0 PUSH1 0x20 DUP3 DUP5 SUB SLT ISZERO PUSH3 0x2277 JUMPI PUSH3 0x2276 PUSH3 0x1F8C JUMP JUMPDEST JUMPDEST PUSH1 0x0 PUSH3 0x2287 DUP5 DUP3 DUP6 ADD PUSH3 0x1FB0 JUMP JUMPDEST SWAP2 POP POP SWAP3 SWAP2 POP POP JUMP JUMPDEST PUSH1 0x0 PUSH1 0x20 DUP3 DUP5 SUB SLT ISZERO PUSH3 0x22A9 JUMPI PUSH3 0x22A8 PUSH3 0x1F8C JUMP JUMPDEST JUMPDEST PUSH1 0x0 PUSH3 0x22B9 DUP5 DUP3 DUP6 ADD PUSH3 0x1FEB JUMP JUMPDEST SWAP2 POP POP SWAP3 SWAP2 POP POP JUMP JUMPDEST PUSH32 0x4E487B7100000000000000000000000000000000000000000000000000000000 PUSH1 0x0 MSTORE PUSH1 0x21 PUSH1 0x4 MSTORE PUSH1 0x24 PUSH1 0x0 REVERT JUMPDEST PUSH1 0x3 DUP2 LT PUSH3 0x2305 JUMPI PUSH3 0x2304 PUSH3 0x22C2 JUMP JUMPDEST JUMPDEST POP JUMP JUMPDEST PUSH1 0x0 DUP2 SWAP1 POP PUSH3 0x2318 DUP3 PUSH3 0x22F1 JUMP JUMPDEST SWAP2 SWAP1 POP JUMP JUMPDEST PUSH1 0x0 PUSH3 0x232A DUP3 PUSH3 0x2308 JUMP JUMPDEST SWAP1 POP SWAP2 SWAP1 POP JUMP JUMPDEST PUSH3 0x233C DUP2 PUSH3 0x231D JUMP JUMPDEST DUP3 MSTORE POP POP JUMP JUMPDEST PUSH1 0x0 PUSH1 0x20 DUP3 ADD SWAP1 POP PUSH3 0x2359 PUSH1 0x0 DUP4 ADD DUP5 PUSH3 0x2331 JUMP JUMPDEST SWAP3 SWAP2 POP POP JUMP JUMPDEST PUSH1 0x0 DUP2 SWAP1 POP SWAP2 SWAP1 POP JUMP JUMPDEST PUSH1 0x0 PUSH3 0x238A PUSH3 0x2384 PUSH3 0x237E DUP5 PUSH3 0x1F20 JUMP JUMPDEST PUSH3 0x235F JUMP JUMPDEST PUSH3 0x1F20 JUMP JUMPDEST SWAP1 POP SWAP2 SWAP1 POP JUMP JUMPDEST PUSH1 0x0 PUSH3 0x239E DUP3 PUSH3 0x2369 JUMP JUMPDEST SWAP1 POP SWAP2 SWAP1 POP JUMP JUMPDEST PUSH1 0x0 PUSH3 0x23B2 DUP3 PUSH3 0x2391 JUMP JUMPDEST SWAP1 POP SWAP2 SWAP1 POP JUMP JUMPDEST PUSH3 0x23C4 DUP2 PUSH3 0x23A5 JUMP JUMPDEST DUP3 MSTORE POP POP JUMP JUMPDEST PUSH1 0x0 PUSH1 0x20 DUP3 ADD SWAP1 POP PUSH3 0x23E1 PUSH1 0x0 DUP4 ADD DUP5 PUSH3 0x23B9 JUMP JUMPDEST SWAP3 SWAP2 POP POP JUMP JUMPDEST PUSH1 0x0 PUSH1 0x40 DUP3 ADD SWAP1 POP PUSH3 0x23FE PUSH1 0x0 DUP4 ADD DUP6 PUSH3 0x1F54 JUMP JUMPDEST PUSH3 0x240D PUSH1 0x20 DUP4 ADD DUP5 PUSH3 0x2230 JUMP JUMPDEST SWAP4 SWAP3 POP POP POP JUMP JUMPDEST PUSH1 0x0 DUP2 ISZERO ISZERO SWAP1 POP SWAP2 SWAP1 POP JUMP JUMPDEST PUSH3 0x242B DUP2 PUSH3 0x2414 JUMP JUMPDEST DUP2 EQ PUSH3 0x2437 JUMPI PUSH1 0x0 DUP1 REVERT JUMPDEST POP JUMP JUMPDEST PUSH1 0x0 DUP2 MLOAD SWAP1 POP PUSH3 0x244B DUP2 PUSH3 0x2420 JUMP JUMPDEST SWAP3 SWAP2 POP POP JUMP JUMPDEST PUSH1 0x0 PUSH1 0x20 DUP3 DUP5 SUB SLT ISZERO PUSH3 0x246A JUMPI PUSH3 0x2469 PUSH3 0x1F8C JUMP JUMPDEST JUMPDEST PUSH1 0x0 PUSH3 0x247A DUP5 DUP3 DUP6 ADD PUSH3 0x243A JUMP JUMPDEST SWAP2 POP POP SWAP3 SWAP2 POP POP JUMP JUMPDEST PUSH1 0x0 DUP3 DUP3 MSTORE PUSH1 0x20 DUP3 ADD SWAP1 POP SWAP3 SWAP2 POP POP JUMP JUMPDEST PUSH32 0x6372656174696F6E2066656573206E6F74207061696400000000000000000000 PUSH1 0x0 DUP3 ADD MSTORE POP JUMP JUMPDEST PUSH1 0x0 PUSH3 0x24CC PUSH1 0x16 DUP4 PUSH3 0x2483 JUMP JUMPDEST SWAP2 POP PUSH3 0x24D9 DUP3 PUSH3 0x2494 JUMP JUMPDEST PUSH1 0x20 DUP3 ADD SWAP1 POP SWAP2 SWAP1 POP JUMP JUMPDEST PUSH1 0x0 PUSH1 0x20 DUP3 ADD SWAP1 POP DUP2 DUP2 SUB PUSH1 0x0 DUP4 ADD MSTORE PUSH3 0x24FF DUP2 PUSH3 0x24BD JUMP JUMPDEST SWAP1 POP SWAP2 SWAP1 POP JUMP JUMPDEST PUSH32 0x4E487B7100000000000000000000000000000000000000000000000000000000 PUSH1 0x0 MSTORE PUSH1 0x11 PUSH1 0x4 MSTORE PUSH1 0x24 PUSH1 0x0 REVERT JUMPDEST PUSH1 0x0 PUSH3 0x2542 DUP3 PUSH3 0x1FC7 JUMP JUMPDEST SWAP2 POP PUSH3 0x254F DUP4 PUSH3 0x1FC7 JUMP JUMPDEST SWAP3 POP DUP3 PUSH32 0xFFFFFFFFFFFFFFFFFFFFFFFFFFFFFFFFFFFFFFFFFFFFFFFFFFFFFFFFFFFFFFFF SUB DUP3 GT ISZERO PUSH3 0x2587 JUMPI PUSH3 0x2586 PUSH3 0x2506 JUMP JUMPDEST JUMPDEST DUP3 DUP3 ADD SWAP1 POP SWAP3 SWAP2 POP POP JUMP JUMPDEST PUSH1 0x0 DUP2 MLOAD SWAP1 POP SWAP2 SWAP1 POP JUMP JUMPDEST PUSH1 0x0 JUMPDEST DUP4 DUP2 LT ISZERO PUSH3 0x25BD JUMPI DUP1 DUP3 ADD MLOAD DUP2 DUP5 ADD MSTORE PUSH1 0x20 DUP2 ADD SWAP1 POP PUSH3 0x25A0 JUMP JUMPDEST DUP4 DUP2 GT ISZERO PUSH3 0x25CD JUMPI PUSH1 0x0 DUP5 DUP5 ADD MSTORE JUMPDEST POP POP POP POP JUMP JUMPDEST PUSH1 0x0 PUSH3 0x25E0 DUP3 PUSH3 0x2592 JUMP JUMPDEST PUSH3 0x25EC DUP2 DUP6 PUSH3 0x2483 JUMP JUMPDEST SWAP4 POP PUSH3 0x25FE DUP2 DUP6 PUSH1 0x20 DUP7 ADD PUSH3 0x259D JUMP JUMPDEST PUSH3 0x2609 DUP2 PUSH3 0x2053 JUMP JUMPDEST DUP5 ADD SWAP2 POP POP SWAP3 SWAP2 POP POP JUMP JUMPDEST PUSH1 0x0 PUSH1 0x40 DUP3 ADD SWAP1 POP DUP2 DUP2 SUB PUSH1 0x0 DUP4 ADD MSTORE PUSH3 0x2630 DUP2 DUP6 PUSH3 0x25D3 JUMP JUMPDEST SWAP1 POP DUP2 DUP2 SUB PUSH1 0x20 DUP4 ADD MSTORE PUSH3 0x2646 DUP2 DUP5 PUSH3 0x25D3 JUMP JUMPDEST SWAP1 POP SWAP4 SWAP3 POP POP POP JUMP JUMPDEST PUSH1 0x0 PUSH3 0x265C DUP3 PUSH3 0x1FC7 JUMP JUMPDEST SWAP2 POP PUSH3 0x2669 DUP4 PUSH3 0x1FC7 JUMP JUMPDEST SWAP3 POP DUP2 PUSH32 0xFFFFFFFFFFFFFFFFFFFFFFFFFFFFFFFFFFFFFFFFFFFFFFFFFFFFFFFFFFFFFFFF DIV DUP4 GT DUP3 ISZERO ISZERO AND ISZERO PUSH3 0x26A5 JUMPI PUSH3 0x26A4 PUSH3 0x2506 JUMP JUMPDEST JUMPDEST DUP3 DUP3 MUL SWAP1 POP SWAP3 SWAP2 POP POP JUMP JUMPDEST PUSH32 0x4E487B7100000000000000000000000000000000000000000000000000000000 PUSH1 0x0 MSTORE PUSH1 0x12 PUSH1 0x4 MSTORE PUSH1 0x24 PUSH1 0x0 REVERT JUMPDEST PUSH1 0x0 PUSH3 0x26EC DUP3 PUSH3 0x1FC7 JUMP JUMPDEST SWAP2 POP PUSH3 0x26F9 DUP4 PUSH3 0x1FC7 JUMP JUMPDEST SWAP3 POP DUP3 PUSH3 0x270C JUMPI PUSH3 0x270B PUSH3 0x26B0 JUMP JUMPDEST JUMPDEST DUP3 DUP3 DIV SWAP1 POP SWAP3 SWAP2 POP POP JUMP JUMPDEST PUSH32 0x546F6B656E206973206E6F742066756E64696E67000000000000000000000000 PUSH1 0x0 DUP3 ADD MSTORE POP JUMP JUMPDEST PUSH1 0x0 PUSH3 0x274F PUSH1 0x14 DUP4 PUSH3 0x2483 JUMP JUMPDEST SWAP2 POP PUSH3 0x275C DUP3 PUSH3 0x2717 JUMP JUMPDEST PUSH1 0x20 DUP3 ADD SWAP1 POP SWAP2 SWAP1 POP JUMP JUMPDEST PUSH1 0x0 PUSH1 0x20 DUP3 ADD SWAP1 POP DUP2 DUP2 SUB PUSH1 0x0 DUP4 ADD MSTORE PUSH3 0x2782 DUP2 PUSH3 0x2740 JUMP JUMPDEST SWAP1 POP SWAP2 SWAP1 POP JUMP JUMPDEST PUSH32 0x416D6F756E742073686F756C642062652067726561746572207468616E207A65 PUSH1 0x0 DUP3 ADD MSTORE PUSH32 0x726F000000000000000000000000000000000000000000000000000000000000 PUSH1 0x20 DUP3 ADD MSTORE POP JUMP JUMPDEST PUSH1 0x0 PUSH3 0x27E7 PUSH1 0x22 DUP4 PUSH3 0x2483 JUMP JUMPDEST SWAP2 POP PUSH3 0x27F4 DUP3 PUSH3 0x2789 JUMP JUMPDEST PUSH1 0x40 DUP3 ADD SWAP1 POP SWAP2 SWAP1 POP JUMP JUMPDEST PUSH1 0x0 PUSH1 0x20 DUP3 ADD SWAP1 POP DUP2 DUP2 SUB PUSH1 0x0 DUP4 ADD MSTORE PUSH3 0x281A DUP2 PUSH3 0x27D8 JUMP JUMPDEST SWAP1 POP SWAP2 SWAP1 POP JUMP JUMPDEST PUSH1 0x0 DUP2 MLOAD SWAP1 POP PUSH3 0x2832 DUP2 PUSH3 0x1FD1 JUMP JUMPDEST SWAP3 SWAP2 POP POP JUMP JUMPDEST PUSH1 0x0 PUSH1 0x20 DUP3 DUP5 SUB SLT ISZERO PUSH3 0x2851 JUMPI PUSH3 0x2850 PUSH3 0x1F8C JUMP JUMPDEST JUMPDEST PUSH1 0x0 PUSH3 0x2861 DUP5 DUP3 DUP6 ADD PUSH3 0x2821 JUMP JUMPDEST SWAP2 POP POP SWAP3 SWAP2 POP POP JUMP JUMPDEST PUSH1 0x0 PUSH1 0x40 DUP3 ADD SWAP1 POP PUSH3 0x2881 PUSH1 0x0 DUP4 ADD DUP6 PUSH3 0x2230 JUMP JUMPDEST PUSH3 0x2890 PUSH1 0x20 DUP4 ADD DUP5 PUSH3 0x2230 JUMP JUMPDEST SWAP4 SWAP3 POP POP POP JUMP JUMPDEST PUSH1 0x0 PUSH3 0x28A4 DUP3 PUSH3 0x1FC7 JUMP JUMPDEST SWAP2 POP PUSH3 0x28B1 DUP4 PUSH3 0x1FC7 JUMP JUMPDEST SWAP3 POP DUP3 DUP3 LT ISZERO PUSH3 0x28C7 JUMPI PUSH3 0x28C6 PUSH3 0x2506 JUMP JUMPDEST JUMPDEST DUP3 DUP3 SUB SWAP1 POP SWAP3 SWAP2 POP POP JUMP JUMPDEST PUSH1 0x0 PUSH1 0x60 DUP3 ADD SWAP1 POP PUSH3 0x28E9 PUSH1 0x0 DUP4 ADD DUP7 PUSH3 0x2230 JUMP JUMPDEST PUSH3 0x28F8 PUSH1 0x20 DUP4 ADD DUP6 PUSH3 0x2230 JUMP JUMPDEST PUSH3 0x2907 PUSH1 0x40 DUP4 ADD DUP5 PUSH3 0x2230 JUMP JUMPDEST SWAP5 SWAP4 POP POP POP POP JUMP JUMPDEST PUSH1 0x0 DUP2 MLOAD SWAP1 POP SWAP2 SWAP1 POP JUMP JUMPDEST PUSH1 0x0 DUP2 SWAP1 POP SWAP3 SWAP2 POP POP JUMP JUMPDEST PUSH1 0x0 PUSH3 0x2932 DUP3 PUSH3 0x290F JUMP JUMPDEST PUSH3 0x293E DUP2 DUP6 PUSH3 0x291A JUMP JUMPDEST SWAP4 POP PUSH3 0x2950 DUP2 DUP6 PUSH1 0x20 DUP7 ADD PUSH3 0x259D JUMP JUMPDEST DUP1 DUP5 ADD SWAP2 POP POP SWAP3 SWAP2 POP POP JUMP JUMPDEST PUSH1 0x0 PUSH3 0x296A DUP3 DUP5 PUSH3 0x2925 JUMP JUMPDEST SWAP2 POP DUP2 SWAP1 POP SWAP3 SWAP2 POP POP JUMP JUMPDEST PUSH32 0x4554482073656E64206661696C65640000000000000000000000000000000000 PUSH1 0x0 DUP3 ADD MSTORE POP JUMP JUMPDEST PUSH1 0x0 PUSH3 0x29AD PUSH1 0xF DUP4 PUSH3 0x2483 JUMP JUMPDEST SWAP2 POP PUSH3 0x29BA DUP3 PUSH3 0x2975 JUMP JUMPDEST PUSH1 0x20 DUP3 ADD SWAP1 POP SWAP2 SWAP1 POP JUMP JUMPDEST PUSH1 0x0 PUSH1 0x20 DUP3 ADD SWAP1 POP DUP2 DUP2 SUB PUSH1 0x0 DUP4 ADD MSTORE PUSH3 0x29E0 DUP2 PUSH3 0x299E JUMP JUMPDEST SWAP1 POP SWAP2 SWAP1 POP JUMP JUMPDEST PUSH32 0x546F6B656E206E6F7420666F756E640000000000000000000000000000000000 PUSH1 0x0 DUP3 ADD MSTORE POP JUMP JUMPDEST PUSH1 0x0 PUSH3 0x2A1F PUSH1 0xF DUP4 PUSH3 0x2483 JUMP JUMPDEST SWAP2 POP PUSH3 0x2A2C DUP3 PUSH3 0x29E7 JUMP JUMPDEST PUSH1 0x20 DUP3 ADD SWAP1 POP SWAP2 SWAP1 POP JUMP JUMPDEST PUSH1 0x0 PUSH1 0x20 DUP3 ADD SWAP1 POP DUP2 DUP2 SUB PUSH1 0x0 DUP4 ADD MSTORE PUSH3 0x2A52 DUP2 PUSH3 0x2A10 JUMP JUMPDEST SWAP1 POP SWAP2 SWAP1 POP JUMP JUMPDEST PUSH32 0x455448206E6F7420656E6F756768000000000000000000000000000000000000 PUSH1 0x0 DUP3 ADD MSTORE POP JUMP JUMPDEST PUSH1 0x0 PUSH3 0x2A91 PUSH1 0xE DUP4 PUSH3 0x2483 JUMP JUMPDEST SWAP2 POP PUSH3 0x2A9E DUP3 PUSH3 0x2A59 JUMP JUMPDEST PUSH1 0x20 DUP3 ADD SWAP1 POP SWAP2 SWAP1 POP JUMP JUMPDEST PUSH1 0x0 PUSH1 0x20 DUP3 ADD SWAP1 POP DUP2 DUP2 SUB PUSH1 0x0 DUP4 ADD MSTORE PUSH3 0x2AC4 DUP2 PUSH3 0x2A82 JUMP JUMPDEST SWAP1 POP SWAP2 SWAP1 POP JUMP JUMPDEST PUSH32 0x546F6B656E20737570706C79206E6F7420656E6F756768000000000000000000 PUSH1 0x0 DUP3 ADD MSTORE POP JUMP JUMPDEST PUSH1 0x0 PUSH3 0x2B03 PUSH1 0x17 DUP4 PUSH3 0x2483 JUMP JUMPDEST SWAP2 POP PUSH3 0x2B10 DUP3 PUSH3 0x2ACB JUMP JUMPDEST PUSH1 0x20 DUP3 ADD SWAP1 POP SWAP2 SWAP1 POP JUMP JUMPDEST PUSH1 0x0 PUSH1 0x20 DUP3 ADD SWAP1 POP DUP2 DUP2 SUB PUSH1 0x0 DUP4 ADD MSTORE PUSH3 0x2B36 DUP2 PUSH3 0x2AF4 JUMP JUMPDEST SWAP1 POP SWAP2 SWAP1 POP JUMP JUMPDEST PUSH32 0x4F776E61626C653A206E6577206F776E657220697320746865207A65726F2061 PUSH1 0x0 DUP3 ADD MSTORE PUSH32 0x6464726573730000000000000000000000000000000000000000000000000000 PUSH1 0x20 DUP3 ADD MSTORE POP JUMP JUMPDEST PUSH1 0x0 PUSH3 0x2B9B PUSH1 0x26 DUP4 PUSH3 0x2483 JUMP JUMPDEST SWAP2 POP PUSH3 0x2BA8 DUP3 PUSH3 0x2B3D JUMP JUMPDEST PUSH1 0x40 DUP3 ADD SWAP1 POP SWAP2 SWAP1 POP JUMP JUMPDEST PUSH1 0x0 PUSH1 0x20 DUP3 ADD SWAP1 POP DUP2 DUP2 SUB PUSH1 0x0 DUP4 ADD MSTORE PUSH3 0x2BCE DUP2 PUSH3 0x2B8C JUMP JUMPDEST SWAP1 POP SWAP2 SWAP1 POP JUMP JUMPDEST PUSH32 0x4F776E61626C653A2063616C6C6572206973206E6F7420746865206F776E6572 PUSH1 0x0 DUP3 ADD MSTORE POP JUMP JUMPDEST PUSH1 0x0 PUSH3 0x2C0D PUSH1 0x20 DUP4 PUSH3 0x2483 JUMP JUMPDEST SWAP2 POP PUSH3 0x2C1A DUP3 PUSH3 0x2BD5 JUMP JUMPDEST PUSH1 0x20 DUP3 ADD SWAP1 POP SWAP2 SWAP1 POP JUMP JUMPDEST PUSH1 0x0 PUSH1 0x20 DUP3 ADD SWAP1 POP DUP2 DUP2 SUB PUSH1 0x0 DUP4 ADD MSTORE PUSH3 0x2C40 DUP2 PUSH3 0x2BFE JUMP JUMPDEST SWAP1 POP SWAP2 SWAP1 POP JUMP JUMPDEST PUSH1 0x0 DUP2 MLOAD SWAP1 POP PUSH3 0x2C58 DUP2 PUSH3 0x1F96 JUMP JUMPDEST SWAP3 SWAP2 POP POP JUMP JUMPDEST PUSH1 0x0 PUSH1 0x20 DUP3 DUP5 SUB SLT ISZERO PUSH3 0x2C77 JUMPI PUSH3 0x2C76 PUSH3 0x1F8C JUMP JUMPDEST JUMPDEST PUSH1 0x0 PUSH3 0x2C87 DUP5 DUP3 DUP6 ADD PUSH3 0x2C47 JUMP JUMPDEST SWAP2 POP POP SWAP3 SWAP2 POP POP JUMP JUMPDEST PUSH1 0x0 PUSH1 0x40 DUP3 ADD SWAP1 POP PUSH3 0x2CA7 PUSH1 0x0 DUP4 ADD DUP6 PUSH3 0x1F54 JUMP JUMPDEST PUSH3 0x2CB6 PUSH1 0x20 DUP4 ADD DUP5 PUSH3 0x1F54 JUMP JUMPDEST SWAP4 SWAP3 POP POP POP JUMP JUMPDEST PUSH1 0x0 PUSH1 0xC0 DUP3 ADD SWAP1 POP PUSH3 0x2CD4 PUSH1 0x0 DUP4 ADD DUP10 PUSH3 0x1F54 JUMP JUMPDEST PUSH3 0x2CE3 PUSH1 0x20 DUP4 ADD DUP9 PUSH3 0x2230 JUMP JUMPDEST PUSH3 0x2CF2 PUSH1 0x40 DUP4 ADD DUP8 PUSH3 0x2230 JUMP JUMPDEST PUSH3 0x2D01 PUSH1 0x60 DUP4 ADD DUP7 PUSH3 0x2230 JUMP JUMPDEST PUSH3 0x2D10 PUSH1 0x80 DUP4 ADD DUP6 PUSH3 0x1F54 JUMP JUMPDEST PUSH3 0x2D1F PUSH1 0xA0 DUP4 ADD DUP5 PUSH3 0x2230 JUMP JUMPDEST SWAP8 SWAP7 POP POP POP POP POP POP POP JUMP JUMPDEST PUSH1 0x0 DUP1 PUSH1 0x0 PUSH1 0x60 DUP5 DUP7 SUB SLT ISZERO PUSH3 0x2D46 JUMPI PUSH3 0x2D45 PUSH3 0x1F8C JUMP JUMPDEST JUMPDEST PUSH1 0x0 PUSH3 0x2D56 DUP7 DUP3 DUP8 ADD PUSH3 0x2821 JUMP JUMPDEST SWAP4 POP POP PUSH1 0x20 PUSH3 0x2D69 DUP7 DUP3 DUP8 ADD PUSH3 0x2821 JUMP JUMPDEST SWAP3 POP POP PUSH1 0x40 PUSH3 0x2D7C DUP7 DUP3 DUP8 ADD PUSH3 0x2821 JUMP JUMPDEST SWAP2 POP POP SWAP3 POP SWAP3 POP SWAP3 JUMP INVALID PUSH1 0x80 PUSH1 0x40 MSTORE CALLVALUE DUP1 ISZERO PUSH3 0x11 JUMPI PUSH1 0x0 DUP1 REVERT JUMPDEST POP PUSH1 0x40 MLOAD PUSH3 0x2045 CODESIZE SUB DUP1 PUSH3 0x2045 DUP4 CODECOPY DUP2 DUP2 ADD PUSH1 0x40 MSTORE DUP2 ADD SWAP1 PUSH3 0x37 SWAP2 SWAP1 PUSH3 0x3B0 JUMP JUMPDEST DUP2 DUP2 DUP2 PUSH1 0x3 SWAP1 DUP1 MLOAD SWAP1 PUSH1 0x20 ADD SWAP1 PUSH3 0x51 SWAP3 SWAP2 SWAP1 PUSH3 0x163 JUMP JUMPDEST POP DUP1 PUSH1 0x4 SWAP1 DUP1 MLOAD SWAP1 PUSH1 0x20 ADD SWAP1 PUSH3 0x6A SWAP3 SWAP2 SWAP1 PUSH3 0x163 JUMP JUMPDEST POP POP POP PUSH3 0x8D PUSH3 0x81 PUSH3 0x95 PUSH1 0x20 SHL PUSH1 0x20 SHR JUMP JUMPDEST PUSH3 0x9D PUSH1 0x20 SHL PUSH1 0x20 SHR JUMP JUMPDEST POP POP PUSH3 0x499 JUMP JUMPDEST PUSH1 0x0 CALLER SWAP1 POP SWAP1 JUMP JUMPDEST PUSH1 0x0 PUSH1 0x5 PUSH1 0x0 SWAP1 SLOAD SWAP1 PUSH2 0x100 EXP SWAP1 DIV PUSH20 0xFFFFFFFFFFFFFFFFFFFFFFFFFFFFFFFFFFFFFFFF AND SWAP1 POP DUP2 PUSH1 0x5 PUSH1 0x0 PUSH2 0x100 EXP DUP2 SLOAD DUP2 PUSH20 0xFFFFFFFFFFFFFFFFFFFFFFFFFFFFFFFFFFFFFFFF MUL NOT AND SWAP1 DUP4 PUSH20 0xFFFFFFFFFFFFFFFFFFFFFFFFFFFFFFFFFFFFFFFF AND MUL OR SWAP1 SSTORE POP DUP2 PUSH20 0xFFFFFFFFFFFFFFFFFFFFFFFFFFFFFFFFFFFFFFFF AND DUP2 PUSH20 0xFFFFFFFFFFFFFFFFFFFFFFFFFFFFFFFFFFFFFFFF AND PUSH32 0x8BE0079C531659141344CD1FD0A4F28419497F9722A3DAAFE3B4186F6B6457E0 PUSH1 0x40 MLOAD PUSH1 0x40 MLOAD DUP1 SWAP2 SUB SWAP1 LOG3 POP POP JUMP JUMPDEST DUP3 DUP1 SLOAD PUSH3 0x171 SWAP1 PUSH3 0x464 JUMP JUMPDEST SWAP1 PUSH1 0x0 MSTORE PUSH1 0x20 PUSH1 0x0 KECCAK256 SWAP1 PUSH1 0x1F ADD PUSH1 0x20 SWAP1 DIV DUP2 ADD SWAP3 DUP3 PUSH3 0x195 JUMPI PUSH1 0x0 DUP6 SSTORE PUSH3 0x1E1 JUMP JUMPDEST DUP3 PUSH1 0x1F LT PUSH3 0x1B0 JUMPI DUP1 MLOAD PUSH1 0xFF NOT AND DUP4 DUP1 ADD OR DUP6 SSTORE PUSH3 0x1E1 JUMP JUMPDEST DUP3 DUP1 ADD PUSH1 0x1 ADD DUP6 SSTORE DUP3 ISZERO PUSH3 0x1E1 JUMPI SWAP2 DUP3 ADD JUMPDEST DUP3 DUP2 GT ISZERO PUSH3 0x1E0 JUMPI DUP3 MLOAD DUP3 SSTORE SWAP2 PUSH1 0x20 ADD SWAP2 SWAP1 PUSH1 0x1 ADD SWAP1 PUSH3 0x1C3 JUMP JUMPDEST JUMPDEST POP SWAP1 POP PUSH3 0x1F0 SWAP2 SWAP1 PUSH3 0x1F4 JUMP JUMPDEST POP SWAP1 JUMP JUMPDEST JUMPDEST DUP1 DUP3 GT ISZERO PUSH3 0x20F JUMPI PUSH1 0x0 DUP2 PUSH1 0x0 SWAP1 SSTORE POP PUSH1 0x1 ADD PUSH3 0x1F5 JUMP JUMPDEST POP SWAP1 JUMP JUMPDEST PUSH1 0x0 PUSH1 0x40 MLOAD SWAP1 POP SWAP1 JUMP JUMPDEST PUSH1 0x0 DUP1 REVERT JUMPDEST PUSH1 0x0 DUP1 REVERT JUMPDEST PUSH1 0x0 DUP1 REVERT JUMPDEST PUSH1 0x0 DUP1 REVERT JUMPDEST PUSH1 0x0 PUSH1 0x1F NOT PUSH1 0x1F DUP4 ADD AND SWAP1 POP SWAP2 SWAP1 POP JUMP JUMPDEST PUSH32 0x4E487B7100000000000000000000000000000000000000000000000000000000 PUSH1 0x0 MSTORE PUSH1 0x41 PUSH1 0x4 MSTORE PUSH1 0x24 PUSH1 0x0 REVERT JUMPDEST PUSH3 0x27C DUP3 PUSH3 0x231 JUMP JUMPDEST DUP2 ADD DUP2 DUP2 LT PUSH8 0xFFFFFFFFFFFFFFFF DUP3 GT OR ISZERO PUSH3 0x29E JUMPI PUSH3 0x29D PUSH3 0x242 JUMP JUMPDEST JUMPDEST DUP1 PUSH1 0x40 MSTORE POP POP POP JUMP JUMPDEST PUSH1 0x0 PUSH3 0x2B3 PUSH3 0x213 JUMP JUMPDEST SWAP1 POP PUSH3 0x2C1 DUP3 DUP3 PUSH3 0x271 JUMP JUMPDEST SWAP2 SWAP1 POP JUMP JUMPDEST PUSH1 0x0 PUSH8 0xFFFFFFFFFFFFFFFF DUP3 GT ISZERO PUSH3 0x2E4 JUMPI PUSH3 0x2E3 PUSH3 0x242 JUMP JUMPDEST JUMPDEST PUSH3 0x2EF DUP3 PUSH3 0x231 JUMP JUMPDEST SWAP1 POP PUSH1 0x20 DUP2 ADD SWAP1 POP SWAP2 SWAP1 POP JUMP JUMPDEST PUSH1 0x0 JUMPDEST DUP4 DUP2 LT ISZERO PUSH3 0x31C JUMPI DUP1 DUP3 ADD MLOAD DUP2 DUP5 ADD MSTORE PUSH1 0x20 DUP2 ADD SWAP1 POP PUSH3 0x2FF JUMP JUMPDEST DUP4 DUP2 GT ISZERO PUSH3 0x32C JUMPI PUSH1 0x0 DUP5 DUP5 ADD MSTORE JUMPDEST POP POP POP POP JUMP JUMPDEST PUSH1 0x0 PUSH3 0x349 PUSH3 0x343 DUP5 PUSH3 0x2C6 JUMP JUMPDEST PUSH3 0x2A7 JUMP JUMPDEST SWAP1 POP DUP3 DUP2 MSTORE PUSH1 0x20 DUP2 ADD DUP5 DUP5 DUP5 ADD GT ISZERO PUSH3 0x368 JUMPI PUSH3 0x367 PUSH3 0x22C JUMP JUMPDEST JUMPDEST PUSH3 0x375 DUP5 DUP3 DUP6 PUSH3 0x2FC JUMP JUMPDEST POP SWAP4 SWAP3 POP POP POP JUMP JUMPDEST PUSH1 0x0 DUP3 PUSH1 0x1F DUP4 ADD SLT PUSH3 0x395 JUMPI PUSH3 0x394 PUSH3 0x227 JUMP JUMPDEST JUMPDEST DUP2 MLOAD PUSH3 0x3A7 DUP5 DUP3 PUSH1 0x20 DUP7 ADD PUSH3 0x332 JUMP JUMPDEST SWAP2 POP POP SWAP3 SWAP2 POP POP JUMP JUMPDEST PUSH1 0x0 DUP1 PUSH1 0x40 DUP4 DUP6 SUB SLT ISZERO PUSH3 0x3CA JUMPI PUSH3 0x3C9 PUSH3 0x21D JUMP JUMPDEST JUMPDEST PUSH1 0x0 DUP4 ADD MLOAD PUSH8 0xFFFFFFFFFFFFFFFF DUP2 GT ISZERO PUSH3 0x3EB JUMPI PUSH3 0x3EA PUSH3 0x222 JUMP JUMPDEST JUMPDEST PUSH3 0x3F9 DUP6 DUP3 DUP7 ADD PUSH3 0x37D JUMP JUMPDEST SWAP3 POP POP PUSH1 0x20 DUP4 ADD MLOAD PUSH8 0xFFFFFFFFFFFFFFFF DUP2 GT ISZERO PUSH3 0x41D JUMPI PUSH3 0x41C PUSH3 0x222 JUMP JUMPDEST JUMPDEST PUSH3 0x42B DUP6 DUP3 DUP7 ADD PUSH3 0x37D JUMP JUMPDEST SWAP2 POP POP SWAP3 POP SWAP3 SWAP1 POP JUMP JUMPDEST PUSH32 0x4E487B7100000000000000000000000000000000000000000000000000000000 PUSH1 0x0 MSTORE PUSH1 0x22 PUSH1 0x4 MSTORE PUSH1 0x24 PUSH1 0x0 REVERT JUMPDEST PUSH1 0x0 PUSH1 0x2 DUP3 DIV SWAP1 POP PUSH1 0x1 DUP3 AND DUP1 PUSH3 0x47D JUMPI PUSH1 0x7F DUP3 AND SWAP2 POP JUMPDEST PUSH1 0x20 DUP3 LT DUP2 SUB PUSH3 0x493 JUMPI PUSH3 0x492 PUSH3 0x435 JUMP JUMPDEST JUMPDEST POP SWAP2 SWAP1 POP JUMP JUMPDEST PUSH2 0x1B9C DUP1 PUSH3 0x4A9 PUSH1 0x0 CODECOPY PUSH1 0x0 RETURN INVALID PUSH1 0x80 PUSH1 0x40 MSTORE CALLVALUE DUP1 ISZERO PUSH2 0x10 JUMPI PUSH1 0x0 DUP1 REVERT JUMPDEST POP PUSH1 0x4 CALLDATASIZE LT PUSH2 0x100 JUMPI PUSH1 0x0 CALLDATALOAD PUSH1 0xE0 SHR DUP1 PUSH4 0x715018A6 GT PUSH2 0x97 JUMPI DUP1 PUSH4 0xA457C2D7 GT PUSH2 0x66 JUMPI DUP1 PUSH4 0xA457C2D7 EQ PUSH2 0x29D JUMPI DUP1 PUSH4 0xA9059CBB EQ PUSH2 0x2CD JUMPI DUP1 PUSH4 0xDD62ED3E EQ PUSH2 0x2FD JUMPI DUP1 PUSH4 0xF2FDE38B EQ PUSH2 0x32D JUMPI PUSH2 0x100 JUMP JUMPDEST DUP1 PUSH4 0x715018A6 EQ PUSH2 0x23B JUMPI DUP1 PUSH4 0x8DA5CB5B EQ PUSH2 0x245 JUMPI DUP1 PUSH4 0x95D89B41 EQ PUSH2 0x263 JUMPI DUP1 PUSH4 0x9DC29FAC EQ PUSH2 0x281 JUMPI PUSH2 0x100 JUMP JUMPDEST DUP1 PUSH4 0x313CE567 GT PUSH2 0xD3 JUMPI DUP1 PUSH4 0x313CE567 EQ PUSH2 0x1A1 JUMPI DUP1 PUSH4 0x39509351 EQ PUSH2 0x1BF JUMPI DUP1 PUSH4 0x40C10F19 EQ PUSH2 0x1EF JUMPI DUP1 PUSH4 0x70A08231 EQ PUSH2 0x20B JUMPI PUSH2 0x100 JUMP JUMPDEST DUP1 PUSH4 0x6FDDE03 EQ PUSH2 0x105 JUMPI DUP1 PUSH4 0x95EA7B3 EQ PUSH2 0x123 JUMPI DUP1 PUSH4 0x18160DDD EQ PUSH2 0x153 JUMPI DUP1 PUSH4 0x23B872DD EQ PUSH2 0x171 JUMPI JUMPDEST PUSH1 0x0 DUP1 REVERT JUMPDEST PUSH2 0x10D PUSH2 0x349 JUMP JUMPDEST PUSH1 0x40 MLOAD PUSH2 0x11A SWAP2 SWAP1 PUSH2 0x119F JUMP JUMPDEST PUSH1 0x40 MLOAD DUP1 SWAP2 SUB SWAP1 RETURN JUMPDEST PUSH2 0x13D PUSH1 0x4 DUP1 CALLDATASIZE SUB DUP2 ADD SWAP1 PUSH2 0x138 SWAP2 SWAP1 PUSH2 0x125A JUMP JUMPDEST PUSH2 0x3DB JUMP JUMPDEST PUSH1 0x40 MLOAD PUSH2 0x14A SWAP2 SWAP1 PUSH2 0x12B5 JUMP JUMPDEST PUSH1 0x40 MLOAD DUP1 SWAP2 SUB SWAP1 RETURN JUMPDEST PUSH2 0x15B PUSH2 0x3FE JUMP JUMPDEST PUSH1 0x40 MLOAD PUSH2 0x168 SWAP2 SWAP1 PUSH2 0x12DF JUMP JUMPDEST PUSH1 0x40 MLOAD DUP1 SWAP2 SUB SWAP1 RETURN JUMPDEST PUSH2 0x18B PUSH1 0x4 DUP1 CALLDATASIZE SUB DUP2 ADD SWAP1 PUSH2 0x186 SWAP2 SWAP1 PUSH2 0x12FA JUMP JUMPDEST PUSH2 0x408 JUMP JUMPDEST PUSH1 0x40 MLOAD PUSH2 0x198 SWAP2 SWAP1 PUSH2 0x12B5 JUMP JUMPDEST PUSH1 0x40 MLOAD DUP1 SWAP2 SUB SWAP1 RETURN JUMPDEST PUSH2 0x1A9 PUSH2 0x437 JUMP JUMPDEST PUSH1 0x40 MLOAD PUSH2 0x1B6 SWAP2 SWAP1 PUSH2 0x1369 JUMP JUMPDEST PUSH1 0x40 MLOAD DUP1 SWAP2 SUB SWAP1 RETURN JUMPDEST PUSH2 0x1D9 PUSH1 0x4 DUP1 CALLDATASIZE SUB DUP2 ADD SWAP1 PUSH2 0x1D4 SWAP2 SWAP1 PUSH2 0x125A JUMP JUMPDEST PUSH2 0x440 JUMP JUMPDEST PUSH1 0x40 MLOAD PUSH2 0x1E6 SWAP2 SWAP1 PUSH2 0x12B5 JUMP JUMPDEST PUSH1 0x40 MLOAD DUP1 SWAP2 SUB SWAP1 RETURN JUMPDEST PUSH2 0x209 PUSH1 0x4 DUP1 CALLDATASIZE SUB DUP2 ADD SWAP1 PUSH2 0x204 SWAP2 SWAP1 PUSH2 0x125A JUMP JUMPDEST PUSH2 0x477 JUMP JUMPDEST STOP JUMPDEST PUSH2 0x225 PUSH1 0x4 DUP1 CALLDATASIZE SUB DUP2 ADD SWAP1 PUSH2 0x220 SWAP2 SWAP1 PUSH2 0x1384 JUMP JUMPDEST PUSH2 0x48D JUMP JUMPDEST PUSH1 0x40 MLOAD PUSH2 0x232 SWAP2 SWAP1 PUSH2 0x12DF JUMP JUMPDEST PUSH1 0x40 MLOAD DUP1 SWAP2 SUB SWAP1 RETURN JUMPDEST PUSH2 0x243 PUSH2 0x4D5 JUMP JUMPDEST STOP JUMPDEST PUSH2 0x24D PUSH2 0x4E9 JUMP JUMPDEST PUSH1 0x40 MLOAD PUSH2 0x25A SWAP2 SWAP1 PUSH2 0x13C0 JUMP JUMPDEST PUSH1 0x40 MLOAD DUP1 SWAP2 SUB SWAP1 RETURN JUMPDEST PUSH2 0x26B PUSH2 0x513 JUMP JUMPDEST PUSH1 0x40 MLOAD PUSH2 0x278 SWAP2 SWAP1 PUSH2 0x119F JUMP JUMPDEST PUSH1 0x40 MLOAD DUP1 SWAP2 SUB SWAP1 RETURN JUMPDEST PUSH2 0x29B PUSH1 0x4 DUP1 CALLDATASIZE SUB DUP2 ADD SWAP1 PUSH2 0x296 SWAP2 SWAP1 PUSH2 0x125A JUMP JUMPDEST PUSH2 0x5A5 JUMP JUMPDEST STOP JUMPDEST PUSH2 0x2B7 PUSH1 0x4 DUP1 CALLDATASIZE SUB DUP2 ADD SWAP1 PUSH2 0x2B2 SWAP2 SWAP1 PUSH2 0x125A JUMP JUMPDEST PUSH2 0x629 JUMP JUMPDEST PUSH1 0x40 MLOAD PUSH2 0x2C4 SWAP2 SWAP1 PUSH2 0x12B5 JUMP JUMPDEST PUSH1 0x40 MLOAD DUP1 SWAP2 SUB SWAP1 RETURN JUMPDEST PUSH2 0x2E7 PUSH1 0x4 DUP1 CALLDATASIZE SUB DUP2 ADD SWAP1 PUSH2 0x2E2 SWAP2 SWAP1 PUSH2 0x125A JUMP JUMPDEST PUSH2 0x6A0 JUMP JUMPDEST PUSH1 0x40 MLOAD PUSH2 0x2F4 SWAP2 SWAP1 PUSH2 0x12B5 JUMP JUMPDEST PUSH1 0x40 MLOAD DUP1 SWAP2 SUB SWAP1 RETURN JUMPDEST PUSH2 0x317 PUSH1 0x4 DUP1 CALLDATASIZE SUB DUP2 ADD SWAP1 PUSH2 0x312 SWAP2 SWAP1 PUSH2 0x13DB JUMP JUMPDEST PUSH2 0x6C3 JUMP JUMPDEST PUSH1 0x40 MLOAD PUSH2 0x324 SWAP2 SWAP1 PUSH2 0x12DF JUMP JUMPDEST PUSH1 0x40 MLOAD DUP1 SWAP2 SUB SWAP1 RETURN JUMPDEST PUSH2 0x347 PUSH1 0x4 DUP1 CALLDATASIZE SUB DUP2 ADD SWAP1 PUSH2 0x342 SWAP2 SWAP1 PUSH2 0x1384 JUMP JUMPDEST PUSH2 0x74A JUMP JUMPDEST STOP JUMPDEST PUSH1 0x60 PUSH1 0x3 DUP1 SLOAD PUSH2 0x358 SWAP1 PUSH2 0x144A JUMP JUMPDEST DUP1 PUSH1 0x1F ADD PUSH1 0x20 DUP1 SWAP2 DIV MUL PUSH1 0x20 ADD PUSH1 0x40 MLOAD SWAP1 DUP2 ADD PUSH1 0x40 MSTORE DUP1 SWAP3 SWAP2 SWAP1 DUP2 DUP2 MSTORE PUSH1 0x20 ADD DUP3 DUP1 SLOAD PUSH2 0x384 SWAP1 PUSH2 0x144A JUMP JUMPDEST DUP1 ISZERO PUSH2 0x3D1 JUMPI DUP1 PUSH1 0x1F LT PUSH2 0x3A6 JUMPI PUSH2 0x100 DUP1 DUP4 SLOAD DIV MUL DUP4 MSTORE SWAP2 PUSH1 0x20 ADD SWAP2 PUSH2 0x3D1 JUMP JUMPDEST DUP3 ADD SWAP2 SWAP1 PUSH1 0x0 MSTORE PUSH1 0x20 PUSH1 0x0 KECCAK256 SWAP1 JUMPDEST DUP2 SLOAD DUP2 MSTORE SWAP1 PUSH1 0x1 ADD SWAP1 PUSH1 0x20 ADD DUP1 DUP4 GT PUSH2 0x3B4 JUMPI DUP3 SWAP1 SUB PUSH1 0x1F AND DUP3 ADD SWAP2 JUMPDEST POP POP POP POP POP SWAP1 POP SWAP1 JUMP JUMPDEST PUSH1 0x0 DUP1 PUSH2 0x3E6 PUSH2 0x7CD JUMP JUMPDEST SWAP1 POP PUSH2 0x3F3 DUP2 DUP6 DUP6 PUSH2 0x7D5 JUMP JUMPDEST PUSH1 0x1 SWAP2 POP POP SWAP3 SWAP2 POP POP JUMP JUMPDEST PUSH1 0x0 PUSH1 0x2 SLOAD SWAP1 POP SWAP1 JUMP JUMPDEST PUSH1 0x0 DUP1 PUSH2 0x413 PUSH2 0x7CD JUMP JUMPDEST SWAP1 POP PUSH2 0x420 DUP6 DUP3 DUP6 PUSH2 0x99E JUMP JUMPDEST PUSH2 0x42B DUP6 DUP6 DUP6 PUSH2 0xA2A JUMP JUMPDEST PUSH1 0x1 SWAP2 POP POP SWAP4 SWAP3 POP POP POP JUMP JUMPDEST PUSH1 0x0 PUSH1 0x12 SWAP1 POP SWAP1 JUMP JUMPDEST PUSH1 0x0 DUP1 PUSH2 0x44B PUSH2 0x7CD JUMP JUMPDEST SWAP1 POP PUSH2 0x46C DUP2 DUP6 DUP6 PUSH2 0x45D DUP6 DUP10 PUSH2 0x6C3 JUMP JUMPDEST PUSH2 0x467 SWAP2 SWAP1 PUSH2 0x14AA JUMP JUMPDEST PUSH2 0x7D5 JUMP JUMPDEST PUSH1 0x1 SWAP2 POP POP SWAP3 SWAP2 POP POP JUMP JUMPDEST PUSH2 0x47F PUSH2 0xC95 JUMP JUMPDEST PUSH2 0x489 DUP3 DUP3 PUSH2 0xD13 JUMP JUMPDEST POP POP JUMP JUMPDEST PUSH1 0x0 DUP1 PUSH1 0x0 DUP4 PUSH20 0xFFFFFFFFFFFFFFFFFFFFFFFFFFFFFFFFFFFFFFFF AND PUSH20 0xFFFFFFFFFFFFFFFFFFFFFFFFFFFFFFFFFFFFFFFF AND DUP2 MSTORE PUSH1 0x20 ADD SWAP1 DUP2 MSTORE PUSH1 0x20 ADD PUSH1 0x0 KECCAK256 SLOAD SWAP1 POP SWAP2 SWAP1 POP JUMP JUMPDEST PUSH2 0x4DD PUSH2 0xC95 JUMP JUMPDEST PUSH2 0x4E7 PUSH1 0x0 PUSH2 0xE69 JUMP JUMPDEST JUMP JUMPDEST PUSH1 0x0 PUSH1 0x5 PUSH1 0x0 SWAP1 SLOAD SWAP1 PUSH2 0x100 EXP SWAP1 DIV PUSH20 0xFFFFFFFFFFFFFFFFFFFFFFFFFFFFFFFFFFFFFFFF AND SWAP1 POP SWAP1 JUMP JUMPDEST PUSH1 0x60 PUSH1 0x4 DUP1 SLOAD PUSH2 0x522 SWAP1 PUSH2 0x144A JUMP JUMPDEST DUP1 PUSH1 0x1F ADD PUSH1 0x20 DUP1 SWAP2 DIV MUL PUSH1 0x20 ADD PUSH1 0x40 MLOAD SWAP1 DUP2 ADD PUSH1 0x40 MSTORE DUP1 SWAP3 SWAP2 SWAP1 DUP2 DUP2 MSTORE PUSH1 0x20 ADD DUP3 DUP1 SLOAD PUSH2 0x54E SWAP1 PUSH2 0x144A JUMP JUMPDEST DUP1 ISZERO PUSH2 0x59B JUMPI DUP1 PUSH1 0x1F LT PUSH2 0x570 JUMPI PUSH2 0x100 DUP1 DUP4 SLOAD DIV MUL DUP4 MSTORE SWAP2 PUSH1 0x20 ADD SWAP2 PUSH2 0x59B JUMP JUMPDEST DUP3 ADD SWAP2 SWAP1 PUSH1 0x0 MSTORE PUSH1 0x20 PUSH1 0x0 KECCAK256 SWAP1 JUMPDEST DUP2 SLOAD DUP2 MSTORE SWAP1 PUSH1 0x1 ADD SWAP1 PUSH1 0x20 ADD DUP1 DUP4 GT PUSH2 0x57E JUMPI DUP3 SWAP1 SUB PUSH1 0x1F AND DUP3 ADD SWAP2 JUMPDEST POP POP POP POP POP SWAP1 POP SWAP1 JUMP JUMPDEST DUP2 PUSH20 0xFFFFFFFFFFFFFFFFFFFFFFFFFFFFFFFFFFFFFFFF AND CALLER PUSH20 0xFFFFFFFFFFFFFFFFFFFFFFFFFFFFFFFFFFFFFFFF AND EQ ISZERO DUP1 PUSH2 0x612 JUMPI POP PUSH2 0x5E3 PUSH2 0x4E9 JUMP JUMPDEST PUSH20 0xFFFFFFFFFFFFFFFFFFFFFFFFFFFFFFFFFFFFFFFF AND CALLER PUSH20 0xFFFFFFFFFFFFFFFFFFFFFFFFFFFFFFFFFFFFFFFF AND EQ JUMPDEST PUSH2 0x61B JUMPI PUSH1 0x0 DUP1 REVERT JUMPDEST PUSH2 0x625 DUP3 DUP3 PUSH2 0xF2F JUMP JUMPDEST POP POP JUMP JUMPDEST PUSH1 0x0 DUP1 PUSH2 0x634 PUSH2 0x7CD JUMP JUMPDEST SWAP1 POP PUSH1 0x0 PUSH2 0x642 DUP3 DUP7 PUSH2 0x6C3 JUMP JUMPDEST SWAP1 POP DUP4 DUP2 LT ISZERO PUSH2 0x687 JUMPI PUSH1 0x40 MLOAD PUSH32 0x8C379A000000000000000000000000000000000000000000000000000000000 DUP2 MSTORE PUSH1 0x4 ADD PUSH2 0x67E SWAP1 PUSH2 0x1572 JUMP JUMPDEST PUSH1 0x40 MLOAD DUP1 SWAP2 SUB SWAP1 REVERT JUMPDEST PUSH2 0x694 DUP3 DUP7 DUP7 DUP5 SUB PUSH2 0x7D5 JUMP JUMPDEST PUSH1 0x1 SWAP3 POP POP POP SWAP3 SWAP2 POP POP JUMP JUMPDEST PUSH1 0x0 DUP1 PUSH2 0x6AB PUSH2 0x7CD JUMP JUMPDEST SWAP1 POP PUSH2 0x6B8 DUP2 DUP6 DUP6 PUSH2 0xA2A JUMP JUMPDEST PUSH1 0x1 SWAP2 POP POP SWAP3 SWAP2 POP POP JUMP JUMPDEST PUSH1 0x0 PUSH1 0x1 PUSH1 0x0 DUP5 PUSH20 0xFFFFFFFFFFFFFFFFFFFFFFFFFFFFFFFFFFFFFFFF AND PUSH20 0xFFFFFFFFFFFFFFFFFFFFFFFFFFFFFFFFFFFFFFFF AND DUP2 MSTORE PUSH1 0x20 ADD SWAP1 DUP2 MSTORE PUSH1 0x20 ADD PUSH1 0x0 KECCAK256 PUSH1 0x0 DUP4 PUSH20 0xFFFFFFFFFFFFFFFFFFFFFFFFFFFFFFFFFFFFFFFF AND PUSH20 0xFFFFFFFFFFFFFFFFFFFFFFFFFFFFFFFFFFFFFFFF AND DUP2 MSTORE PUSH1 0x20 ADD SWAP1 DUP2 MSTORE PUSH1 0x20 ADD PUSH1 0x0 KECCAK256 SLOAD SWAP1 POP SWAP3 SWAP2 POP POP JUMP JUMPDEST PUSH2 0x752 PUSH2 0xC95 JUMP JUMPDEST PUSH1 0x0 PUSH20 0xFFFFFFFFFFFFFFFFFFFFFFFFFFFFFFFFFFFFFFFF AND DUP2 PUSH20 0xFFFFFFFFFFFFFFFFFFFFFFFFFFFFFFFFFFFFFFFF AND SUB PUSH2 0x7C1 JUMPI PUSH1 0x40 MLOAD PUSH32 0x8C379A000000000000000000000000000000000000000000000000000000000 DUP2 MSTORE PUSH1 0x4 ADD PUSH2 0x7B8 SWAP1 PUSH2 0x1604 JUMP JUMPDEST PUSH1 0x40 MLOAD DUP1 SWAP2 SUB SWAP1 REVERT JUMPDEST PUSH2 0x7CA DUP2 PUSH2 0xE69 JUMP JUMPDEST POP JUMP JUMPDEST PUSH1 0x0 CALLER SWAP1 POP SWAP1 JUMP JUMPDEST PUSH1 0x0 PUSH20 0xFFFFFFFFFFFFFFFFFFFFFFFFFFFFFFFFFFFFFFFF AND DUP4 PUSH20 0xFFFFFFFFFFFFFFFFFFFFFFFFFFFFFFFFFFFFFFFF AND SUB PUSH2 0x844 JUMPI PUSH1 0x40 MLOAD PUSH32 0x8C379A000000000000000000000000000000000000000000000000000000000 DUP2 MSTORE PUSH1 0x4 ADD PUSH2 0x83B SWAP1 PUSH2 0x1696 JUMP JUMPDEST PUSH1 0x40 MLOAD DUP1 SWAP2 SUB SWAP1 REVERT JUMPDEST PUSH1 0x0 PUSH20 0xFFFFFFFFFFFFFFFFFFFFFFFFFFFFFFFFFFFFFFFF AND DUP3 PUSH20 0xFFFFFFFFFFFFFFFFFFFFFFFFFFFFFFFFFFFFFFFF AND SUB PUSH2 0x8B3 JUMPI PUSH1 0x40 MLOAD PUSH32 0x8C379A000000000000000000000000000000000000000000000000000000000 DUP2 MSTORE PUSH1 0x4 ADD PUSH2 0x8AA SWAP1 PUSH2 0x1728 JUMP JUMPDEST PUSH1 0x40 MLOAD DUP1 SWAP2 SUB SWAP1 REVERT JUMPDEST DUP1 PUSH1 0x1 PUSH1 0x0 DUP6 PUSH20 0xFFFFFFFFFFFFFFFFFFFFFFFFFFFFFFFFFFFFFFFF AND PUSH20 0xFFFFFFFFFFFFFFFFFFFFFFFFFFFFFFFFFFFFFFFF AND DUP2 MSTORE PUSH1 0x20 ADD SWAP1 DUP2 MSTORE PUSH1 0x20 ADD PUSH1 0x0 KECCAK256 PUSH1 0x0 DUP5 PUSH20 0xFFFFFFFFFFFFFFFFFFFFFFFFFFFFFFFFFFFFFFFF AND PUSH20 0xFFFFFFFFFFFFFFFFFFFFFFFFFFFFFFFFFFFFFFFF AND DUP2 MSTORE PUSH1 0x20 ADD SWAP1 DUP2 MSTORE PUSH1 0x20 ADD PUSH1 0x0 KECCAK256 DUP2 SWAP1 SSTORE POP DUP2 PUSH20 0xFFFFFFFFFFFFFFFFFFFFFFFFFFFFFFFFFFFFFFFF AND DUP4 PUSH20 0xFFFFFFFFFFFFFFFFFFFFFFFFFFFFFFFFFFFFFFFF AND PUSH32 0x8C5BE1E5EBEC7D5BD14F71427D1E84F3DD0314C0F7B2291E5B200AC8C7C3B925 DUP4 PUSH1 0x40 MLOAD PUSH2 0x991 SWAP2 SWAP1 PUSH2 0x12DF JUMP JUMPDEST PUSH1 0x40 MLOAD DUP1 SWAP2 SUB SWAP1 LOG3 POP POP POP JUMP JUMPDEST PUSH1 0x0 PUSH2 0x9AA DUP5 DUP5 PUSH2 0x6C3 JUMP JUMPDEST SWAP1 POP PUSH32 0xFFFFFFFFFFFFFFFFFFFFFFFFFFFFFFFFFFFFFFFFFFFFFFFFFFFFFFFFFFFFFFFF DUP2 EQ PUSH2 0xA24 JUMPI DUP2 DUP2 LT ISZERO PUSH2 0xA16 JUMPI PUSH1 0x40 MLOAD PUSH32 0x8C379A000000000000000000000000000000000000000000000000000000000 DUP2 MSTORE PUSH1 0x4 ADD PUSH2 0xA0D SWAP1 PUSH2 0x1794 JUMP JUMPDEST PUSH1 0x40 MLOAD DUP1 SWAP2 SUB SWAP1 REVERT JUMPDEST PUSH2 0xA23 DUP5 DUP5 DUP5 DUP5 SUB PUSH2 0x7D5 JUMP JUMPDEST JUMPDEST POP POP POP POP JUMP JUMPDEST PUSH1 0x0 PUSH20 0xFFFFFFFFFFFFFFFFFFFFFFFFFFFFFFFFFFFFFFFF AND DUP4 PUSH20 0xFFFFFFFFFFFFFFFFFFFFFFFFFFFFFFFFFFFFFFFF AND SUB PUSH2 0xA99 JUMPI PUSH1 0x40 MLOAD PUSH32 0x8C379A000000000000000000000000000000000000000000000000000000000 DUP2 MSTORE PUSH1 0x4 ADD PUSH2 0xA90 SWAP1 PUSH2 0x1826 JUMP JUMPDEST PUSH1 0x40 MLOAD DUP1 SWAP2 SUB SWAP1 REVERT JUMPDEST PUSH1 0x0 PUSH20 0xFFFFFFFFFFFFFFFFFFFFFFFFFFFFFFFFFFFFFFFF AND DUP3 PUSH20 0xFFFFFFFFFFFFFFFFFFFFFFFFFFFFFFFFFFFFFFFF AND SUB PUSH2 0xB08 JUMPI PUSH1 0x40 MLOAD PUSH32 0x8C379A000000000000000000000000000000000000000000000000000000000 DUP2 MSTORE PUSH1 0x4 ADD PUSH2 0xAFF SWAP1 PUSH2 0x18B8 JUMP JUMPDEST PUSH1 0x40 MLOAD DUP1 SWAP2 SUB SWAP1 REVERT JUMPDEST PUSH1 0x0 DUP1 PUSH1 0x0 DUP6 PUSH20 0xFFFFFFFFFFFFFFFFFFFFFFFFFFFFFFFFFFFFFFFF AND PUSH20 0xFFFFFFFFFFFFFFFFFFFFFFFFFFFFFFFFFFFFFFFF AND DUP2 MSTORE PUSH1 0x20 ADD SWAP1 DUP2 MSTORE PUSH1 0x20 ADD PUSH1 0x0 KECCAK256 SLOAD SWAP1 POP DUP2 DUP2 LT ISZERO PUSH2 0xB8E JUMPI PUSH1 0x40 MLOAD PUSH32 0x8C379A000000000000000000000000000000000000000000000000000000000 DUP2 MSTORE PUSH1 0x4 ADD PUSH2 0xB85 SWAP1 PUSH2 0x194A JUMP JUMPDEST PUSH1 0x40 MLOAD DUP1 SWAP2 SUB SWAP1 REVERT JUMPDEST DUP2 DUP2 SUB PUSH1 0x0 DUP1 DUP7 PUSH20 0xFFFFFFFFFFFFFFFFFFFFFFFFFFFFFFFFFFFFFFFF AND PUSH20 0xFFFFFFFFFFFFFFFFFFFFFFFFFFFFFFFFFFFFFFFF AND DUP2 MSTORE PUSH1 0x20 ADD SWAP1 DUP2 MSTORE PUSH1 0x20 ADD PUSH1 0x0 KECCAK256 DUP2 SWAP1 SSTORE POP DUP2 PUSH1 0x0 DUP1 DUP6 PUSH20 0xFFFFFFFFFFFFFFFFFFFFFFFFFFFFFFFFFFFFFFFF AND PUSH20 0xFFFFFFFFFFFFFFFFFFFFFFFFFFFFFFFFFFFFFFFF AND DUP2 MSTORE PUSH1 0x20 ADD SWAP1 DUP2 MSTORE PUSH1 0x20 ADD PUSH1 0x0 KECCAK256 PUSH1 0x0 DUP3 DUP3 SLOAD ADD SWAP3 POP POP DUP2 SWAP1 SSTORE POP DUP3 PUSH20 0xFFFFFFFFFFFFFFFFFFFFFFFFFFFFFFFFFFFFFFFF AND DUP5 PUSH20 0xFFFFFFFFFFFFFFFFFFFFFFFFFFFFFFFFFFFFFFFF AND PUSH32 0xDDF252AD1BE2C89B69C2B068FC378DAA952BA7F163C4A11628F55A4DF523B3EF DUP5 PUSH1 0x40 MLOAD PUSH2 0xC7C SWAP2 SWAP1 PUSH2 0x12DF JUMP JUMPDEST PUSH1 0x40 MLOAD DUP1 SWAP2 SUB SWAP1 LOG3 PUSH2 0xC8F DUP5 DUP5 DUP5 PUSH2 0x10FC JUMP JUMPDEST POP POP POP POP JUMP JUMPDEST PUSH2 0xC9D PUSH2 0x7CD JUMP JUMPDEST PUSH20 0xFFFFFFFFFFFFFFFFFFFFFFFFFFFFFFFFFFFFFFFF AND PUSH2 0xCBB PUSH2 0x4E9 JUMP JUMPDEST PUSH20 0xFFFFFFFFFFFFFFFFFFFFFFFFFFFFFFFFFFFFFFFF AND EQ PUSH2 0xD11 JUMPI PUSH1 0x40 MLOAD PUSH32 0x8C379A000000000000000000000000000000000000000000000000000000000 DUP2 MSTORE PUSH1 0x4 ADD PUSH2 0xD08 SWAP1 PUSH2 0x19B6 JUMP JUMPDEST PUSH1 0x40 MLOAD DUP1 SWAP2 SUB SWAP1 REVERT JUMPDEST JUMP JUMPDEST PUSH1 0x0 PUSH20 0xFFFFFFFFFFFFFFFFFFFFFFFFFFFFFFFFFFFFFFFF AND DUP3 PUSH20 0xFFFFFFFFFFFFFFFFFFFFFFFFFFFFFFFFFFFFFFFF AND SUB PUSH2 0xD82 JUMPI PUSH1 0x40 MLOAD PUSH32 0x8C379A000000000000000000000000000000000000000000000000000000000 DUP2 MSTORE PUSH1 0x4 ADD PUSH2 0xD79 SWAP1 PUSH2 0x1A22 JUMP JUMPDEST PUSH1 0x40 MLOAD DUP1 SWAP2 SUB SWAP1 REVERT JUMPDEST PUSH2 0xD8E PUSH1 0x0 DUP4 DUP4 PUSH2 0x1101 JUMP JUMPDEST DUP1 PUSH1 0x2 PUSH1 0x0 DUP3 DUP3 SLOAD PUSH2 0xDA0 SWAP2 SWAP1 PUSH2 0x14AA JUMP JUMPDEST SWAP3 POP POP DUP2 SWAP1 SSTORE POP DUP1 PUSH1 0x0 DUP1 DUP5 PUSH20 0xFFFFFFFFFFFFFFFFFFFFFFFFFFFFFFFFFFFFFFFF AND PUSH20 0xFFFFFFFFFFFFFFFFFFFFFFFFFFFFFFFFFFFFFFFF AND DUP2 MSTORE PUSH1 0x20 ADD SWAP1 DUP2 MSTORE PUSH1 0x20 ADD PUSH1 0x0 KECCAK256 PUSH1 0x0 DUP3 DUP3 SLOAD ADD SWAP3 POP POP DUP2 SWAP1 SSTORE POP DUP2 PUSH20 0xFFFFFFFFFFFFFFFFFFFFFFFFFFFFFFFFFFFFFFFF AND PUSH1 0x0 PUSH20 0xFFFFFFFFFFFFFFFFFFFFFFFFFFFFFFFFFFFFFFFF AND PUSH32 0xDDF252AD1BE2C89B69C2B068FC378DAA952BA7F163C4A11628F55A4DF523B3EF DUP4 PUSH1 0x40 MLOAD PUSH2 0xE51 SWAP2 SWAP1 PUSH2 0x12DF JUMP JUMPDEST PUSH1 0x40 MLOAD DUP1 SWAP2 SUB SWAP1 LOG3 PUSH2 0xE65 PUSH1 0x0 DUP4 DUP4 PUSH2 0x10FC JUMP JUMPDEST POP POP JUMP JUMPDEST PUSH1 0x0 PUSH1 0x5 PUSH1 0x0 SWAP1 SLOAD SWAP1 PUSH2 0x100 EXP SWAP1 DIV PUSH20 0xFFFFFFFFFFFFFFFFFFFFFFFFFFFFFFFFFFFFFFFF AND SWAP1 POP DUP2 PUSH1 0x5 PUSH1 0x0 PUSH2 0x100 EXP DUP2 SLOAD DUP2 PUSH20 0xFFFFFFFFFFFFFFFFFFFFFFFFFFFFFFFFFFFFFFFF MUL NOT AND SWAP1 DUP4 PUSH20 0xFFFFFFFFFFFFFFFFFFFFFFFFFFFFFFFFFFFFFFFF AND MUL OR SWAP1 SSTORE POP DUP2 PUSH20 0xFFFFFFFFFFFFFFFFFFFFFFFFFFFFFFFFFFFFFFFF AND DUP2 PUSH20 0xFFFFFFFFFFFFFFFFFFFFFFFFFFFFFFFFFFFFFFFF AND PUSH32 0x8BE0079C531659141344CD1FD0A4F28419497F9722A3DAAFE3B4186F6B6457E0 PUSH1 0x40 MLOAD PUSH1 0x40 MLOAD DUP1 SWAP2 SUB SWAP1 LOG3 POP POP JUMP JUMPDEST PUSH1 0x0 PUSH20 0xFFFFFFFFFFFFFFFFFFFFFFFFFFFFFFFFFFFFFFFF AND DUP3 PUSH20 0xFFFFFFFFFFFFFFFFFFFFFFFFFFFFFFFFFFFFFFFF AND SUB PUSH2 0xF9E JUMPI PUSH1 0x40 MLOAD PUSH32 0x8C379A000000000000000000000000000000000000000000000000000000000 DUP2 MSTORE PUSH1 0x4 ADD PUSH2 0xF95 SWAP1 PUSH2 0x1AB4 JUMP JUMPDEST PUSH1 0x40 MLOAD DUP1 SWAP2 SUB SWAP1 REVERT JUMPDEST PUSH2 0xFAA DUP3 PUSH1 0x0 DUP4 PUSH2 0x1101 JUMP JUMPDEST PUSH1 0x0 DUP1 PUSH1 0x0 DUP5 PUSH20 0xFFFFFFFFFFFFFFFFFFFFFFFFFFFFFFFFFFFFFFFF AND PUSH20 0xFFFFFFFFFFFFFFFFFFFFFFFFFFFFFFFFFFFFFFFF AND DUP2 MSTORE PUSH1 0x20 ADD SWAP1 DUP2 MSTORE PUSH1 0x20 ADD PUSH1 0x0 KECCAK256 SLOAD SWAP1 POP DUP2 DUP2 LT ISZERO PUSH2 0x1030 JUMPI PUSH1 0x40 MLOAD PUSH32 0x8C379A000000000000000000000000000000000000000000000000000000000 DUP2 MSTORE PUSH1 0x4 ADD PUSH2 0x1027 SWAP1 PUSH2 0x1B46 JUMP JUMPDEST PUSH1 0x40 MLOAD DUP1 SWAP2 SUB SWAP1 REVERT JUMPDEST DUP2 DUP2 SUB PUSH1 0x0 DUP1 DUP6 PUSH20 0xFFFFFFFFFFFFFFFFFFFFFFFFFFFFFFFFFFFFFFFF AND PUSH20 0xFFFFFFFFFFFFFFFFFFFFFFFFFFFFFFFFFFFFFFFF AND DUP2 MSTORE PUSH1 0x20 ADD SWAP1 DUP2 MSTORE PUSH1 0x20 ADD PUSH1 0x0 KECCAK256 DUP2 SWAP1 SSTORE POP DUP2 PUSH1 0x2 PUSH1 0x0 DUP3 DUP3 SLOAD SUB SWAP3 POP POP DUP2 SWAP1 SSTORE POP PUSH1 0x0 PUSH20 0xFFFFFFFFFFFFFFFFFFFFFFFFFFFFFFFFFFFFFFFF AND DUP4 PUSH20 0xFFFFFFFFFFFFFFFFFFFFFFFFFFFFFFFFFFFFFFFF AND PUSH32 0xDDF252AD1BE2C89B69C2B068FC378DAA952BA7F163C4A11628F55A4DF523B3EF DUP5 PUSH1 0x40 MLOAD PUSH2 0x10E3 SWAP2 SWAP1 PUSH2 0x12DF JUMP JUMPDEST PUSH1 0x40 MLOAD DUP1 SWAP2 SUB SWAP1 LOG3 PUSH2 0x10F7 DUP4 PUSH1 0x0 DUP5 PUSH2 0x10FC JUMP JUMPDEST POP POP POP JUMP JUMPDEST POP POP POP JUMP JUMPDEST POP POP POP JUMP JUMPDEST PUSH1 0x0 DUP2 MLOAD SWAP1 POP SWAP2 SWAP1 POP JUMP JUMPDEST PUSH1 0x0 DUP3 DUP3 MSTORE PUSH1 0x20 DUP3 ADD SWAP1 POP SWAP3 SWAP2 POP POP JUMP JUMPDEST PUSH1 0x0 JUMPDEST DUP4 DUP2 LT ISZERO PUSH2 0x1140 JUMPI DUP1 DUP3 ADD MLOAD DUP2 DUP5 ADD MSTORE PUSH1 0x20 DUP2 ADD SWAP1 POP PUSH2 0x1125 JUMP JUMPDEST DUP4 DUP2 GT ISZERO PUSH2 0x114F JUMPI PUSH1 0x0 DUP5 DUP5 ADD MSTORE JUMPDEST POP POP POP POP JUMP JUMPDEST PUSH1 0x0 PUSH1 0x1F NOT PUSH1 0x1F DUP4 ADD AND SWAP1 POP SWAP2 SWAP1 POP JUMP JUMPDEST PUSH1 0x0 PUSH2 0x1171 DUP3 PUSH2 0x1106 JUMP JUMPDEST PUSH2 0x117B DUP2 DUP6 PUSH2 0x1111 JUMP JUMPDEST SWAP4 POP PUSH2 0x118B DUP2 DUP6 PUSH1 0x20 DUP7 ADD PUSH2 0x1122 JUMP JUMPDEST PUSH2 0x1194 DUP2 PUSH2 0x1155 JUMP JUMPDEST DUP5 ADD SWAP2 POP POP SWAP3 SWAP2 POP POP JUMP JUMPDEST PUSH1 0x0 PUSH1 0x20 DUP3 ADD SWAP1 POP DUP2 DUP2 SUB PUSH1 0x0 DUP4 ADD MSTORE PUSH2 0x11B9 DUP2 DUP5 PUSH2 0x1166 JUMP JUMPDEST SWAP1 POP SWAP3 SWAP2 POP POP JUMP JUMPDEST PUSH1 0x0 DUP1 REVERT JUMPDEST PUSH1 0x0 PUSH20 0xFFFFFFFFFFFFFFFFFFFFFFFFFFFFFFFFFFFFFFFF DUP3 AND SWAP1 POP SWAP2 SWAP1 POP JUMP JUMPDEST PUSH1 0x0 PUSH2 0x11F1 DUP3 PUSH2 0x11C6 JUMP JUMPDEST SWAP1 POP SWAP2 SWAP1 POP JUMP JUMPDEST PUSH2 0x1201 DUP2 PUSH2 0x11E6 JUMP JUMPDEST DUP2 EQ PUSH2 0x120C JUMPI PUSH1 0x0 DUP1 REVERT JUMPDEST POP JUMP JUMPDEST PUSH1 0x0 DUP2 CALLDATALOAD SWAP1 POP PUSH2 0x121E DUP2 PUSH2 0x11F8 JUMP JUMPDEST SWAP3 SWAP2 POP POP JUMP JUMPDEST PUSH1 0x0 DUP2 SWAP1 POP SWAP2 SWAP1 POP JUMP JUMPDEST PUSH2 0x1237 DUP2 PUSH2 0x1224 JUMP JUMPDEST DUP2 EQ PUSH2 0x1242 JUMPI PUSH1 0x0 DUP1 REVERT JUMPDEST POP JUMP JUMPDEST PUSH1 0x0 DUP2 CALLDATALOAD SWAP1 POP PUSH2 0x1254 DUP2 PUSH2 0x122E JUMP JUMPDEST SWAP3 SWAP2 POP POP JUMP JUMPDEST PUSH1 0x0 DUP1 PUSH1 0x40 DUP4 DUP6 SUB SLT ISZERO PUSH2 0x1271 JUMPI PUSH2 0x1270 PUSH2 0x11C1 JUMP JUMPDEST JUMPDEST PUSH1 0x0 PUSH2 0x127F DUP6 DUP3 DUP7 ADD PUSH2 0x120F JUMP JUMPDEST SWAP3 POP POP PUSH1 0x20 PUSH2 0x1290 DUP6 DUP3 DUP7 ADD PUSH2 0x1245 JUMP JUMPDEST SWAP2 POP POP SWAP3 POP SWAP3 SWAP1 POP JUMP JUMPDEST PUSH1 0x0 DUP2 ISZERO ISZERO SWAP1 POP SWAP2 SWAP1 POP JUMP JUMPDEST PUSH2 0x12AF DUP2 PUSH2 0x129A JUMP JUMPDEST DUP3 MSTORE POP POP JUMP JUMPDEST PUSH1 0x0 PUSH1 0x20 DUP3 ADD SWAP1 POP PUSH2 0x12CA PUSH1 0x0 DUP4 ADD DUP5 PUSH2 0x12A6 JUMP JUMPDEST SWAP3 SWAP2 POP POP JUMP JUMPDEST PUSH2 0x12D9 DUP2 PUSH2 0x1224 JUMP JUMPDEST DUP3 MSTORE POP POP JUMP JUMPDEST PUSH1 0x0 PUSH1 0x20 DUP3 ADD SWAP1 POP PUSH2 0x12F4 PUSH1 0x0 DUP4 ADD DUP5 PUSH2 0x12D0 JUMP JUMPDEST SWAP3 SWAP2 POP POP JUMP JUMPDEST PUSH1 0x0 DUP1 PUSH1 0x0 PUSH1 0x60 DUP5 DUP7 SUB SLT ISZERO PUSH2 0x1313 JUMPI PUSH2 0x1312 PUSH2 0x11C1 JUMP JUMPDEST JUMPDEST PUSH1 0x0 PUSH2 0x1321 DUP7 DUP3 DUP8 ADD PUSH2 0x120F JUMP JUMPDEST SWAP4 POP POP PUSH1 0x20 PUSH2 0x1332 DUP7 DUP3 DUP8 ADD PUSH2 0x120F JUMP JUMPDEST SWAP3 POP POP PUSH1 0x40 PUSH2 0x1343 DUP7 DUP3 DUP8 ADD PUSH2 0x1245 JUMP JUMPDEST SWAP2 POP POP SWAP3 POP SWAP3 POP SWAP3 JUMP JUMPDEST PUSH1 0x0 PUSH1 0xFF DUP3 AND SWAP1 POP SWAP2 SWAP1 POP JUMP JUMPDEST PUSH2 0x1363 DUP2 PUSH2 0x134D JUMP JUMPDEST DUP3 MSTORE POP POP JUMP JUMPDEST PUSH1 0x0 PUSH1 0x20 DUP3 ADD SWAP1 POP PUSH2 0x137E PUSH1 0x0 DUP4 ADD DUP5 PUSH2 0x135A JUMP JUMPDEST SWAP3 SWAP2 POP POP JUMP JUMPDEST PUSH1 0x0 PUSH1 0x20 DUP3 DUP5 SUB SLT ISZERO PUSH2 0x139A JUMPI PUSH2 0x1399 PUSH2 0x11C1 JUMP JUMPDEST JUMPDEST PUSH1 0x0 PUSH2 0x13A8 DUP5 DUP3 DUP6 ADD PUSH2 0x120F JUMP JUMPDEST SWAP2 POP POP SWAP3 SWAP2 POP POP JUMP JUMPDEST PUSH2 0x13BA DUP2 PUSH2 0x11E6 JUMP JUMPDEST DUP3 MSTORE POP POP JUMP JUMPDEST PUSH1 0x0 PUSH1 0x20 DUP3 ADD SWAP1 POP PUSH2 0x13D5 PUSH1 0x0 DUP4 ADD DUP5 PUSH2 0x13B1 JUMP JUMPDEST SWAP3 SWAP2 POP POP JUMP JUMPDEST PUSH1 0x0 DUP1 PUSH1 0x40 DUP4 DUP6 SUB SLT ISZERO PUSH2 0x13F2 JUMPI PUSH2 0x13F1 PUSH2 0x11C1 JUMP JUMPDEST JUMPDEST PUSH1 0x0 PUSH2 0x1400 DUP6 DUP3 DUP7 ADD PUSH2 0x120F JUMP JUMPDEST SWAP3 POP POP PUSH1 0x20 PUSH2 0x1411 DUP6 DUP3 DUP7 ADD PUSH2 0x120F JUMP JUMPDEST SWAP2 POP POP SWAP3 POP SWAP3 SWAP1 POP JUMP JUMPDEST PUSH32 0x4E487B7100000000000000000000000000000000000000000000000000000000 PUSH1 0x0 MSTORE PUSH1 0x22 PUSH1 0x4 MSTORE PUSH1 0x24 PUSH1 0x0 REVERT JUMPDEST PUSH1 0x0 PUSH1 0x2 DUP3 DIV SWAP1 POP PUSH1 0x1 DUP3 AND DUP1 PUSH2 0x1462 JUMPI PUSH1 0x7F DUP3 AND SWAP2 POP JUMPDEST PUSH1 0x20 DUP3 LT DUP2 SUB PUSH2 0x1475 JUMPI PUSH2 0x1474 PUSH2 0x141B JUMP JUMPDEST JUMPDEST POP SWAP2 SWAP1 POP JUMP JUMPDEST PUSH32 0x4E487B7100000000000000000000000000000000000000000000000000000000 PUSH1 0x0 MSTORE PUSH1 0x11 PUSH1 0x4 MSTORE PUSH1 0x24 PUSH1 0x0 REVERT JUMPDEST PUSH1 0x0 PUSH2 0x14B5 DUP3 PUSH2 0x1224 JUMP JUMPDEST SWAP2 POP PUSH2 0x14C0 DUP4 PUSH2 0x1224 JUMP JUMPDEST SWAP3 POP DUP3 PUSH32 0xFFFFFFFFFFFFFFFFFFFFFFFFFFFFFFFFFFFFFFFFFFFFFFFFFFFFFFFFFFFFFFFF SUB DUP3 GT ISZERO PUSH2 0x14F5 JUMPI PUSH2 0x14F4 PUSH2 0x147B JUMP JUMPDEST JUMPDEST DUP3 DUP3 ADD SWAP1 POP SWAP3 SWAP2 POP POP JUMP JUMPDEST PUSH32 0x45524332303A2064656372656173656420616C6C6F77616E63652062656C6F77 PUSH1 0x0 DUP3 ADD MSTORE PUSH32 0x207A65726F000000000000000000000000000000000000000000000000000000 PUSH1 0x20 DUP3 ADD MSTORE POP JUMP JUMPDEST PUSH1 0x0 PUSH2 0x155C PUSH1 0x25 DUP4 PUSH2 0x1111 JUMP JUMPDEST SWAP2 POP PUSH2 0x1567 DUP3 PUSH2 0x1500 JUMP JUMPDEST PUSH1 0x40 DUP3 ADD SWAP1 POP SWAP2 SWAP1 POP JUMP JUMPDEST PUSH1 0x0 PUSH1 0x20 DUP3 ADD SWAP1 POP DUP2 DUP2 SUB PUSH1 0x0 DUP4 ADD MSTORE PUSH2 0x158B DUP2 PUSH2 0x154F JUMP JUMPDEST SWAP1 POP SWAP2 SWAP1 POP JUMP JUMPDEST PUSH32 0x4F776E61626C653A206E6577206F776E657220697320746865207A65726F2061 PUSH1 0x0 DUP3 ADD MSTORE PUSH32 0x6464726573730000000000000000000000000000000000000000000000000000 PUSH1 0x20 DUP3 ADD MSTORE POP JUMP JUMPDEST PUSH1 0x0 PUSH2 0x15EE PUSH1 0x26 DUP4 PUSH2 0x1111 JUMP JUMPDEST SWAP2 POP PUSH2 0x15F9 DUP3 PUSH2 0x1592 JUMP JUMPDEST PUSH1 0x40 DUP3 ADD SWAP1 POP SWAP2 SWAP1 POP JUMP JUMPDEST PUSH1 0x0 PUSH1 0x20 DUP3 ADD SWAP1 POP DUP2 DUP2 SUB PUSH1 0x0 DUP4 ADD MSTORE PUSH2 0x161D DUP2 PUSH2 0x15E1 JUMP JUMPDEST SWAP1 POP SWAP2 SWAP1 POP JUMP JUMPDEST PUSH32 0x45524332303A20617070726F76652066726F6D20746865207A65726F20616464 PUSH1 0x0 DUP3 ADD MSTORE PUSH32 0x7265737300000000000000000000000000000000000000000000000000000000 PUSH1 0x20 DUP3 ADD MSTORE POP JUMP JUMPDEST PUSH1 0x0 PUSH2 0x1680 PUSH1 0x24 DUP4 PUSH2 0x1111 JUMP JUMPDEST SWAP2 POP PUSH2 0x168B DUP3 PUSH2 0x1624 JUMP JUMPDEST PUSH1 0x40 DUP3 ADD SWAP1 POP SWAP2 SWAP1 POP JUMP JUMPDEST PUSH1 0x0 PUSH1 0x20 DUP3 ADD SWAP1 POP DUP2 DUP2 SUB PUSH1 0x0 DUP4 ADD MSTORE PUSH2 0x16AF DUP2 PUSH2 0x1673 JUMP JUMPDEST SWAP1 POP SWAP2 SWAP1 POP JUMP JUMPDEST PUSH32 0x45524332303A20617070726F766520746F20746865207A65726F206164647265 PUSH1 0x0 DUP3 ADD MSTORE PUSH32 0x7373000000000000000000000000000000000000000000000000000000000000 PUSH1 0x20 DUP3 ADD MSTORE POP JUMP JUMPDEST PUSH1 0x0 PUSH2 0x1712 PUSH1 0x22 DUP4 PUSH2 0x1111 JUMP JUMPDEST SWAP2 POP PUSH2 0x171D DUP3 PUSH2 0x16B6 JUMP JUMPDEST PUSH1 0x40 DUP3 ADD SWAP1 POP SWAP2 SWAP1 POP JUMP JUMPDEST PUSH1 0x0 PUSH1 0x20 DUP3 ADD SWAP1 POP DUP2 DUP2 SUB PUSH1 0x0 DUP4 ADD MSTORE PUSH2 0x1741 DUP2 PUSH2 0x1705 JUMP JUMPDEST SWAP1 POP SWAP2 SWAP1 POP JUMP JUMPDEST PUSH32 0x45524332303A20696E73756666696369656E7420616C6C6F77616E6365000000 PUSH1 0x0 DUP3 ADD MSTORE POP JUMP JUMPDEST PUSH1 0x0 PUSH2 0x177E PUSH1 0x1D DUP4 PUSH2 0x1111 JUMP JUMPDEST SWAP2 POP PUSH2 0x1789 DUP3 PUSH2 0x1748 JUMP JUMPDEST PUSH1 0x20 DUP3 ADD SWAP1 POP SWAP2 SWAP1 POP JUMP JUMPDEST PUSH1 0x0 PUSH1 0x20 DUP3 ADD SWAP1 POP DUP2 DUP2 SUB PUSH1 0x0 DUP4 ADD MSTORE PUSH2 0x17AD DUP2 PUSH2 0x1771 JUMP JUMPDEST SWAP1 POP SWAP2 SWAP1 POP JUMP JUMPDEST PUSH32 0x45524332303A207472616E736665722066726F6D20746865207A65726F206164 PUSH1 0x0 DUP3 ADD MSTORE PUSH32 0x6472657373000000000000000000000000000000000000000000000000000000 PUSH1 0x20 DUP3 ADD MSTORE POP JUMP JUMPDEST PUSH1 0x0 PUSH2 0x1810 PUSH1 0x25 DUP4 PUSH2 0x1111 JUMP JUMPDEST SWAP2 POP PUSH2 0x181B DUP3 PUSH2 0x17B4 JUMP JUMPDEST PUSH1 0x40 DUP3 ADD SWAP1 POP SWAP2 SWAP1 POP JUMP JUMPDEST PUSH1 0x0 PUSH1 0x20 DUP3 ADD SWAP1 POP DUP2 DUP2 SUB PUSH1 0x0 DUP4 ADD MSTORE PUSH2 0x183F DUP2 PUSH2 0x1803 JUMP JUMPDEST SWAP1 POP SWAP2 SWAP1 POP JUMP JUMPDEST PUSH32 0x45524332303A207472616E7366657220746F20746865207A65726F2061646472 PUSH1 0x0 DUP3 ADD MSTORE PUSH32 0x6573730000000000000000000000000000000000000000000000000000000000 PUSH1 0x20 DUP3 ADD MSTORE POP JUMP JUMPDEST PUSH1 0x0 PUSH2 0x18A2 PUSH1 0x23 DUP4 PUSH2 0x1111 JUMP JUMPDEST SWAP2 POP PUSH2 0x18AD DUP3 PUSH2 0x1846 JUMP JUMPDEST PUSH1 0x40 DUP3 ADD SWAP1 POP SWAP2 SWAP1 POP JUMP JUMPDEST PUSH1 0x0 PUSH1 0x20 DUP3 ADD SWAP1 POP DUP2 DUP2 SUB PUSH1 0x0 DUP4 ADD MSTORE PUSH2 0x18D1 DUP2 PUSH2 0x1895 JUMP JUMPDEST SWAP1 POP SWAP2 SWAP1 POP JUMP JUMPDEST PUSH32 0x45524332303A207472616E7366657220616D6F756E7420657863656564732062 PUSH1 0x0 DUP3 ADD MSTORE PUSH32 0x616C616E63650000000000000000000000000000000000000000000000000000 PUSH1 0x20 DUP3 ADD MSTORE POP JUMP JUMPDEST PUSH1 0x0 PUSH2 0x1934 PUSH1 0x26 DUP4 PUSH2 0x1111 JUMP JUMPDEST SWAP2 POP PUSH2 0x193F DUP3 PUSH2 0x18D8 JUMP JUMPDEST PUSH1 0x40 DUP3 ADD SWAP1 POP SWAP2 SWAP1 POP JUMP JUMPDEST PUSH1 0x0 PUSH1 0x20 DUP3 ADD SWAP1 POP DUP2 DUP2 SUB PUSH1 0x0 DUP4 ADD MSTORE PUSH2 0x1963 DUP2 PUSH2 0x1927 JUMP JUMPDEST SWAP1 POP SWAP2 SWAP1 POP JUMP JUMPDEST PUSH32 0x4F776E61626C653A2063616C6C6572206973206E6F7420746865206F776E6572 PUSH1 0x0 DUP3 ADD MSTORE POP JUMP JUMPDEST PUSH1 0x0 PUSH2 0x19A0 PUSH1 0x20 DUP4 PUSH2 0x1111 JUMP JUMPDEST SWAP2 POP PUSH2 0x19AB DUP3 PUSH2 0x196A JUMP JUMPDEST PUSH1 0x20 DUP3 ADD SWAP1 POP SWAP2 SWAP1 POP JUMP JUMPDEST PUSH1 0x0 PUSH1 0x20 DUP3 ADD SWAP1 POP DUP2 DUP2 SUB PUSH1 0x0 DUP4 ADD MSTORE PUSH2 0x19CF DUP2 PUSH2 0x1993 JUMP JUMPDEST SWAP1 POP SWAP2 SWAP1 POP JUMP JUMPDEST PUSH32 0x45524332303A206D696E7420746F20746865207A65726F206164647265737300 PUSH1 0x0 DUP3 ADD MSTORE POP JUMP JUMPDEST PUSH1 0x0 PUSH2 0x1A0C PUSH1 0x1F DUP4 PUSH2 0x1111 JUMP JUMPDEST SWAP2 POP PUSH2 0x1A17 DUP3 PUSH2 0x19D6 JUMP JUMPDEST PUSH1 0x20 DUP3 ADD SWAP1 POP SWAP2 SWAP1 POP JUMP JUMPDEST PUSH1 0x0 PUSH1 0x20 DUP3 ADD SWAP1 POP DUP2 DUP2 SUB PUSH1 0x0 DUP4 ADD MSTORE PUSH2 0x1A3B DUP2 PUSH2 0x19FF JUMP JUMPDEST SWAP1 POP SWAP2 SWAP1 POP JUMP JUMPDEST PUSH32 0x45524332303A206275726E2066726F6D20746865207A65726F20616464726573 PUSH1 0x0 DUP3 ADD MSTORE PUSH32 0x7300000000000000000000000000000000000000000000000000000000000000 PUSH1 0x20 DUP3 ADD MSTORE POP JUMP JUMPDEST PUSH1 0x0 PUSH2 0x1A9E PUSH1 0x21 DUP4 PUSH2 0x1111 JUMP JUMPDEST SWAP2 POP PUSH2 0x1AA9 DUP3 PUSH2 0x1A42 JUMP JUMPDEST PUSH1 0x40 DUP3 ADD SWAP1 POP SWAP2 SWAP1 POP JUMP JUMPDEST PUSH1 0x0 PUSH1 0x20 DUP3 ADD SWAP1 POP DUP2 DUP2 SUB PUSH1 0x0 DUP4 ADD MSTORE PUSH2 0x1ACD DUP2 PUSH2 0x1A91 JUMP JUMPDEST SWAP1 POP SWAP2 SWAP1 POP JUMP JUMPDEST PUSH32 0x45524332303A206275726E20616D6F756E7420657863656564732062616C616E PUSH1 0x0 DUP3 ADD MSTORE PUSH32 0x6365000000000000000000000000000000000000000000000000000000000000 PUSH1 0x20 DUP3 ADD MSTORE POP JUMP JUMPDEST PUSH1 0x0 PUSH2 0x1B30 PUSH1 0x22 DUP4 PUSH2 0x1111 JUMP JUMPDEST SWAP2 POP PUSH2 0x1B3B DUP3 PUSH2 0x1AD4 JUMP JUMPDEST PUSH1 0x40 DUP3 ADD SWAP1 POP SWAP2 SWAP1 POP JUMP JUMPDEST PUSH1 0x0 PUSH1 0x20 DUP3 ADD SWAP1 POP DUP2 DUP2 SUB PUSH1 0x0 DUP4 ADD MSTORE PUSH2 0x1B5F DUP2 PUSH2 0x1B23 JUMP JUMPDEST SWAP1 POP SWAP2 SWAP1 POP JUMP INVALID LOG2 PUSH5 0x6970667358 0x22 SLT KECCAK256 0xA6 0xC9 STATICCALL CREATE2 0xB9 PUSH31 0xFF0FD6CE90861166833C018225CABDE5FF359897F6173CD3CB5B64736F6C63 NUMBER STOP ADDMOD 0xD STOP CALLER LOG2 PUSH5 0x6970667358 0x22 SLT KECCAK256 PUSH28 0x1C0F75EBD34385082D6277EA96CE53F296FE24862ECA8D4BD425B0 DUP11 0xDB 0x4F PUSH5 0x736F6C6343 STOP ADDMOD 0xD STOP CALLER PUSH1 0xC0 PUSH1 0x40 MSTORE CALLVALUE DUP1 ISZERO PUSH3 0x11 JUMPI PUSH1 0x0 DUP1 REVERT JUMPDEST POP PUSH1 0x40 MLOAD PUSH3 0x1274 CODESIZE SUB DUP1 PUSH3 0x1274 DUP4 CODECOPY DUP2 DUP2 ADD PUSH1 0x40 MSTORE DUP2 ADD SWAP1 PUSH3 0x37 SWAP2 SWAP1 PUSH3 0x6AC JUMP JUMPDEST PUSH3 0x66 DUP3 PUSH3 0x52 DUP4 PUSH3 0xDE PUSH1 0x20 SHL PUSH3 0x2C8 OR PUSH1 0x20 SHR JUMP JUMPDEST PUSH3 0x33B PUSH1 0x20 SHL PUSH3 0x524 OR SWAP1 SWAP2 SWAP1 PUSH1 0x20 SHR JUMP JUMPDEST PUSH1 0xA0 DUP2 DUP2 MSTORE POP POP PUSH1 0x0 PUSH3 0xA0 PUSH3 0x8F DUP5 PUSH1 0xA0 MLOAD PUSH3 0x379 PUSH1 0x20 SHL PUSH3 0x561 OR SWAP1 SWAP2 SWAP1 PUSH1 0x20 SHR JUMP JUMPDEST PUSH3 0x3B3 PUSH1 0x20 SHL PUSH3 0x599 OR PUSH1 0x20 SHR JUMP JUMPDEST SWAP1 POP PUSH3 0xCE PUSH1 0xA0 MLOAD PUSH1 0x1 DUP4 PUSH3 0xB8 SWAP2 SWAP1 PUSH3 0x722 JUMP JUMPDEST DUP5 PUSH3 0x5AB PUSH1 0x20 SHL PUSH3 0x789 OR SWAP1 SWAP3 SWAP2 SWAP1 PUSH1 0x20 SHR JUMP JUMPDEST PUSH1 0x80 DUP2 DUP2 MSTORE POP POP POP POP POP PUSH3 0x78C JUMP JUMPDEST PUSH1 0x0 DUP2 PUSH16 0xFFFFFFFFFFFFFFFFFFFFFFFFFFFFFFFF LT PUSH1 0x7 SHL SWAP1 POP DUP2 DUP2 SHR PUSH8 0xFFFFFFFFFFFFFFFF LT PUSH1 0x6 SHL DUP2 OR SWAP1 POP DUP2 DUP2 SHR PUSH4 0xFFFFFFFF LT PUSH1 0x5 SHL DUP2 OR SWAP1 POP DUP2 DUP2 SHR PUSH2 0xFFFF LT PUSH1 0x4 SHL DUP2 OR SWAP1 POP DUP2 DUP2 SHR PUSH1 0xFF LT PUSH1 0x3 SHL DUP2 OR SWAP1 POP PUSH1 0x0 DUP3 SGT PUSH3 0x14E JUMPI PUSH4 0x1615E638 PUSH1 0x0 MSTORE PUSH1 0x4 PUSH1 0x1C REVERT JUMPDEST PUSH32 0xF8F9F9FAF9FDFAFBF9FDFCFDFAFBFCFEF9FAFDFAFCFCFBFEFAFAFCFBFFFFFFFF PUSH16 0x8421084210842108CC6318C6DB6D54BE DUP4 DUP4 SHR SHR PUSH1 0x1F AND BYTE DUP2 XOR SWAP1 POP DUP2 DUP2 SHL PUSH1 0x9F SHR SWAP2 POP PUSH13 0x8C3F38E95A6B1FF2AB1C3B3437 DUP3 DUP4 DUP5 DUP6 PUSH13 0x29508E458543D8AA4DF2ABEE78 ADD MUL PUSH1 0x60 SAR PUSH14 0x139601A2EFABE717E604CBB4894 ADD MUL PUSH1 0x60 SAR PUSH14 0x2247F7A7B6594320649AA03ABA1 ADD MUL PUSH1 0x60 SAR SUB PUSH14 0x2384773BDF1AC5676FACCED6091 DUP4 DUP3 MUL PUSH1 0x60 SAR SUB SWAP1 POP PUSH13 0xB9A025D814B29C212B8B1A07CE DUP4 DUP3 MUL PUSH1 0x60 SAR SUB SWAP1 POP PUSH13 0xA09507084CC699BB0E71EA86A PUSH1 0x60 SHL DUP4 DUP3 MUL SUB SWAP1 POP DUP3 PUSH13 0x465772B2BBBB5F824B15207A30 ADD DUP1 DUP5 MUL PUSH1 0x60 SAR PUSH14 0x388EAA27412D5ACA026815D636E ADD SWAP1 POP DUP1 DUP5 MUL PUSH1 0x60 SAR PUSH14 0xDF99AC502031BF953EFF472FDCC ADD SWAP1 POP DUP1 DUP5 MUL PUSH1 0x60 SAR PUSH14 0x13CDFFB29D51D99322BDFF5F2211 ADD SWAP1 POP DUP1 DUP5 MUL PUSH1 0x60 SAR PUSH14 0xA0F742023DEF783A307A986912E ADD SWAP1 POP DUP1 DUP5 MUL PUSH1 0x60 SAR PUSH14 0x1920D8043CA89B5239253284E42 ADD SWAP1 POP DUP1 DUP5 MUL PUSH1 0x60 SAR PUSH13 0xB7A86D7375468FAC667A0A527 ADD SWAP1 POP DUP1 DUP3 SDIV SWAP2 POP DUP2 PUSH18 0x1340DAA0D5F769DBA1915CEF59F0815A5506 MUL SWAP2 POP DUP2 DUP4 PUSH1 0x9F SUB PUSH30 0x267A36C0C95B3975AB3EE5B203A7614A3F75373F047D803AE7B6687F2B3 MUL ADD SWAP2 POP DUP2 PUSH30 0x57115E47018C7177EEBF7CD370A3356A1B7863008A5AE8028C72B8864284 ADD SWAP2 POP DUP2 PUSH1 0xAE SAR SWAP3 POP POP POP SWAP2 SWAP1 POP JUMP JUMPDEST PUSH1 0x0 PUSH8 0xDE0B6B3A7640000 PUSH1 0x0 NOT DIV PUSH1 0x1 ADD DUP4 LT DUP3 MUL PUSH3 0x364 JUMPI PUSH4 0x7C5F487D PUSH1 0x0 MSTORE PUSH1 0x4 PUSH1 0x1C REVERT JUMPDEST DUP2 PUSH8 0xDE0B6B3A7640000 DUP5 MUL DIV SWAP1 POP SWAP3 SWAP2 POP POP JUMP JUMPDEST PUSH1 0x0 DUP2 PUSH1 0x0 NOT DIV DUP4 GT ISZERO PUSH3 0x39E JUMPI DUP2 ISZERO PUSH3 0x39D JUMPI PUSH4 0xBAC65E5B PUSH1 0x0 MSTORE PUSH1 0x4 PUSH1 0x1C REVERT JUMPDEST JUMPDEST PUSH8 0xDE0B6B3A7640000 DUP3 DUP5 MUL DIV SWAP1 POP SWAP3 SWAP2 POP POP JUMP JUMPDEST PUSH1 0x0 PUSH32 0xFFFFFFFFFFFFFFFFFFFFFFFFFFFFFFFFFFFFFFFFFFFFFFFDC0D0570925A462D7 DUP3 SGT ISZERO PUSH3 0x5A6 JUMPI PUSH9 0x755BF798B4A1BF1E5 DUP3 SLT PUSH3 0x3FD JUMPI PUSH4 0xA37BFEC9 PUSH1 0x0 MSTORE PUSH1 0x4 PUSH1 0x1C REVERT JUMPDEST PUSH6 0x3782DACE9D9 PUSH1 0x4E DUP4 SWAP1 SHL DUP2 PUSH3 0x41A JUMPI PUSH3 0x419 PUSH3 0x75D JUMP JUMPDEST JUMPDEST SDIV SWAP2 POP PUSH1 0x0 PUSH1 0x60 PUSH12 0x800000000000000000000000 PUSH12 0xB17217F7D1CF79ABC9E3B398 PUSH1 0x60 DUP7 SWAP1 SHL DUP2 PUSH3 0x451 JUMPI PUSH3 0x450 PUSH3 0x75D JUMP JUMPDEST JUMPDEST SDIV ADD SWAP1 SAR SWAP1 POP PUSH12 0xB17217F7D1CF79ABC9E3B398 DUP2 MUL DUP4 SUB SWAP3 POP PUSH1 0x0 PUSH13 0x10FE68E7FD37D0007B713F7650 DUP5 ADD SWAP1 POP PUSH14 0x2D16720577BD19BF614176FE9EA PUSH1 0x60 DUP6 DUP4 MUL SWAP1 SAR ADD SWAP1 POP PUSH1 0x0 PUSH14 0x4A4FD9F2A8B96949216D2255A6C DUP6 DUP4 ADD SUB SWAP1 POP PUSH15 0x587F503BB6EA29D25FCB740196450 PUSH1 0x60 DUP4 DUP4 MUL SWAP1 SAR ADD SWAP1 POP PUSH26 0xD835EBBA824C98FB31B83B2CA45C000000000000000000000000 DUP6 DUP3 MUL ADD SWAP1 POP PUSH1 0x0 PUSH13 0x240C330E9FB2D9CBAF0FD5AAFC DUP7 SUB SWAP1 POP PUSH14 0x277594991CFC85F6E2461837CD9 PUSH1 0x60 DUP8 DUP4 MUL SWAP1 SAR ADD SWAP1 POP PUSH14 0x1A521255E34F6A5061B25EF1C9C4 PUSH1 0x60 DUP8 DUP4 MUL SWAP1 SAR SUB SWAP1 POP PUSH14 0xB1BBB201F443CF962F1A1D3DB4A5 PUSH1 0x60 DUP8 DUP4 MUL SWAP1 SAR ADD SWAP1 POP PUSH15 0x2C72388D9F74F51A9331FED693F15 PUSH1 0x60 DUP8 DUP4 MUL SWAP1 SAR SUB SWAP1 POP PUSH15 0x5180BB14799AB47A8A8CB2A527D57 PUSH1 0x60 DUP8 DUP4 MUL SWAP1 SAR ADD SWAP1 POP DUP1 DUP3 SDIV SWAP5 POP DUP4 PUSH1 0xC3 SUB PUSH21 0x29D9DC38563C32E5C2F6DC192EE70EF65F9978AF3 DUP7 MUL SWAP1 SHR SWAP5 POP POP POP POP POP JUMPDEST SWAP2 SWAP1 POP JUMP JUMPDEST PUSH1 0x0 DUP3 DUP5 MUL SWAP1 POP PUSH1 0x1 ISZERO PUSH3 0x665 JUMPI DUP2 DUP4 DUP6 DUP4 DIV EQ DUP6 ISZERO OR MUL PUSH3 0x65F JUMPI PUSH1 0x0 NOT DUP4 DUP6 MULMOD DUP2 DUP2 LT DUP3 ADD DUP2 SUB DUP4 DUP6 DUP8 MULMOD DUP5 PUSH1 0x0 SUB DUP6 AND DUP3 DUP7 GT PUSH3 0x5F6 JUMPI PUSH4 0xAE47F702 PUSH1 0x0 MSTORE PUSH1 0x4 PUSH1 0x1C REVERT JUMPDEST DUP1 DUP7 DIV SWAP6 POP DUP6 PUSH1 0x3 MUL PUSH1 0x2 XOR DUP1 DUP8 MUL PUSH1 0x2 SUB DUP2 MUL SWAP1 POP DUP1 DUP8 MUL PUSH1 0x2 SUB DUP2 MUL SWAP1 POP DUP1 DUP8 MUL PUSH1 0x2 SUB DUP2 MUL SWAP1 POP DUP1 DUP8 MUL PUSH1 0x2 SUB DUP2 MUL SWAP1 POP DUP1 DUP8 MUL PUSH1 0x2 SUB DUP2 MUL SWAP1 POP DUP1 DUP2 DUP9 MUL PUSH1 0x2 SUB MUL DUP3 DUP5 DUP9 SUB DIV PUSH1 0x1 DUP5 DUP6 PUSH1 0x0 SUB DIV ADD DUP9 DUP7 GT DUP8 SUB MUL OR MUL SWAP6 POP POP POP POP POP POP PUSH3 0x665 JUMP JUMPDEST DUP2 DUP2 DIV SWAP1 POP JUMPDEST SWAP4 SWAP3 POP POP POP JUMP JUMPDEST PUSH1 0x0 DUP1 REVERT JUMPDEST PUSH1 0x0 DUP2 SWAP1 POP SWAP2 SWAP1 POP JUMP JUMPDEST PUSH3 0x686 DUP2 PUSH3 0x671 JUMP JUMPDEST DUP2 EQ PUSH3 0x692 JUMPI PUSH1 0x0 DUP1 REVERT JUMPDEST POP JUMP JUMPDEST PUSH1 0x0 DUP2 MLOAD SWAP1 POP PUSH3 0x6A6 DUP2 PUSH3 0x67B JUMP JUMPDEST SWAP3 SWAP2 POP POP JUMP JUMPDEST PUSH1 0x0 DUP1 PUSH1 0x40 DUP4 DUP6 SUB SLT ISZERO PUSH3 0x6C6 JUMPI PUSH3 0x6C5 PUSH3 0x66C JUMP JUMPDEST JUMPDEST PUSH1 0x0 PUSH3 0x6D6 DUP6 DUP3 DUP7 ADD PUSH3 0x695 JUMP JUMPDEST SWAP3 POP POP PUSH1 0x20 PUSH3 0x6E9 DUP6 DUP3 DUP7 ADD PUSH3 0x695 JUMP JUMPDEST SWAP2 POP POP SWAP3 POP SWAP3 SWAP1 POP JUMP JUMPDEST PUSH32 0x4E487B7100000000000000000000000000000000000000000000000000000000 PUSH1 0x0 MSTORE PUSH1 0x11 PUSH1 0x4 MSTORE PUSH1 0x24 PUSH1 0x0 REVERT JUMPDEST PUSH1 0x0 PUSH3 0x72F DUP3 PUSH3 0x671 JUMP JUMPDEST SWAP2 POP PUSH3 0x73C DUP4 PUSH3 0x671 JUMP JUMPDEST SWAP3 POP DUP3 DUP3 LT ISZERO PUSH3 0x752 JUMPI PUSH3 0x751 PUSH3 0x6F3 JUMP JUMPDEST JUMPDEST DUP3 DUP3 SUB SWAP1 POP SWAP3 SWAP2 POP POP JUMP JUMPDEST PUSH32 0x4E487B7100000000000000000000000000000000000000000000000000000000 PUSH1 0x0 MSTORE PUSH1 0x12 PUSH1 0x4 MSTORE PUSH1 0x24 PUSH1 0x0 REVERT JUMPDEST PUSH1 0x80 MLOAD PUSH1 0xA0 MLOAD PUSH2 0xAA7 PUSH3 0x7CD PUSH1 0x0 CODECOPY PUSH1 0x0 DUP2 DUP2 PUSH1 0xEF ADD MSTORE DUP2 DUP2 PUSH2 0x13B ADD MSTORE PUSH2 0x1FB ADD MSTORE PUSH1 0x0 DUP2 DUP2 PUSH2 0x116 ADD MSTORE DUP2 DUP2 PUSH2 0x1D6 ADD MSTORE PUSH2 0x2A6 ADD MSTORE PUSH2 0xAA7 PUSH1 0x0 RETURN INVALID PUSH1 0x80 PUSH1 0x40 MSTORE CALLVALUE DUP1 ISZERO PUSH2 0x10 JUMPI PUSH1 0x0 DUP1 REVERT JUMPDEST POP PUSH1 0x4 CALLDATASIZE LT PUSH2 0x4C JUMPI PUSH1 0x0 CALLDATALOAD PUSH1 0xE0 SHR DUP1 PUSH4 0x32E7C5BF EQ PUSH2 0x51 JUMPI DUP1 PUSH4 0x7CABB7CF EQ PUSH2 0x6F JUMPI DUP1 PUSH4 0x901CE73E EQ PUSH2 0x9F JUMPI DUP1 PUSH4 0xF446C1D0 EQ PUSH2 0xCF JUMPI JUMPDEST PUSH1 0x0 DUP1 REVERT JUMPDEST PUSH2 0x59 PUSH2 0xED JUMP JUMPDEST PUSH1 0x40 MLOAD PUSH2 0x66 SWAP2 SWAP1 PUSH2 0x85F JUMP JUMPDEST PUSH1 0x40 MLOAD DUP1 SWAP2 SUB SWAP1 RETURN JUMPDEST PUSH2 0x89 PUSH1 0x4 DUP1 CALLDATASIZE SUB DUP2 ADD SWAP1 PUSH2 0x84 SWAP2 SWAP1 PUSH2 0x8AB JUMP JUMPDEST PUSH2 0x111 JUMP JUMPDEST PUSH1 0x40 MLOAD PUSH2 0x96 SWAP2 SWAP1 PUSH2 0x85F JUMP JUMPDEST PUSH1 0x40 MLOAD DUP1 SWAP2 SUB SWAP1 RETURN JUMPDEST PUSH2 0xB9 PUSH1 0x4 DUP1 CALLDATASIZE SUB DUP2 ADD SWAP1 PUSH2 0xB4 SWAP2 SWAP1 PUSH2 0x8AB JUMP JUMPDEST PUSH2 0x1D1 JUMP JUMPDEST PUSH1 0x40 MLOAD PUSH2 0xC6 SWAP2 SWAP1 PUSH2 0x85F JUMP JUMPDEST PUSH1 0x40 MLOAD DUP1 SWAP2 SUB SWAP1 RETURN JUMPDEST PUSH2 0xD7 PUSH2 0x2A4 JUMP JUMPDEST PUSH1 0x40 MLOAD PUSH2 0xE4 SWAP2 SWAP1 PUSH2 0x85F JUMP JUMPDEST PUSH1 0x40 MLOAD DUP1 SWAP2 SUB SWAP1 RETURN JUMPDEST PUSH32 0x0 DUP2 JUMP JUMPDEST PUSH1 0x0 DUP1 PUSH32 0x0 SWAP1 POP PUSH1 0x0 PUSH32 0x0 SWAP1 POP PUSH1 0x0 PUSH2 0x179 PUSH2 0x174 DUP8 DUP5 PUSH2 0x561 SWAP1 SWAP2 SWAP1 PUSH4 0xFFFFFFFF AND JUMP JUMPDEST PUSH2 0x599 JUMP JUMPDEST SWAP1 POP PUSH1 0x0 PUSH2 0x192 DUP4 DUP6 DUP9 PUSH2 0x789 SWAP1 SWAP3 SWAP2 SWAP1 PUSH4 0xFFFFFFFF AND JUMP JUMPDEST DUP3 PUSH2 0x19D SWAP2 SWAP1 PUSH2 0x91A JUMP JUMPDEST SWAP1 POP DUP7 PUSH2 0x1BB DUP5 PUSH2 0x1AD DUP5 PUSH2 0x2C8 JUMP JUMPDEST PUSH2 0x524 SWAP1 SWAP2 SWAP1 PUSH4 0xFFFFFFFF AND JUMP JUMPDEST PUSH2 0x1C5 SWAP2 SWAP1 PUSH2 0x970 JUMP JUMPDEST SWAP5 POP POP POP POP POP SWAP3 SWAP2 POP POP JUMP JUMPDEST PUSH1 0x0 DUP1 PUSH32 0x0 SWAP1 POP PUSH1 0x0 PUSH32 0x0 SWAP1 POP DUP4 DUP6 LT ISZERO PUSH2 0x229 JUMPI PUSH1 0x0 DUP1 REVERT JUMPDEST PUSH1 0x0 PUSH2 0x246 PUSH2 0x241 DUP8 DUP5 PUSH2 0x561 SWAP1 SWAP2 SWAP1 PUSH4 0xFFFFFFFF AND JUMP JUMPDEST PUSH2 0x599 JUMP JUMPDEST SWAP1 POP PUSH1 0x0 PUSH2 0x270 PUSH2 0x26B DUP8 DUP10 PUSH2 0x25C SWAP2 SWAP1 PUSH2 0x970 JUMP JUMPDEST DUP6 PUSH2 0x561 SWAP1 SWAP2 SWAP1 PUSH4 0xFFFFFFFF AND JUMP JUMPDEST PUSH2 0x599 JUMP JUMPDEST SWAP1 POP PUSH1 0x0 DUP2 DUP4 PUSH2 0x280 SWAP2 SWAP1 PUSH2 0x9AE JUMP JUMPDEST SWAP1 POP PUSH2 0x297 DUP2 DUP6 DUP8 PUSH2 0x789 SWAP1 SWAP3 SWAP2 SWAP1 PUSH4 0xFFFFFFFF AND JUMP JUMPDEST SWAP6 POP POP POP POP POP POP SWAP3 SWAP2 POP POP JUMP JUMPDEST PUSH32 0x0 DUP2 JUMP JUMPDEST PUSH1 0x0 DUP2 PUSH16 0xFFFFFFFFFFFFFFFFFFFFFFFFFFFFFFFF LT PUSH1 0x7 SHL SWAP1 POP DUP2 DUP2 SHR PUSH8 0xFFFFFFFFFFFFFFFF LT PUSH1 0x6 SHL DUP2 OR SWAP1 POP DUP2 DUP2 SHR PUSH4 0xFFFFFFFF LT PUSH1 0x5 SHL DUP2 OR SWAP1 POP DUP2 DUP2 SHR PUSH2 0xFFFF LT PUSH1 0x4 SHL DUP2 OR SWAP1 POP DUP2 DUP2 SHR PUSH1 0xFF LT PUSH1 0x3 SHL DUP2 OR SWAP1 POP PUSH1 0x0 DUP3 SGT PUSH2 0x337 JUMPI PUSH4 0x1615E638 PUSH1 0x0 MSTORE PUSH1 0x4 PUSH1 0x1C REVERT JUMPDEST PUSH32 0xF8F9F9FAF9FDFAFBF9FDFCFDFAFBFCFEF9FAFDFAFCFCFBFEFAFAFCFBFFFFFFFF PUSH16 0x8421084210842108CC6318C6DB6D54BE DUP4 DUP4 SHR SHR PUSH1 0x1F AND BYTE DUP2 XOR SWAP1 POP DUP2 DUP2 SHL PUSH1 0x9F SHR SWAP2 POP PUSH13 0x8C3F38E95A6B1FF2AB1C3B3437 DUP3 DUP4 DUP5 DUP6 PUSH13 0x29508E458543D8AA4DF2ABEE78 ADD MUL PUSH1 0x60 SAR PUSH14 0x139601A2EFABE717E604CBB4894 ADD MUL PUSH1 0x60 SAR PUSH14 0x2247F7A7B6594320649AA03ABA1 ADD MUL PUSH1 0x60 SAR SUB PUSH14 0x2384773BDF1AC5676FACCED6091 DUP4 DUP3 MUL PUSH1 0x60 SAR SUB SWAP1 POP PUSH13 0xB9A025D814B29C212B8B1A07CE DUP4 DUP3 MUL PUSH1 0x60 SAR SUB SWAP1 POP PUSH13 0xA09507084CC699BB0E71EA86A PUSH1 0x60 SHL DUP4 DUP3 MUL SUB SWAP1 POP DUP3 PUSH13 0x465772B2BBBB5F824B15207A30 ADD DUP1 DUP5 MUL PUSH1 0x60 SAR PUSH14 0x388EAA27412D5ACA026815D636E ADD SWAP1 POP DUP1 DUP5 MUL PUSH1 0x60 SAR PUSH14 0xDF99AC502031BF953EFF472FDCC ADD SWAP1 POP DUP1 DUP5 MUL PUSH1 0x60 SAR PUSH14 0x13CDFFB29D51D99322BDFF5F2211 ADD SWAP1 POP DUP1 DUP5 MUL PUSH1 0x60 SAR PUSH14 0xA0F742023DEF783A307A986912E ADD SWAP1 POP DUP1 DUP5 MUL PUSH1 0x60 SAR PUSH14 0x1920D8043CA89B5239253284E42 ADD SWAP1 POP DUP1 DUP5 MUL PUSH1 0x60 SAR PUSH13 0xB7A86D7375468FAC667A0A527 ADD SWAP1 POP DUP1 DUP3 SDIV SWAP2 POP DUP2 PUSH18 0x1340DAA0D5F769DBA1915CEF59F0815A5506 MUL SWAP2 POP DUP2 DUP4 PUSH1 0x9F SUB PUSH30 0x267A36C0C95B3975AB3EE5B203A7614A3F75373F047D803AE7B6687F2B3 MUL ADD SWAP2 POP DUP2 PUSH30 0x57115E47018C7177EEBF7CD370A3356A1B7863008A5AE8028C72B8864284 ADD SWAP2 POP DUP2 PUSH1 0xAE SAR SWAP3 POP POP POP SWAP2 SWAP1 POP JUMP JUMPDEST PUSH1 0x0 PUSH8 0xDE0B6B3A7640000 PUSH1 0x0 NOT DIV PUSH1 0x1 ADD DUP4 LT DUP3 MUL PUSH2 0x54C JUMPI PUSH4 0x7C5F487D PUSH1 0x0 MSTORE PUSH1 0x4 PUSH1 0x1C REVERT JUMPDEST DUP2 PUSH8 0xDE0B6B3A7640000 DUP5 MUL DIV SWAP1 POP SWAP3 SWAP2 POP POP JUMP JUMPDEST PUSH1 0x0 DUP2 PUSH1 0x0 NOT DIV DUP4 GT ISZERO PUSH2 0x584 JUMPI DUP2 ISZERO PUSH2 0x583 JUMPI PUSH4 0xBAC65E5B PUSH1 0x0 MSTORE PUSH1 0x4 PUSH1 0x1C REVERT JUMPDEST JUMPDEST PUSH8 0xDE0B6B3A7640000 DUP3 DUP5 MUL DIV SWAP1 POP SWAP3 SWAP2 POP POP JUMP JUMPDEST PUSH1 0x0 PUSH32 0xFFFFFFFFFFFFFFFFFFFFFFFFFFFFFFFFFFFFFFFFFFFFFFFDC0D0570925A462D7 DUP3 SGT ISZERO PUSH2 0x784 JUMPI PUSH9 0x755BF798B4A1BF1E5 DUP3 SLT PUSH2 0x5E1 JUMPI PUSH4 0xA37BFEC9 PUSH1 0x0 MSTORE PUSH1 0x4 PUSH1 0x1C REVERT JUMPDEST PUSH6 0x3782DACE9D9 PUSH1 0x4E DUP4 SWAP1 SHL DUP2 PUSH2 0x5FB JUMPI PUSH2 0x5FA PUSH2 0xA42 JUMP JUMPDEST JUMPDEST SDIV SWAP2 POP PUSH1 0x0 PUSH1 0x60 PUSH12 0x800000000000000000000000 PUSH12 0xB17217F7D1CF79ABC9E3B398 PUSH1 0x60 DUP7 SWAP1 SHL DUP2 PUSH2 0x62F JUMPI PUSH2 0x62E PUSH2 0xA42 JUMP JUMPDEST JUMPDEST SDIV ADD SWAP1 SAR SWAP1 POP PUSH12 0xB17217F7D1CF79ABC9E3B398 DUP2 MUL DUP4 SUB SWAP3 POP PUSH1 0x0 PUSH13 0x10FE68E7FD37D0007B713F7650 DUP5 ADD SWAP1 POP PUSH14 0x2D16720577BD19BF614176FE9EA PUSH1 0x60 DUP6 DUP4 MUL SWAP1 SAR ADD SWAP1 POP PUSH1 0x0 PUSH14 0x4A4FD9F2A8B96949216D2255A6C DUP6 DUP4 ADD SUB SWAP1 POP PUSH15 0x587F503BB6EA29D25FCB740196450 PUSH1 0x60 DUP4 DUP4 MUL SWAP1 SAR ADD SWAP1 POP PUSH26 0xD835EBBA824C98FB31B83B2CA45C000000000000000000000000 DUP6 DUP3 MUL ADD SWAP1 POP PUSH1 0x0 PUSH13 0x240C330E9FB2D9CBAF0FD5AAFC DUP7 SUB SWAP1 POP PUSH14 0x277594991CFC85F6E2461837CD9 PUSH1 0x60 DUP8 DUP4 MUL SWAP1 SAR ADD SWAP1 POP PUSH14 0x1A521255E34F6A5061B25EF1C9C4 PUSH1 0x60 DUP8 DUP4 MUL SWAP1 SAR SUB SWAP1 POP PUSH14 0xB1BBB201F443CF962F1A1D3DB4A5 PUSH1 0x60 DUP8 DUP4 MUL SWAP1 SAR ADD SWAP1 POP PUSH15 0x2C72388D9F74F51A9331FED693F15 PUSH1 0x60 DUP8 DUP4 MUL SWAP1 SAR SUB SWAP1 POP PUSH15 0x5180BB14799AB47A8A8CB2A527D57 PUSH1 0x60 DUP8 DUP4 MUL SWAP1 SAR ADD SWAP1 POP DUP1 DUP3 SDIV SWAP5 POP DUP4 PUSH1 0xC3 SUB PUSH21 0x29D9DC38563C32E5C2F6DC192EE70EF65F9978AF3 DUP7 MUL SWAP1 SHR SWAP5 POP POP POP POP POP JUMPDEST SWAP2 SWAP1 POP JUMP JUMPDEST PUSH1 0x0 DUP3 DUP5 MUL SWAP1 POP PUSH1 0x1 ISZERO PUSH2 0x83F JUMPI DUP2 DUP4 DUP6 DUP4 DIV EQ DUP6 ISZERO OR MUL PUSH2 0x839 JUMPI PUSH1 0x0 NOT DUP4 DUP6 MULMOD DUP2 DUP2 LT DUP3 ADD DUP2 SUB DUP4 DUP6 DUP8 MULMOD DUP5 PUSH1 0x0 SUB DUP6 AND DUP3 DUP7 GT PUSH2 0x7D1 JUMPI PUSH4 0xAE47F702 PUSH1 0x0 MSTORE PUSH1 0x4 PUSH1 0x1C REVERT JUMPDEST DUP1 DUP7 DIV SWAP6 POP DUP6 PUSH1 0x3 MUL PUSH1 0x2 XOR DUP1 DUP8 MUL PUSH1 0x2 SUB DUP2 MUL SWAP1 POP DUP1 DUP8 MUL PUSH1 0x2 SUB DUP2 MUL SWAP1 POP DUP1 DUP8 MUL PUSH1 0x2 SUB DUP2 MUL SWAP1 POP DUP1 DUP8 MUL PUSH1 0x2 SUB DUP2 MUL SWAP1 POP DUP1 DUP8 MUL PUSH1 0x2 SUB DUP2 MUL SWAP1 POP DUP1 DUP2 DUP9 MUL PUSH1 0x2 SUB MUL DUP3 DUP5 DUP9 SUB DIV PUSH1 0x1 DUP5 DUP6 PUSH1 0x0 SUB DIV ADD DUP9 DUP7 GT DUP8 SUB MUL OR MUL SWAP6 POP POP POP POP POP POP PUSH2 0x83F JUMP JUMPDEST DUP2 DUP2 DIV SWAP1 POP JUMPDEST SWAP4 SWAP3 POP POP POP JUMP JUMPDEST PUSH1 0x0 DUP2 SWAP1 POP SWAP2 SWAP1 POP JUMP JUMPDEST PUSH2 0x859 DUP2 PUSH2 0x846 JUMP JUMPDEST DUP3 MSTORE POP POP JUMP JUMPDEST PUSH1 0x0 PUSH1 0x20 DUP3 ADD SWAP1 POP PUSH2 0x874 PUSH1 0x0 DUP4 ADD DUP5 PUSH2 0x850 JUMP JUMPDEST SWAP3 SWAP2 POP POP JUMP JUMPDEST PUSH1 0x0 DUP1 REVERT JUMPDEST PUSH2 0x888 DUP2 PUSH2 0x846 JUMP JUMPDEST DUP2 EQ PUSH2 0x893 JUMPI PUSH1 0x0 DUP1 REVERT JUMPDEST POP JUMP JUMPDEST PUSH1 0x0 DUP2 CALLDATALOAD SWAP1 POP PUSH2 0x8A5 DUP2 PUSH2 0x87F JUMP JUMPDEST SWAP3 SWAP2 POP POP JUMP JUMPDEST PUSH1 0x0 DUP1 PUSH1 0x40 DUP4 DUP6 SUB SLT ISZERO PUSH2 0x8C2 JUMPI PUSH2 0x8C1 PUSH2 0x87A JUMP JUMPDEST JUMPDEST PUSH1 0x0 PUSH2 0x8D0 DUP6 DUP3 DUP7 ADD PUSH2 0x896 JUMP JUMPDEST SWAP3 POP POP PUSH1 0x20 PUSH2 0x8E1 DUP6 DUP3 DUP7 ADD PUSH2 0x896 JUMP JUMPDEST SWAP2 POP POP SWAP3 POP SWAP3 SWAP1 POP JUMP JUMPDEST PUSH32 0x4E487B7100000000000000000000000000000000000000000000000000000000 PUSH1 0x0 MSTORE PUSH1 0x11 PUSH1 0x4 MSTORE PUSH1 0x24 PUSH1 0x0 REVERT JUMPDEST PUSH1 0x0 PUSH2 0x925 DUP3 PUSH2 0x846 JUMP JUMPDEST SWAP2 POP PUSH2 0x930 DUP4 PUSH2 0x846 JUMP JUMPDEST SWAP3 POP DUP3 PUSH32 0xFFFFFFFFFFFFFFFFFFFFFFFFFFFFFFFFFFFFFFFFFFFFFFFFFFFFFFFFFFFFFFFF SUB DUP3 GT ISZERO PUSH2 0x965 JUMPI PUSH2 0x964 PUSH2 0x8EB JUMP JUMPDEST JUMPDEST DUP3 DUP3 ADD SWAP1 POP SWAP3 SWAP2 POP POP JUMP JUMPDEST PUSH1 0x0 PUSH2 0x97B DUP3 PUSH2 0x846 JUMP JUMPDEST SWAP2 POP PUSH2 0x986 DUP4 PUSH2 0x846 JUMP JUMPDEST SWAP3 POP DUP3 DUP3 LT ISZERO PUSH2 0x999 JUMPI PUSH2 0x998 PUSH2 0x8EB JUMP JUMPDEST JUMPDEST DUP3 DUP3 SUB SWAP1 POP SWAP3 SWAP2 POP POP JUMP JUMPDEST PUSH1 0x0 DUP2 SWAP1 POP SWAP2 SWAP1 POP JUMP JUMPDEST PUSH1 0x0 PUSH2 0x9B9 DUP3 PUSH2 0x9A4 JUMP JUMPDEST SWAP2 POP PUSH2 0x9C4 DUP4 PUSH2 0x9A4 JUMP JUMPDEST SWAP3 POP DUP3 PUSH32 0x8000000000000000000000000000000000000000000000000000000000000000 ADD DUP3 SLT PUSH1 0x0 DUP5 SLT ISZERO AND ISZERO PUSH2 0x9FF JUMPI PUSH2 0x9FE PUSH2 0x8EB JUMP JUMPDEST JUMPDEST DUP3 PUSH32 0x7FFFFFFFFFFFFFFFFFFFFFFFFFFFFFFFFFFFFFFFFFFFFFFFFFFFFFFFFFFFFFFF ADD DUP3 SGT PUSH1 0x0 DUP5 SLT AND ISZERO PUSH2 0xA37 JUMPI PUSH2 0xA36 PUSH2 0x8EB JUMP JUMPDEST JUMPDEST DUP3 DUP3 SUB SWAP1 POP SWAP3 SWAP2 POP POP JUMP JUMPDEST PUSH32 0x4E487B7100000000000000000000000000000000000000000000000000000000 PUSH1 0x0 MSTORE PUSH1 0x12 PUSH1 0x4 MSTORE PUSH1 0x24 PUSH1 0x0 REVERT INVALID LOG2 PUSH5 0x6970667358 0x22 SLT KECCAK256 DUP8 TIMESTAMP LOG4 PUSH23 0xFD4A57868F7252603E8C6F9BEC93A696C9E76AD9CFAB54 0xEE 0xC6 0xC3 0xB5 0xFB PUSH5 0x736F6C6343 STOP ADDMOD 0xD STOP CALLER "
		},
		"gasEstimates": {
			"creation": {
				"codeDepositCost": "3993800",
				"executionCost": "infinite",
				"totalCost": "infinite"
			},
			"external": {
				"FEE_DENOMINATOR()": "374",
				"FUNDING_GOAL()": "463",
				"FUNDING_SUPPLY()": "infinite",
				"INITIAL_SUPPLY()": "infinite",
				"MAX_SUPPLY()": "441",
				"ROUND_OFF()": "374",
				"bondingCurve()": "infinite",
				"buy(address)": "infinite",
				"claimETH(uint256)": "infinite",
				"claimFee()": "infinite",
				"claimToken(address,uint256)": "infinite",
				"collateral(address)": "2925",
				"createToken(string,string)": "infinite",
				"creationFees()": "2562",
				"fee()": "2496",
				"feePercent()": "2474",
				"owner()": "2589",
				"renounceOwnership()": "30509",
				"sell(address,uint256)": "infinite",
				"setBondingCurve(address)": "27009",
				"setFeePercent(uint256)": "24807",
				"tokens(address)": "3023",
				"transferOwnership(address)": "30832",
				"uniswapV2Factory()": "2581",
				"uniswapV2Router()": "2538"
			},
			"internal": {
				"addLiquidity(address,uint256,uint256)": "infinite",
				"burnLiquidityToken(address,uint256)": "infinite",
				"calculateFee(uint256,uint256)": "infinite",
				"createLiquilityPool(address)": "infinite"
			}
		},
		"methodIdentifiers": {
			"FEE_DENOMINATOR()": "d73792a9",
			"FUNDING_GOAL()": "42e49d5a",
			"FUNDING_SUPPLY()": "bfe60856",
			"INITIAL_SUPPLY()": "2ff2e9dc",
			"MAX_SUPPLY()": "32cb6b0c",
			"ROUND_OFF()": "53bee85c",
			"bondingCurve()": "eff1d50e",
			"buy(address)": "f088d547",
			"claimETH(uint256)": "fe96973a",
			"claimFee()": "99d32fc4",
			"claimToken(address,uint256)": "1698755f",
			"collateral(address)": "a5fdc5de",
			"createToken(string,string)": "2f2f2d56",
			"creationFees()": "73b79cb5",
			"fee()": "ddca3f43",
			"feePercent()": "7fd6f15c",
			"owner()": "8da5cb5b",
			"renounceOwnership()": "715018a6",
			"sell(address,uint256)": "6c197ff5",
			"setBondingCurve(address)": "43ff1fb8",
			"setFeePercent(uint256)": "7ce3489b",
			"tokens(address)": "e4860339",
			"transferOwnership(address)": "f2fde38b",
			"uniswapV2Factory()": "59d0f713",
			"uniswapV2Router()": "1694505e"
		}
	},
	"abi": [
		{
			"inputs": [
				{
					"internalType": "address",
					"name": "_uniswapV2Router",
					"type": "address"
				},
				{
					"internalType": "address",
					"name": "_uniswapV2Factory",
					"type": "address"
				},
				{
					"internalType": "uint256",
					"name": "_feePercent",
					"type": "uint256"
				},
				{
					"internalType": "uint256",
					"name": "_creationFees",
					"type": "uint256"
				}
			],
			"stateMutability": "nonpayable",
			"type": "constructor"
		},
		{
			"inputs": [],
			"name": "ReentrancyGuardReentrantCall",
			"type": "error"
		},
		{
			"anonymous": false,
			"inputs": [
				{
					"indexed": true,
					"internalType": "address",
					"name": "token",
					"type": "address"
				},
				{
					"indexed": false,
					"internalType": "uint256",
					"name": "timestamp",
					"type": "uint256"
				},
				{
					"indexed": false,
					"internalType": "uint256",
					"name": "ethAmount",
					"type": "uint256"
				},
				{
					"indexed": false,
					"internalType": "uint256",
					"name": "tokenAmount",
					"type": "uint256"
				}
			],
			"name": "Buy",
			"type": "event"
		},
		{
			"anonymous": false,
			"inputs": [
				{
					"indexed": true,
					"internalType": "address",
					"name": "previousOwner",
					"type": "address"
				},
				{
					"indexed": true,
					"internalType": "address",
					"name": "newOwner",
					"type": "address"
				}
			],
			"name": "OwnershipTransferred",
			"type": "event"
		},
		{
			"anonymous": false,
			"inputs": [
				{
					"indexed": true,
					"internalType": "address",
					"name": "token",
					"type": "address"
				},
				{
					"indexed": false,
					"internalType": "uint256",
					"name": "timestamp",
					"type": "uint256"
				},
				{
					"indexed": false,
					"internalType": "uint256",
					"name": "ethAmount",
					"type": "uint256"
				},
				{
					"indexed": false,
					"internalType": "uint256",
					"name": "tokenAmount",
					"type": "uint256"
				}
			],
			"name": "Sell",
			"type": "event"
		},
		{
			"anonymous": false,
			"inputs": [
				{
					"indexed": true,
					"internalType": "address",
					"name": "token",
					"type": "address"
				},
				{
					"indexed": false,
					"internalType": "uint256",
					"name": "timestamp",
					"type": "uint256"
				}
			],
			"name": "TokenCreated",
			"type": "event"
		},
		{
			"anonymous": false,
			"inputs": [
				{
					"indexed": true,
					"internalType": "address",
					"name": "token",
					"type": "address"
				},
				{
					"indexed": false,
					"internalType": "uint256",
					"name": "timestamp",
					"type": "uint256"
				}
			],
			"name": "TokenLiqudityAdded",
			"type": "event"
		},
		{
			"inputs": [],
			"name": "FEE_DENOMINATOR",
			"outputs": [
				{
					"internalType": "uint256",
					"name": "",
					"type": "uint256"
				}
			],
			"stateMutability": "view",
			"type": "function"
		},
		{
			"inputs": [],
			"name": "FUNDING_GOAL",
			"outputs": [
				{
					"internalType": "uint256",
					"name": "",
					"type": "uint256"
				}
			],
			"stateMutability": "view",
			"type": "function"
		},
		{
			"inputs": [],
			"name": "FUNDING_SUPPLY",
			"outputs": [
				{
					"internalType": "uint256",
					"name": "",
					"type": "uint256"
				}
			],
			"stateMutability": "view",
			"type": "function"
		},
		{
			"inputs": [],
			"name": "INITIAL_SUPPLY",
			"outputs": [
				{
					"internalType": "uint256",
					"name": "",
					"type": "uint256"
				}
			],
			"stateMutability": "view",
			"type": "function"
		},
		{
			"inputs": [],
			"name": "MAX_SUPPLY",
			"outputs": [
				{
					"internalType": "uint256",
					"name": "",
					"type": "uint256"
				}
			],
			"stateMutability": "view",
			"type": "function"
		},
		{
			"inputs": [],
			"name": "ROUND_OFF",
			"outputs": [
				{
					"internalType": "uint256",
					"name": "",
					"type": "uint256"
				}
			],
			"stateMutability": "view",
			"type": "function"
		},
		{
			"inputs": [],
			"name": "bondingCurve",
			"outputs": [
				{
					"internalType": "contract BondingCurve",
					"name": "",
					"type": "address"
				}
			],
			"stateMutability": "view",
			"type": "function"
		},
		{
			"inputs": [
				{
					"internalType": "address",
					"name": "tokenAddress",
					"type": "address"
				}
			],
			"name": "buy",
			"outputs": [],
			"stateMutability": "payable",
			"type": "function"
		},
		{
			"inputs": [
				{
					"internalType": "uint256",
					"name": "amount",
					"type": "uint256"
				}
			],
			"name": "claimETH",
			"outputs": [],
			"stateMutability": "nonpayable",
			"type": "function"
		},
		{
			"inputs": [],
			"name": "claimFee",
			"outputs": [],
			"stateMutability": "nonpayable",
			"type": "function"
		},
		{
			"inputs": [
				{
					"internalType": "address",
					"name": "token",
					"type": "address"
				},
				{
					"internalType": "uint256",
					"name": "amount",
					"type": "uint256"
				}
			],
			"name": "claimToken",
			"outputs": [],
			"stateMutability": "nonpayable",
			"type": "function"
		},
		{
			"inputs": [
				{
					"internalType": "address",
					"name": "",
					"type": "address"
				}
			],
			"name": "collateral",
			"outputs": [
				{
					"internalType": "uint256",
					"name": "",
					"type": "uint256"
				}
			],
			"stateMutability": "view",
			"type": "function"
		},
		{
			"inputs": [
				{
					"internalType": "string",
					"name": "name",
					"type": "string"
				},
				{
					"internalType": "string",
					"name": "symbol",
					"type": "string"
				}
			],
			"name": "createToken",
			"outputs": [
				{
					"internalType": "address",
					"name": "",
					"type": "address"
				}
			],
			"stateMutability": "payable",
			"type": "function"
		},
		{
			"inputs": [],
			"name": "creationFees",
			"outputs": [
				{
					"internalType": "uint256",
					"name": "",
					"type": "uint256"
				}
			],
			"stateMutability": "view",
			"type": "function"
		},
		{
			"inputs": [],
			"name": "fee",
			"outputs": [
				{
					"internalType": "uint256",
					"name": "",
					"type": "uint256"
				}
			],
			"stateMutability": "view",
			"type": "function"
		},
		{
			"inputs": [],
			"name": "feePercent",
			"outputs": [
				{
					"internalType": "uint256",
					"name": "",
					"type": "uint256"
				}
			],
			"stateMutability": "view",
			"type": "function"
		},
		{
			"inputs": [],
			"name": "owner",
			"outputs": [
				{
					"internalType": "address",
					"name": "",
					"type": "address"
				}
			],
			"stateMutability": "view",
			"type": "function"
		},
		{
			"inputs": [],
			"name": "renounceOwnership",
			"outputs": [],
			"stateMutability": "nonpayable",
			"type": "function"
		},
		{
			"inputs": [
				{
					"internalType": "address",
					"name": "tokenAddress",
					"type": "address"
				},
				{
					"internalType": "uint256",
					"name": "amount",
					"type": "uint256"
				}
			],
			"name": "sell",
			"outputs": [],
			"stateMutability": "nonpayable",
			"type": "function"
		},
		{
			"inputs": [
				{
					"internalType": "address",
					"name": "_bondingCurve",
					"type": "address"
				}
			],
			"name": "setBondingCurve",
			"outputs": [],
			"stateMutability": "nonpayable",
			"type": "function"
		},
		{
			"inputs": [
				{
					"internalType": "uint256",
					"name": "_feePercent",
					"type": "uint256"
				}
			],
			"name": "setFeePercent",
			"outputs": [],
			"stateMutability": "nonpayable",
			"type": "function"
		},
		{
			"inputs": [
				{
					"internalType": "address",
					"name": "",
					"type": "address"
				}
			],
			"name": "tokens",
			"outputs": [
				{
					"internalType": "enum SeiPAD.TokenState",
					"name": "",
					"type": "uint8"
				}
			],
			"stateMutability": "view",
			"type": "function"
		},
		{
			"inputs": [
				{
					"internalType": "address",
					"name": "newOwner",
					"type": "address"
				}
			],
			"name": "transferOwnership",
			"outputs": [],
			"stateMutability": "nonpayable",
			"type": "function"
		},
		{
			"inputs": [],
			"name": "uniswapV2Factory",
			"outputs": [
				{
					"internalType": "address",
					"name": "",
					"type": "address"
				}
			],
			"stateMutability": "view",
			"type": "function"
		},
		{
			"inputs": [],
			"name": "uniswapV2Router",
			"outputs": [
				{
					"internalType": "address",
					"name": "",
					"type": "address"
				}
			],
			"stateMutability": "view",
			"type": "function"
		}
	]
}